{
  "_format": "hh-sol-artifact-1",
  "contractName": "DOApp",
  "sourceName": "contracts/DOApp.sol",
  "abi": [
    {
      "inputs": [
        {
          "internalType": "bool",
          "name": "_isProductionMode",
          "type": "bool"
        },
        {
          "internalType": "contract IDataStorage",
          "name": "_dataStorage",
          "type": "address"
        }
      ],
      "stateMutability": "payable",
      "type": "constructor"
    },
    {
      "anonymous": false,
      "inputs": [
        {
          "indexed": false,
          "internalType": "address",
          "name": "_account",
          "type": "address"
        },
        {
          "indexed": true,
          "internalType": "uint256",
          "name": "_pairId",
          "type": "uint256"
        },
        {
          "indexed": false,
          "internalType": "address",
          "name": "_tokenInput",
          "type": "address"
        },
        {
          "indexed": false,
          "internalType": "uint256",
          "name": "_tokenInputPrice",
          "type": "uint256"
        },
        {
          "indexed": false,
          "internalType": "contract IERC20",
          "name": "_tokenOutput",
          "type": "address"
        },
        {
          "indexed": false,
          "internalType": "uint256",
          "name": "_amount",
          "type": "uint256"
        },
        {
          "indexed": false,
          "internalType": "uint256",
          "name": "_timeStamp",
          "type": "uint256"
        }
      ],
      "name": "DCAExecution",
      "type": "event"
    },
    {
      "anonymous": false,
      "inputs": [
        {
          "indexed": true,
          "internalType": "address",
          "name": "previousOwner",
          "type": "address"
        },
        {
          "indexed": true,
          "internalType": "address",
          "name": "newOwner",
          "type": "address"
        }
      ],
      "name": "OwnershipTransferred",
      "type": "event"
    },
    {
      "anonymous": false,
      "inputs": [
        {
          "indexed": true,
          "internalType": "uint256",
          "name": "_pairId",
          "type": "uint256"
        },
        {
          "indexed": false,
          "internalType": "uint256",
          "name": "_amountIn",
          "type": "uint256"
        },
        {
          "indexed": false,
          "internalType": "uint256",
          "name": "_amountOut",
          "type": "uint256"
        },
        {
          "indexed": false,
          "internalType": "uint256",
          "name": "_timeStamp",
          "type": "uint256"
        },
        {
          "indexed": false,
          "internalType": "bool",
          "name": "hasRemainingJobs",
          "type": "bool"
        }
      ],
      "name": "PairDCAExecutionResult",
      "type": "event"
    },
    {
      "anonymous": false,
      "inputs": [
        {
          "indexed": false,
          "internalType": "address",
          "name": "_sender",
          "type": "address"
        },
        {
          "indexed": true,
          "internalType": "uint256",
          "name": "_pairId",
          "type": "uint256"
        },
        {
          "indexed": false,
          "internalType": "address",
          "name": "token",
          "type": "address"
        },
        {
          "indexed": false,
          "internalType": "uint256",
          "name": "_amount",
          "type": "uint256"
        },
        {
          "indexed": false,
          "internalType": "uint256",
          "name": "_timestamp",
          "type": "uint256"
        }
      ],
      "name": "TokenDeposit",
      "type": "event"
    },
    {
      "anonymous": false,
      "inputs": [
        {
          "indexed": false,
          "internalType": "address",
          "name": "_sender",
          "type": "address"
        },
        {
          "indexed": true,
          "internalType": "uint256",
          "name": "_pairId",
          "type": "uint256"
        },
        {
          "indexed": false,
          "internalType": "address",
          "name": "token",
          "type": "address"
        },
        {
          "indexed": false,
          "internalType": "uint256",
          "name": "_amount",
          "type": "uint256"
        },
        {
          "indexed": false,
          "internalType": "uint256",
          "name": "_timestamp",
          "type": "uint256"
        }
      ],
      "name": "TokenWithdrawal",
      "type": "event"
    },
    {
      "inputs": [],
      "name": "MAX_DCA_SEGMENT_PROCESSED_BY_DCA_EXECUTION_CALL",
      "outputs": [
        {
          "internalType": "uint8",
          "name": "",
          "type": "uint8"
        }
      ],
      "stateMutability": "view",
      "type": "function"
    },
    {
      "inputs": [
        {
          "internalType": "uint256",
          "name": "_dcaConfigId",
          "type": "uint256"
        }
      ],
      "name": "deleteDCAConfig",
      "outputs": [],
      "stateMutability": "nonpayable",
      "type": "function"
    },
    {
      "inputs": [
        {
          "internalType": "uint256",
          "name": "_pairId",
          "type": "uint256"
        },
        {
          "internalType": "uint256",
          "name": "_amount",
          "type": "uint256"
        }
      ],
      "name": "depositTokenA",
      "outputs": [],
      "stateMutability": "nonpayable",
      "type": "function"
    },
    {
      "inputs": [
        {
          "internalType": "uint256",
          "name": "_pairId",
          "type": "uint256"
        },
        {
          "internalType": "uint256",
          "name": "_amount",
          "type": "uint256"
        }
      ],
      "name": "depositTokenB",
      "outputs": [],
      "stateMutability": "nonpayable",
      "type": "function"
    },
    {
      "inputs": [
        {
          "internalType": "uint256",
          "name": "_pairId",
          "type": "uint256"
        }
      ],
      "name": "executeDCA",
      "outputs": [
        {
          "internalType": "bool",
          "name": "hasRemainingDCAJobs",
          "type": "bool"
        }
      ],
      "stateMutability": "nonpayable",
      "type": "function"
    },
    {
      "inputs": [
        {
          "internalType": "address",
          "name": "_token",
          "type": "address"
        },
        {
          "internalType": "address",
          "name": "_user",
          "type": "address"
        }
      ],
      "name": "getTokenUserBalances",
      "outputs": [
        {
          "components": [
            {
              "internalType": "uint256",
              "name": "balance",
              "type": "uint256"
            },
            {
              "internalType": "uint256",
              "name": "index",
              "type": "uint256"
            }
          ],
          "internalType": "struct DOApp.TokenUserBalance",
          "name": "",
          "type": "tuple"
        }
      ],
      "stateMutability": "view",
      "type": "function"
    },
    {
      "inputs": [],
      "name": "owner",
      "outputs": [
        {
          "internalType": "address",
          "name": "",
          "type": "address"
        }
      ],
      "stateMutability": "view",
      "type": "function"
    },
    {
      "inputs": [],
      "name": "renounceOwnership",
      "outputs": [],
      "stateMutability": "nonpayable",
      "type": "function"
    },
    {
      "inputs": [
        {
          "internalType": "uint8",
          "name": "_newVal",
          "type": "uint8"
        }
      ],
      "name": "setMaxDCAProcessSegmentPerCall",
      "outputs": [],
      "stateMutability": "nonpayable",
      "type": "function"
    },
    {
      "inputs": [
        {
          "internalType": "address",
          "name": "newOwner",
          "type": "address"
        }
      ],
      "name": "transferOwnership",
      "outputs": [],
      "stateMutability": "nonpayable",
      "type": "function"
    },
    {
      "inputs": [
        {
          "internalType": "uint256",
          "name": "_pairId",
          "type": "uint256"
        },
        {
          "internalType": "uint256",
          "name": "_amount",
          "type": "uint256"
        }
      ],
      "name": "withdrawTokenA",
      "outputs": [],
      "stateMutability": "nonpayable",
      "type": "function"
    },
    {
      "inputs": [
        {
          "internalType": "uint256",
          "name": "_pairId",
          "type": "uint256"
        },
        {
          "internalType": "uint256",
          "name": "_amount",
          "type": "uint256"
        }
      ],
      "name": "withdrawTokenB",
      "outputs": [],
      "stateMutability": "nonpayable",
      "type": "function"
    }
  ],
  "bytecode": "0x60806040525f8060146101000a81548160ff0219169083151502179055506002600160146101000a81548160ff021916908360ff160217905550604051620097763803806200977683398181016040528101906200005e9190620002b0565b6200007e620000726200013360201b60201c565b6200013a60201b60201c565b6200009a67dd5d8b4779b3e72660c01b620001fb60201b60201c565b620000b667e724cb23064dc13860c01b620001fb60201b60201c565b815f60146101000a81548160ff021916908315150217905550620000eb67dd238a5bef2c58d060c01b620001fb60201b60201c565b8060015f6101000a81548173ffffffffffffffffffffffffffffffffffffffff021916908373ffffffffffffffffffffffffffffffffffffffff1602179055505050620002f5565b5f33905090565b5f805f9054906101000a900473ffffffffffffffffffffffffffffffffffffffff169050815f806101000a81548173ffffffffffffffffffffffffffffffffffffffff021916908373ffffffffffffffffffffffffffffffffffffffff1602179055508173ffffffffffffffffffffffffffffffffffffffff168173ffffffffffffffffffffffffffffffffffffffff167f8be0079c531659141344cd1fd0a4f28419497f9722a3daafe3b4186f6b6457e060405160405180910390a35050565b50565b5f80fd5b5f8115159050919050565b620002188162000202565b811462000223575f80fd5b50565b5f8151905062000236816200020d565b92915050565b5f73ffffffffffffffffffffffffffffffffffffffff82169050919050565b5f62000267826200023c565b9050919050565b5f6200027a826200025b565b9050919050565b6200028c816200026e565b811462000297575f80fd5b50565b5f81519050620002aa8162000281565b92915050565b5f8060408385031215620002c957620002c8620001fe565b5b5f620002d88582860162000226565b9250506020620002eb858286016200029a565b9150509250929050565b61947380620003035f395ff3fe608060405234801561000f575f80fd5b50600436106100d2575f3560e01c80637f0b08fa1161007f578063aa2ef4f011610059578063aa2ef4f0146101d8578063be25c25914610208578063f2fde38b14610224576100d2565b80637f0b08fa146101825780638da5cb5b1461019e578063a2ab51eb146101bc576100d2565b80636d9dc389116100b05780636d9dc389146101405780636db243af1461015c578063715018a614610178576100d2565b8063099f870f146100d65780631cda7a7c146100f45780631f7d568914610110575b5f80fd5b6100de610240565b6040516100eb9190616eb7565b60405180910390f35b61010e60048036038101906101099190616f14565b610253565b005b61012a60048036038101906101259190616f52565b610711565b6040516101379190616f97565b60405180910390f35b61015a60048036038101906101559190616fda565b61104a565b005b61017660048036038101906101719190616f14565b6110c0565b005b610180611470565b005b61019c60048036038101906101979190616f52565b611483565b005b6101a661149a565b6040516101b39190617044565b60405180910390f35b6101d660048036038101906101d19190616f14565b6114c1565b005b6101f260048036038101906101ed9190617087565b611985565b6040516101ff9190617101565b60405180910390f35b610222600480360381019061021d9190616f14565b611be3565b005b61023e6004803603810190610239919061711a565b611f98565b005b600160149054906101000a900460ff1681565b6102676783b3ea0ebb91aaa560c01b61201a565b61027b6743918934b573732d60c01b61201a565b61028f67b5087f5a2486846d60c01b61201a565b5f60015f9054906101000a900473ffffffffffffffffffffffffffffffffffffffff1673ffffffffffffffffffffffffffffffffffffffff16637c21ce14846040518263ffffffff1660e01b81526004016102ea9190617154565b6101a060405180830381865afa158015610306573d5f803e3d5ffd5b505050506040513d601f19601f8201168201806040525081019061032a91906173d5565b9050610340676e5f87ff2894ae3e60c01b61201a565b61035467b45582cf1f486cd460c01b61201a565b6103686745c9fb44a3fb84e660c01b61201a565b5f82116103aa576040517f08c379a00000000000000000000000000000000000000000000000000000000081526004016103a19061745b565b60405180910390fd5b6103be6755b963b8ca08745260c01b61201a565b6103d2679ebb339b27acf73860c01b61201a565b6103e66730d6c6be8856e74e60c01b61201a565b6103fa67951daaba6c91c8e260c01b61201a565b60025f825f015173ffffffffffffffffffffffffffffffffffffffff1673ffffffffffffffffffffffffffffffffffffffff1681526020019081526020015f205f3373ffffffffffffffffffffffffffffffffffffffff1673ffffffffffffffffffffffffffffffffffffffff1681526020019081526020015f205f01548211156104ba576040517f08c379a00000000000000000000000000000000000000000000000000000000081526004016104b1906174e9565b60405180910390fd5b6104ce67665ed3a8267e2c1b60c01b61201a565b6104e2672ed96c9b9de19ca760c01b61201a565b6104ea61201d565b60025f835f015173ffffffffffffffffffffffffffffffffffffffff1673ffffffffffffffffffffffffffffffffffffffff1681526020019081526020015f205f3373ffffffffffffffffffffffffffffffffffffffff1673ffffffffffffffffffffffffffffffffffffffff1681526020019081526020015f206001018190555061058067f27860fd4aa3ac6860c01b61201a565b8160025f835f015173ffffffffffffffffffffffffffffffffffffffff1673ffffffffffffffffffffffffffffffffffffffff1681526020019081526020015f205f3373ffffffffffffffffffffffffffffffffffffffff1673ffffffffffffffffffffffffffffffffffffffff1681526020019081526020015f205f015f82825461060c9190617534565b92505081905550610627675fe76b29aefbde6f60c01b61201a565b61063b67b069254120dba7b060c01b61201a565b61064d8160a00151825f015184612035565b61066167e5d6a65f0b31582560c01b61201a565b61067567f90c94d43df39f0860c01b61201a565b6106a33383835f015173ffffffffffffffffffffffffffffffffffffffff166122db9092919063ffffffff16565b6106b767c2ae063dd151ee5a60c01b61201a565b6106cb6737d724af95b430d360c01b61201a565b827fb051fa67486d17e04638dfff4d83b75ca9aede58b73679b06e004b28f90262ed33835f015185426040516107049493929190617567565b60405180910390a2505050565b5f6107266794767dead643ad5760c01b61201a565b61073a67ed3323b44f7a2efb60c01b61201a565b61074e675e75222bc29f91b860c01b61201a565b5f61076367b4ad9de8c98de55160c01b61201a565b61077767c7a989cba8cecd5860c01b61201a565b5f61078c675c7022a47cb59f6560c01b61201a565b6107a06751ff70994f0662e960c01b61201a565b5f60015f9054906101000a900473ffffffffffffffffffffffffffffffffffffffff1673ffffffffffffffffffffffffffffffffffffffff16637c21ce14866040518263ffffffff1660e01b81526004016107fb9190617154565b6101a060405180830381865afa158015610817573d5f803e3d5ffd5b505050506040513d601f19601f8201168201806040525081019061083b91906173d5565b9050610851679845cb89cc7107a160c01b61201a565b610865672b5d1bffc0dcf0df60c01b61201a565b61086d616d90565b6108816760d941ab80857a5460c01b61201a565b600160149054906101000a900460ff1660ff1667ffffffffffffffff8111156108ad576108ac617181565b5b6040519080825280602002602001820160405280156108e657816020015b6108d3616db6565b8152602001906001900390816108cb5790505b50815f01819052506109026712ad5bfa1fa9ba7c60c01b61201a565b600160149054906101000a900460ff1660ff1667ffffffffffffffff81111561092e5761092d617181565b5b60405190808252806020026020018201604052801561096757816020015b610954616db6565b81526020019060019003908161094c5790505b50816020018190525061098467b417b4ee990e3f1860c01b61201a565b610998676156b5bc3566acad60c01b61201a565b6109b96040518060600160405280602881526020016190d060289139612361565b6109cd673c6d07d4232fa0b060c01b61201a565b6109da825f835f806123fa565b8095508196508293505050506109fa6795fbae4774fb7fe760c01b61201a565b610a0e675f8efc17dcf8f4fc60c01b61201a565b610a516040518060400160405280601c81526020017f506f737420686f75726c7920637074546f74616c427579203a202573000000008152508561ffff1661352b565b610a65675499ba6e792ed37360c01b61201a565b610a7967057ec99d05bcc7e060c01b61201a565b610abc6040518060400160405280601d81526020017f506f737420686f75726c7920637074546f74616c53656c6c203a2025730000008152508461ffff1661352b565b610ad067463192a297f7b9f260c01b61201a565b610ae467ee3dfd4d99e2684e60c01b61201a565b600160149054906101000a900460ff1660ff168385610b0391906175b7565b61ffff161015610b9d57610b2167911f0eef20fa9e8f60c01b61201a565b610b35677187e86bebce78e560c01b61201a565b610b4967bc19f40cac7b2ba760c01b61201a565b610b6a604051806060016040528060278152602001618b3860279139612361565b610b7e67a8e4dc974963bd8460c01b61201a565b610b8c8260018387876123fa565b809550819650829350505050610bca565b610bb167b084875cce86968960c01b61201a565b610bc56716a26be4aae73f8f60c01b61201a565b600194505b610bde672dcefd7a5117f7ab60c01b61201a565b610bf267e7f913552e26dbf860c01b61201a565b610c356040518060400160405280601b81526020017f506f7374206461696c7920637074546f74616c427579203a20257300000000008152508561ffff1661352b565b610c496708adedc3304f09d760c01b61201a565b610c5d676e0414f8bb7b8a1c60c01b61201a565b610ca06040518060400160405280601c81526020017f506f7374206461696c7920637074546f74616c53656c6c203a202573000000008152508461ffff1661352b565b610cb467f91d0c72b2f896bd60c01b61201a565b610cc86796ac4f15cedcc20760c01b61201a565b600160149054906101000a900460ff1660ff168385610ce791906175b7565b61ffff161015610d8157610d05674ae9e345668851ac60c01b61201a565b610d19671f4d86c904a5156d60c01b61201a565b610d2d67812df3637e01867b60c01b61201a565b610d4e604051806060016040528060288152602001618f1c60289139612361565b610d6267bae61f70cc52e1f260c01b61201a565b610d708260028387876123fa565b809550819650829350505050610dae565b610d9567da27e791f6e473fd60c01b61201a565b610da967e84db3ef76ba6bdd60c01b61201a565b600194505b610dc267bf4fe55cf3eb92c660c01b61201a565b610dd6679afe7996daaea5de60c01b61201a565b610e196040518060400160405280601c81526020017f506f7374207765656b6c7920637074546f74616c427579203a202573000000008152508561ffff1661352b565b610e2d6757a47f37a2abcb4060c01b61201a565b610e41672cd1646aa3d599ef60c01b61201a565b610e846040518060400160405280601d81526020017f506f7374207765656b6c7920637074546f74616c53656c6c203a2025730000008152508461ffff1661352b565b610e9867c5a8062ab414728860c01b61201a565b610eac6770629ed11db3436f60c01b61201a565b600160149054906101000a900460ff1660ff168385610ecb91906175b7565b61ffff161015610f0557610ee967b82fed2150685f7560c01b61201a565b610efd67168efad25d4c833c60c01b61201a565b5f9450610f1a565b610f19679bcbc8376bd6645860c01b61201a565b5b610f2e677f62bbb13740b22b60c01b61201a565b610f4267d6b3bd41b66cab2060c01b61201a565b610f4c86826135c7565b610f6067d0a9aea4afcf5c7b60c01b61201a565b610f7467b74782387fc577e560c01b61201a565b610fb36040518060400160405280601681526020017f68617352656d61696e696e674443414a6f62732025730000000000000000000081525086613e21565b610fc767c566abae176bf11860c01b61201a565b610fdb6724971123ecc8c94860c01b61201a565b857ffe7819123ff5b51803cebc9f30e06ecb387ce00779c75160f748ebd6a05aefb95f804289604051611011949392919061762e565b60405180910390a261102d6745ac2480f27eca2760c01b61201a565b6110416785d22e8b30f2c14360c01b61201a565b50505050919050565b61105e67df270ca4c3660aca60c01b61201a565b611066613ebd565b61107a672e6817376a93203c60c01b61201a565b61108e67e66ac25c9f4221c060c01b61201a565b6110a267848d905dd460833b60c01b61201a565b80600160146101000a81548160ff021916908360ff16021790555050565b6110d4676af31f266244790760c01b61201a565b6110e867f1b619f886d6124260c01b61201a565b6110fc67f4c8cd25d5ccf7a360c01b61201a565b5f60015f9054906101000a900473ffffffffffffffffffffffffffffffffffffffff1673ffffffffffffffffffffffffffffffffffffffff16637c21ce14846040518263ffffffff1660e01b81526004016111579190617154565b6101a060405180830381865afa158015611173573d5f803e3d5ffd5b505050506040513d601f19601f8201168201806040525081019061119791906173d5565b90506111ad6757d755d1faca95ea60c01b61201a565b6111c1672fcaf70da58fd74d60c01b61201a565b6111d5675ac406bfb1472b7a60c01b61201a565b5f8211611217576040517f08c379a000000000000000000000000000000000000000000000000000000000815260040161120e906176bb565b60405180910390fd5b61122b67e79ef735095b415860c01b61201a565b61123f67563a27d1492d615560c01b61201a565b6112536739e0eebd3e3627c460c01b61201a565b611283333084845f015173ffffffffffffffffffffffffffffffffffffffff16613f3b909392919063ffffffff16565b6112976792637aa42d420cbf60c01b61201a565b6112ab67de325db04200c52860c01b61201a565b6112bd8160a00151825f015184613fc4565b6112d1677eb7a6080a7aaf8560c01b61201a565b6112d961201d565b60025f835f015173ffffffffffffffffffffffffffffffffffffffff1673ffffffffffffffffffffffffffffffffffffffff1681526020019081526020015f205f3373ffffffffffffffffffffffffffffffffffffffff1673ffffffffffffffffffffffffffffffffffffffff1681526020019081526020015f206001018190555061136f6768e037dd693951cb60c01b61201a565b8160025f835f015173ffffffffffffffffffffffffffffffffffffffff1673ffffffffffffffffffffffffffffffffffffffff1681526020019081526020015f205f3373ffffffffffffffffffffffffffffffffffffffff1673ffffffffffffffffffffffffffffffffffffffff1681526020019081526020015f205f015f8282546113fb91906176d9565b925050819055506114166781c2ba8235e1c26b60c01b61201a565b61142a67e6c965788cea828160c01b61201a565b827f9b42c995337c12dd7a5a1a5328a037e094b21b429c6cd6e5e1f478ba546b2d2b33835f015185426040516114639493929190617567565b60405180910390a2505050565b611478613ebd565b6114815f61415d565b565b61149767a1cf5cbe8165c07e60c01b61201a565b50565b5f805f9054906101000a900473ffffffffffffffffffffffffffffffffffffffff16905090565b6114d567363303a8a6451bc160c01b61201a565b6114e9672326e693b7961d3560c01b61201a565b6114fd678cae893b512ac27960c01b61201a565b5f60015f9054906101000a900473ffffffffffffffffffffffffffffffffffffffff1673ffffffffffffffffffffffffffffffffffffffff16637c21ce14846040518263ffffffff1660e01b81526004016115589190617154565b6101a060405180830381865afa158015611574573d5f803e3d5ffd5b505050506040513d601f19601f8201168201806040525081019061159891906173d5565b90506115ae67937fa88d4f5fdcfb60c01b61201a565b6115c267d31edb101a6d4b3a60c01b61201a565b6115d6672eabe17aee26f44a60c01b61201a565b5f8211611618576040517f08c379a000000000000000000000000000000000000000000000000000000000815260040161160f9061745b565b60405180910390fd5b61162c67dec3b15661490ada60c01b61201a565b611640677089919eceb1fbbe60c01b61201a565b61165467dc2d21c520c41ea460c01b61201a565b61166867bda5acc5dcc514a460c01b61201a565b60025f826040015173ffffffffffffffffffffffffffffffffffffffff1673ffffffffffffffffffffffffffffffffffffffff1681526020019081526020015f205f3373ffffffffffffffffffffffffffffffffffffffff1673ffffffffffffffffffffffffffffffffffffffff1681526020019081526020015f205f0154821115611729576040517f08c379a0000000000000000000000000000000000000000000000000000000008152600401611720906174e9565b60405180910390fd5b61173d675450163a6bc4c9ca60c01b61201a565b6117516750653249c77eb65160c01b61201a565b61175961201d565b60025f836040015173ffffffffffffffffffffffffffffffffffffffff1673ffffffffffffffffffffffffffffffffffffffff1681526020019081526020015f205f3373ffffffffffffffffffffffffffffffffffffffff1673ffffffffffffffffffffffffffffffffffffffff1681526020019081526020015f20600101819055506117f0673cced27c3360474660c01b61201a565b8160025f836040015173ffffffffffffffffffffffffffffffffffffffff1673ffffffffffffffffffffffffffffffffffffffff1681526020019081526020015f205f3373ffffffffffffffffffffffffffffffffffffffff1673ffffffffffffffffffffffffffffffffffffffff1681526020019081526020015f205f015f82825461187d9190617534565b9250508190555061189867929ed1551567f92360c01b61201a565b6118ac678dfaa70333c39ffc60c01b61201a565b6118bf8160a00151826040015184612035565b6118d367871cae16f37b8d2060c01b61201a565b6118e767410d2b29eca81b7160c01b61201a565b6119163383836040015173ffffffffffffffffffffffffffffffffffffffff166122db9092919063ffffffff16565b61192a674171036fd0aa912b60c01b61201a565b61193e673fdeffb22ecd1f6a60c01b61201a565b827fb051fa67486d17e04638dfff4d83b75ca9aede58b73679b06e004b28f90262ed33836040015185426040516119789493929190617567565b60405180910390a2505050565b61198d616dea565b6119a16735f98b9b940d36b260c01b61201a565b6119b567c34bffbaf64441db60c01b61201a565b6119c9678127099718916ee360c01b61201a565b6119dd678676200882e81d5e60c01b61201a565b5f73ffffffffffffffffffffffffffffffffffffffff168373ffffffffffffffffffffffffffffffffffffffff1603611a4b576040517f08c379a0000000000000000000000000000000000000000000000000000000008152600401611a4290617756565b60405180910390fd5b611a5f67dd7b27e0d1d6ba0a60c01b61201a565b611a736718e91ac1731175d260c01b61201a565b611a8767cba61c8a7617690b60c01b61201a565b611a9b67953693744f418a3d60c01b61201a565b5f73ffffffffffffffffffffffffffffffffffffffff168273ffffffffffffffffffffffffffffffffffffffff1603611b09576040517f08c379a0000000000000000000000000000000000000000000000000000000008152600401611b00906177be565b60405180910390fd5b611b1d6725b6b98c2128dca160c01b61201a565b611b3167832f8165bcfa9d2560c01b61201a565b611b456799d9a85b678c4ea260c01b61201a565b60025f8473ffffffffffffffffffffffffffffffffffffffff1673ffffffffffffffffffffffffffffffffffffffff1681526020019081526020015f205f8373ffffffffffffffffffffffffffffffffffffffff1673ffffffffffffffffffffffffffffffffffffffff1681526020019081526020015f206040518060400160405290815f8201548152602001600182015481525050905092915050565b611bf767e0267a23debfbe7f60c01b61201a565b611c0b678fe18445c7b00af460c01b61201a565b611c1f67629f935b8803ef1b60c01b61201a565b5f60015f9054906101000a900473ffffffffffffffffffffffffffffffffffffffff1673ffffffffffffffffffffffffffffffffffffffff16637c21ce14846040518263ffffffff1660e01b8152600401611c7a9190617154565b6101a060405180830381865afa158015611c96573d5f803e3d5ffd5b505050506040513d601f19601f82011682018060405250810190611cba91906173d5565b9050611cd06795b19c4d151b18d260c01b61201a565b611ce467bd3c2302512eca8c60c01b61201a565b611cf8671ff5c7870e6cee6e60c01b61201a565b5f8211611d3a576040517f08c379a0000000000000000000000000000000000000000000000000000000008152600401611d31906176bb565b60405180910390fd5b611d4e67f877ea19782be92f60c01b61201a565b611d6267fc0d4c5377f2f8ee60c01b61201a565b611d7667dbac615d14c3481560c01b61201a565b611da7333084846040015173ffffffffffffffffffffffffffffffffffffffff16613f3b909392919063ffffffff16565b611dbb670e4a2976014eba7960c01b61201a565b611dcf6752cee741a0f22f6460c01b61201a565b611de28160a00151826040015184613fc4565b611df667e915dfd96a396d6460c01b61201a565b611dfe61201d565b60025f836040015173ffffffffffffffffffffffffffffffffffffffff1673ffffffffffffffffffffffffffffffffffffffff1681526020019081526020015f205f3373ffffffffffffffffffffffffffffffffffffffff1673ffffffffffffffffffffffffffffffffffffffff1681526020019081526020015f2060010181905550611e95675d4d9ab292e5678f60c01b61201a565b8160025f836040015173ffffffffffffffffffffffffffffffffffffffff1673ffffffffffffffffffffffffffffffffffffffff1681526020019081526020015f205f3373ffffffffffffffffffffffffffffffffffffffff1673ffffffffffffffffffffffffffffffffffffffff1681526020019081526020015f205f015f828254611f2291906176d9565b92505081905550611f3d672da848cddee8942260c01b61201a565b611f51673aee9e6faa0c0e6960c01b61201a565b827f9b42c995337c12dd7a5a1a5328a037e094b21b429c6cd6e5e1f478ba546b2d2b3383604001518542604051611f8b9493929190617567565b60405180910390a2505050565b611fa0613ebd565b5f73ffffffffffffffffffffffffffffffffffffffff168173ffffffffffffffffffffffffffffffffffffffff160361200e576040517f08c379a00000000000000000000000000000000000000000000000000000000081526004016120059061784c565b60405180910390fd5b6120178161415d565b50565b50565b5f61203267591a26ba0100125560c01b61201a565b90565b61204967c9329f99ab7fc3f660c01b61201a565b61205d676b3a9e35c9a038dc60c01b61201a565b61207167cc084a6e24eb277560c01b61201a565b5f8373ffffffffffffffffffffffffffffffffffffffff1663026b1d5f6040518163ffffffff1660e01b8152600401602060405180830381865afa1580156120bb573d5f803e3d5ffd5b505050506040513d601f19601f820116820180604052508101906120df919061786a565b90506120f5671f2e5bbaa9f6cb3460c01b61201a565b612109672662e9572766a52960c01b61201a565b5f8173ffffffffffffffffffffffffffffffffffffffff166335ea6a75856040518263ffffffff1660e01b81526004016121439190617044565b6101e060405180830381865afa15801561215f573d5f803e3d5ffd5b505050506040513d601f19601f820116820180604052508101906121839190617ad8565b6101000151905061219e67d0580e953c2a976c60c01b61201a565b6121b267537fb6ee4836adf360c01b61201a565b8073ffffffffffffffffffffffffffffffffffffffff1663095ea7b383856040518363ffffffff1660e01b81526004016121ed929190617b04565b6020604051808303815f875af1158015612209573d5f803e3d5ffd5b505050506040513d601f19601f8201168201806040525081019061222d9190617b2b565b5061224267e2189cb3ceb01bc160c01b61201a565b61225667d7627ffb8b0d410b60c01b61201a565b8173ffffffffffffffffffffffffffffffffffffffff166369328dec8585306040518463ffffffff1660e01b815260040161229393929190617b56565b6020604051808303815f875af11580156122af573d5f803e3d5ffd5b505050506040513d601f19601f820116820180604052508101906122d39190617b8b565b505050505050565b61235c8363a9059cbb60e01b84846040516024016122fa929190617b04565b604051602081830303815290604052907bffffffffffffffffffffffffffffffffffffffffffffffffffffffff19166020820180517bffffffffffffffffffffffffffffffffffffffffffffffffffffffff838183161783525050505061421e565b505050565b6123f7816040516024016123759190617c20565b6040516020818303038152906040527f41304fac000000000000000000000000000000000000000000000000000000007bffffffffffffffffffffffffffffffffffffffffffffffffffffffff19166020820180517bffffffffffffffffffffffffffffffffffffffffffffffffffffffff83818316178352505050506142e4565b50565b612402616d90565b5f8061241867e6053681e9fe579460c01b61201a565b61242c674ac720f8f005b69760c01b61201a565b61244067ce06e782836781c060c01b61201a565b61247a604051806060016040528060298152602001618dd36029913989610140015189600281111561247557612474617c40565b5b614303565b61248e6744ce9e75429c14e960c01b61201a565b6124a26717753b5417cf1e7560c01b61201a565b6124aa616e02565b6124be67f6c7d59a0337485360c01b61201a565b6124c7896143a2565b815f0181815250506124e36750101c264a1ddf1460c01b61201a565b60015f9054906101000a900473ffffffffffffffffffffffffffffffffffffffff1673ffffffffffffffffffffffffffffffffffffffff1663a4036c008a6101400151835f01518b6040518463ffffffff1660e01b815260040161254993929190617cb3565b5f60405180830381865afa158015612563573d5f803e3d5ffd5b505050506040513d5f823e3d601f19601f8201168201806040525081019061258b9190617edd565b81602001819052506125a7673bf2860615a261d360c01b61201a565b886101600151816040019073ffffffffffffffffffffffffffffffffffffffff16908173ffffffffffffffffffffffffffffffffffffffff16815250506125f867e406e80ead44746260c01b61201a565b886101800151816060019073ffffffffffffffffffffffffffffffffffffffff16908173ffffffffffffffffffffffffffffffffffffffff1681525050612649671e9b58b7f39027b560c01b61201a565b60018160c001901515908115158152505061266e67c66a94e4c6e845eb60c01b61201a565b61268267918cf7c61226bd5160c01b61201a565b61269667b48700d08e05b3dd60c01b61201a565b6126f26040518060600160405280603c81526020016193b4603c913982602001515f600281106126c9576126c8617f24565b5b60200201515183602001516001600281106126e7576126e6617f24565b5b602002015151614303565b61270667834584160096b59f60c01b61201a565b61271a672c4667a3b584a82560c01b61201a565b5f81602001515f6002811061273257612731617f24565b5b6020020151511415801561275657506127556712fcc1c95a9430a960c01b6144a2565b5b8061279a57505f816020015160016002811061277557612774617f24565b5b6020020151511415801561279957506127986703def10609dcbf8760c01b6144a2565b5b5b15613486576127b36736f7cf2428338b1960c01b61201a565b6127c767ea3aaa472c73db3f60c01b61201a565b6127db67e03a75e76547881560c01b61201a565b61280f6040518060600160405280603f8152602001618fe9603f9139600160149054906101000a900460ff1660ff1661352b565b61282367d5895709c5cf780360c01b61201a565b61283767f48995eec3fb00c560c01b61201a565b61286a6040518060600160405280602e8152602001618baa602e9139826080015161ffff168360a0015161ffff16614303565b61287e67d55c25553c290d3c60c01b61201a565b61289166b3279b238e775160c01b61201a565b6128bc604051806060016040528060388152602001618f44603891398761ffff168761ffff16614303565b6128d067baa3dc524b5791e260c01b61201a565b6128e467b32e7b985de1df8c60c01b61201a565b5b600160149054906101000a900460ff1660ff16858761290491906175b7565b61ffff161080156129a15750806080015161ffff1681602001515f600281106129305761292f617f24565b5b6020020151511415801561295457506129536743f35c4fd95c589560c01b6144a2565b5b806129a057508060a0015161ffff16816020015160016002811061297b5761297a617f24565b5b6020020151511415801561299f575061299e672c2fc9d69fdf06bc60c01b6144a2565b5b5b5b15613481576129ba67cca6558abac6be8660c01b61201a565b6129ce67c2aaa113fd2c08f360c01b61201a565b612a01604051806060016040528060398152602001618d9a60399139826080015161ffff168360a0015161ffff16614303565b612a1567b759204c714d284960c01b61201a565b612a2967c6d6fb3d55b86da960c01b61201a565b612a54604051806080016040528060438152602001619371604391398761ffff168761ffff16614303565b612a6867134bc668b7801f7b60c01b61201a565b612a7c6711c3521e3e3d4dac60c01b61201a565b8060c001511561301757612a9a67d3b64864c7fa9db260c01b61201a565b612aae67757fe01a72c6e62360c01b61201a565b612ac267710e857545ab2bd260c01b61201a565b612ae3604051806060016040528060248152602001618d7660249139612361565b612af767e6838d5b76ac240c60c01b61201a565b612b0b67948bad99b0c9275260c01b61201a565b5f81602001515f60028110612b2357612b22617f24565b5b6020020151511115612e9d57612b436703971c6d6bac5ca860c01b61201a565b612b57673e1e4a1aa9b6bc0060c01b61201a565b612b6b670ade3f519764480560c01b61201a565b5f80612ba08b610140015184602001515f60028110612b8d57612b8c617f24565b5b60200201518c86608001514260016144ac565b91509150612bb867d0a9c35b1f6df20660c01b61201a565b80836080019061ffff16908161ffff1681525050612be06702fb7120fc5514c260c01b61201a565b612bf467cba67f38df4de0b260c01b61201a565b612c1a6040518060600160405280602c8152602001618a78602c9139836020015161352b565b612c2e674929b7a63f27241560c01b61201a565b612c426752d1d569a50b386b60c01b61201a565b612c676040518060600160405280602b8152602001618d4b602b9139835f0151614bd5565b612c7b67960c4b393cb6a79f60c01b61201a565b612c8f67fa92217e73d15f6360c01b61201a565b612cb5604051806060016040528060318152602001618d1a60319139836040015161352b565b612cc967192d02dd9777a3e360c01b61201a565b612cdd67dfd0d32b64e1c5cf60c01b61201a565b612d076040518060600160405280602c8152602001618a29602c9139846080015161ffff1661352b565b612d1b67a422640ad8e608d560c01b61201a565b612d2f6748c5b51ec0d91b0460c01b61201a565b612d5560405180606001604052806028815260200161895c602891398961ffff1661352b565b612d696767b49b47cc15474460c01b61201a565b612d7d674ed686858c51e79e60c01b61201a565b5f826020015114612e2e57612d9c6737ce72257abfd6a760c01b61201a565b612db067e1f3b90459da6c6860c01b61201a565b81895f01518961ffff1681518110612dcb57612dca617f24565b5b6020026020010181905250612dea671bb9561dd18c0c9260c01b61201a565b816020015189604001818151612e0091906176d9565b91508181525050612e1b677e3b3ee2eb8bc35960c01b61201a565b8780612e2690617f51565b985050612e43565b612e4267c4288fd46afb711a60c01b61201a565b5b612e5767ab35856bf0292ebb60c01b61201a565b612e6b67fa83007a22234f6560c01b61201a565b612e966040518060600160405280603a8152602001618e68603a91398a604001518b60600151614303565b5050612eb2565b612eb167dbcaec1c35ff641360c01b61201a565b5b612ec6672bd92dc1be06267760c01b61201a565b612eda672bd5daa023a9624860c01b61201a565b612f226040518060800160405280604a8152602001618ea2604a9139826080015161ffff1683602001515f60028110612f1657612f15617f24565b5b60200201515114613e21565b612f36672222dca240ef1dc960c01b61201a565b612f4a674f55a60de887f2bf60c01b61201a565b86606001518760400151118015612f715750612f7067fd458a3e5ae8cd9560c01b6144a2565b5b80612fbb5750806080015161ffff1681602001515f60028110612f9757612f96617f24565b5b602002015151148015612fba5750612fb967a0524dd7ddf3dc0e60c01b6144a2565b5b5b15612ffd57612fd4672d9e173f9dc7260b60c01b61201a565b612fe867eb3068ceb1528fee60c01b61201a565b5f8160c0019015159081151581525050613012565b61301167b61e9dca42b76edc60c01b61201a565b5b613421565b61302b67cce9d61dddbaaa9f60c01b61201a565b61303f6750bf08eb437f76ee60c01b61201a565b61305367d4932f2fb085e07e60c01b61201a565b61307460405180606001604052806025815260200161941960259139612361565b613088676090387a8f282e5760c01b61201a565b61309c678ceafbff3918c09260c01b61201a565b5f81602001516001600281106130b5576130b4617f24565b5b60200201515111156132a7576130d5676bdec6db35f88be060c01b61201a565b6130e967f09108bf22587f9460c01b61201a565b6130fd6794c2ebe19b5e6f7d60c01b61201a565b5f806131328b610140015184602001516001600281106131205761311f617f24565b5b60200201518c8660a00151425f6144ac565b9150915061314a67535aad29ddd5ee4760c01b61201a565b808360a0019061ffff16908161ffff16815250506131726709af518d72634b2160c01b61201a565b61318667c4e0c2afc0a39f2f60c01b61201a565b5f826020015114613238576131a567b2aa9c5f53d97a9760c01b61201a565b6131b967b9986a52ec7afe1460c01b61201a565b8189602001518861ffff16815181106131d5576131d4617f24565b5b60200260200101819052506131f467b3d36fbc1a83f18860c01b61201a565b81602001518960600181815161320a91906176d9565b91508181525050613225677902075c0f0b504c60c01b61201a565b868061323090617f51565b97505061324d565b61324c672ab26d570bcf731b60c01b61201a565b5b61326167c458a797d202a3b360c01b61201a565b61327567464c9cd5825eeb0060c01b61201a565b6132a06040518060600160405280603b8152602001618c73603b91398a604001518b60600151614303565b50506132bc565b6132bb67bfd748fb1fbcb1be60c01b61201a565b5b6132d067a6cb2401850c14df60c01b61201a565b6132e4677603be16bb5ba2f060c01b61201a565b61332d6040518060800160405280604c8152602001619325604c91398260a0015161ffff16836020015160016002811061332157613320617f24565b5b60200201515114613e21565b6133416757f3d889c0f677ce60c01b61201a565b61335567a5b83461c8e25c7360c01b61201a565b866040015187606001511015801561337d575061337c67176404cad8254bdc60c01b6144a2565b5b806133c857508060a0015161ffff1681602001516001600281106133a4576133a3617f24565b5b6020020151511480156133c757506133c6677bb238fcbfc1185160c01b6144a2565b5b5b1561340b576133e167d2b80c7175671e1c60c01b61201a565b6133f5679b89d47008c5393860c01b61201a565b60018160c0019015159081151581525050613420565b61341f67e3de3c28e098d30160c01b61201a565b5b5b61343567652b8809b5983b4760c01b61201a565b613449674a0f3195f650f96c60c01b61201a565b61347c6040518060600160405280603a8152602001618984603a9139826080015161ffff168360a0015161ffff16614303565b6128e5565b61349b565b61349a678eca45b1d84c0e6f60c01b61201a565b5b6134af679a8e1e7aec8857b560c01b61201a565b6134c367bc4670bb0c906aff60c01b61201a565b6134ee604051806060016040528060308152602001618eec603091398761ffff168761ffff16614303565b613502678e6cd60ae5867f3d60c01b61201a565b61351667f7c51f0628b783ef60c01b61201a565b86868693509350935050955095509592505050565b6135c38282604051602401613541929190617f7a565b6040516020818303038152906040527fb60e72cc000000000000000000000000000000000000000000000000000000007bffffffffffffffffffffffffffffffffffffffffffffffffffffffff19166020820180517bffffffffffffffffffffffffffffffffffffffffffffffffffffffff83818316178352505050506142e4565b5050565b6135db6759d5a63c8203147060c01b61201a565b6135ef6765e0fd7d0d2f072660c01b61201a565b6136036760fad8267a72cf1260c01b61201a565b5f6136186709d334ee15f9b0f560c01b61201a565b61362c67326651920e57887d60c01b61201a565b5f6136416701c2ba6c119b49dd60c01b61201a565b6136556759503df56dc04e2360c01b61201a565b5f61366a670e17bba357b445c960c01b61201a565b61367e6752b63349bf41bfa860c01b61201a565b5f61369367a300b22dd140ce9a60c01b61201a565b6136a767de07b3af8ce8c74760c01b61201a565b5f6136bc67eeaca2adb6a0b04060c01b61201a565b6136d0677e709e2ba2b1729d60c01b61201a565b5f5b865f0151518161ffff161015613784576136f667569b6f482dc5704d60c01b61201a565b865f01518161ffff16815181106137105761370f617f24565b5b6020026020010151602001518661372791906176d9565b955061373d67258da82145015d5060c01b61201a565b86602001518161ffff168151811061375857613757617f24565b5b6020026020010151602001518561376f91906176d9565b9450808061377c90617f51565b9150506136d2565b50613799672ea38524b16bd11c60c01b61201a565b6137ad672cb6e4227ac0bf6d60c01b61201a565b6137d06040518060600160405280602981526020016190a7602991398686614303565b6137e467989a1766496a6e8760c01b61201a565b6137f8678621ed7f01f85a5d60c01b61201a565b5f8486108015613818575061381767aeaabbc9bfde192060c01b6144a2565b5b8061383357506138326720a6f95208ff8bfd60c01b614c71565b5b61383d578461383f565b855b905061385567bbefa9547d246a6260c01b61201a565b61386967ec97a205d0025a6a60c01b61201a565b5f858710801561388957506138886772b38106003f9b3f60c01b6144a2565b5b806138a457506138a36792df05a2a3ff0f3160c01b614c71565b5b6138b95781876138b49190617534565b6138c6565b81866138c59190617534565b5b90506138dc67101e516cf8f626cc60c01b61201a565b6138f0678e8c06539174333260c01b61201a565b613913604051806060016040528060328152602001618c04603291398383614303565b613927674d6db28be6bfdc7a60c01b61201a565b61393b67927f3dd733fe123a60c01b61201a565b5f811115613d9a57613957678f3143d231a6ae3f60c01b61201a565b61396b677e7d7d89cc6ba45460c01b61201a565b61397f67b8869af6857b4b8b60c01b61201a565b5f60015f9054906101000a900473ffffffffffffffffffffffffffffffffffffffff1673ffffffffffffffffffffffffffffffffffffffff16637c21ce148b6040518263ffffffff1660e01b81526004016139da9190617154565b6101a060405180830381865afa1580156139f6573d5f803e3d5ffd5b505050506040513d601f19601f82011682018060405250810190613a1a91906173d5565b9050613a306771a78ffca3299fd960c01b61201a565b613a4467f0f8dbf2de7e4f4360c01b61201a565b86881115613a9a57613a6067cbbafda52ea3634660c01b61201a565b613a74671e0a89784dcd422260c01b61201a565b805f01519450613a8e67f3d1de71313a5d0d60c01b61201a565b80604001519350613ae4565b613aae67856466658df2d06160c01b61201a565b613ac2677ccced0d7087aebd60c01b61201a565b80604001519450613add671979dead0f3095b360c01b61201a565b805f015193505b613af867a4df93ebba09871d60c01b61201a565b613b0c678a2bba038422e47a60c01b61201a565b5f613b2167e0b352fc66362e6360c01b61201a565b8789118015613b405750613b3f673c692d88b8727ccc60c01b6144a2565b5b80613b5b5750613b5a674fc4f7523c53957d60c01b614c71565b5b613b6a57816101800151613b71565b8161016001515b9050613b8767f21dded6d85e3e2460c01b61201a565b613b9b672a58ae35cc5c430360c01b61201a565b613c346040518060600160405280602981526020016190f8602991398273ffffffffffffffffffffffffffffffffffffffff166370a08231336040518263ffffffff1660e01b8152600401613bf09190617044565b602060405180830381865afa158015613c0b573d5f803e3d5ffd5b505050506040513d601f19601f82011682018060405250810190613c2f9190617b8b565b61352b565b613c486745cb2382ee42fc5960c01b61201a565b613c5c673dea75d8dd00148f60c01b61201a565b613cf56040518060600160405280602c8152602001618bd8602c91398273ffffffffffffffffffffffffffffffffffffffff166370a08231306040518263ffffffff1660e01b8152600401613cb19190617044565b602060405180830381865afa158015613ccc573d5f803e3d5ffd5b505050506040513d601f19601f82011682018060405250810190613cf09190617b8b565b61352b565b613d096772d8aea0d111faa160c01b61201a565b613d1d672a067fd97048b3a960c01b61201a565b613d2c8260a001518785612035565b613d4067f4b4aa83a4b202ee60c01b61201a565b613d5a8b848a8c11613d52575f613d55565b60015b614c77565b9650613d70675b8fefc2451506fb60c01b61201a565b613d84678193000c8f98754160c01b61201a565b613d938260a001518689613fc4565b5050613daf565b613dae67f05d4a6cf78100ae60c01b61201a565b5b613dc367e6f1a21e2811dc1d60c01b61201a565b613dd767ae184e0b861c7f8e60c01b61201a565b613de589888885898d615674565b613df967c5e355fafb8e53c760c01b61201a565b613e0d679b256b435fc3272f60c01b61201a565b613e1688616499565b505050505050505050565b613eb98282604051602401613e37929190617fa8565b6040516020818303038152906040527fc3b55635000000000000000000000000000000000000000000000000000000007bffffffffffffffffffffffffffffffffffffffffffffffffffffffff19166020820180517bffffffffffffffffffffffffffffffffffffffffffffffffffffffff83818316178352505050506142e4565b5050565b613ec561663a565b73ffffffffffffffffffffffffffffffffffffffff16613ee361149a565b73ffffffffffffffffffffffffffffffffffffffff1614613f39576040517f08c379a0000000000000000000000000000000000000000000000000000000008152600401613f3090618020565b60405180910390fd5b565b613fbe846323b872dd60e01b858585604051602401613f5c9392919061803e565b604051602081830303815290604052907bffffffffffffffffffffffffffffffffffffffffffffffffffffffff19166020820180517bffffffffffffffffffffffffffffffffffffffffffffffffffffffff838183161783525050505061421e565b50505050565b613fd867b33dfc4d204d4dd660c01b61201a565b613fec67a0bc0282171a6e0f60c01b61201a565b6140006754dcc1184b480d1f60c01b61201a565b5f8373ffffffffffffffffffffffffffffffffffffffff1663026b1d5f6040518163ffffffff1660e01b8152600401602060405180830381865afa15801561404a573d5f803e3d5ffd5b505050506040513d601f19601f8201168201806040525081019061406e919061786a565b9050614084678bfa6e16e605635b60c01b61201a565b61409867575852e13640395160c01b61201a565b6140c381838573ffffffffffffffffffffffffffffffffffffffff166166419092919063ffffffff16565b6140d76750c91f9972bb278260c01b61201a565b6140eb672bc2dfe6d050109960c01b61201a565b8073ffffffffffffffffffffffffffffffffffffffff1663617ba0378484305f6040518563ffffffff1660e01b815260040161412a94939291906180a3565b5f604051808303815f87803b158015614141575f80fd5b505af1158015614153573d5f803e3d5ffd5b5050505050505050565b5f805f9054906101000a900473ffffffffffffffffffffffffffffffffffffffff169050815f806101000a81548173ffffffffffffffffffffffffffffffffffffffff021916908373ffffffffffffffffffffffffffffffffffffffff1602179055508173ffffffffffffffffffffffffffffffffffffffff168173ffffffffffffffffffffffffffffffffffffffff167f8be0079c531659141344cd1fd0a4f28419497f9722a3daafe3b4186f6b6457e060405160405180910390a35050565b5f61427f826040518060400160405280602081526020017f5361666545524332303a206c6f772d6c6576656c2063616c6c206661696c65648152508573ffffffffffffffffffffffffffffffffffffffff166167509092919063ffffffff16565b90505f815114806142a057508080602001905181019061429f9190617b2b565b5b6142df576040517f08c379a00000000000000000000000000000000000000000000000000000000081526004016142d690618156565b60405180910390fd5b505050565b5f6a636f6e736f6c652e6c6f6790505f80835160208501845afa505050565b61439d83838360405160240161431b93929190618174565b6040516020818303038152906040527fca47c4eb000000000000000000000000000000000000000000000000000000007bffffffffffffffffffffffffffffffffffffffffffffffffffffffff19166020820180517bffffffffffffffffffffffffffffffffffffffffffffffffffffffff83818316178352505050506142e4565b505050565b5f6143b767d17807844b1df8ae60c01b61201a565b6143cb6723871928c20e58af60c01b61201a565b6143df6745a482ca77d891eb60c01b61201a565b5f826080015173ffffffffffffffffffffffffffffffffffffffff1663feaf968c6040518163ffffffff1660e01b815260040160a060405180830381865afa15801561442d573d5f803e3d5ffd5b505050506040513d601f19601f820116820180604052508101906144519190618222565b50505091505061446b676b6f810e7c3952b760c01b61201a565b61447f6764d4f75fda76fe4860c01b61201a565b8260e001518161448f91906182c6565b8161449a9190617534565b915050919050565b5f60019050919050565b6144b4616db6565b5f6144c9676514f3d86289847860c01b61201a565b6144dd678c5b97d64190df6e60c01b61201a565b6144f167d89bc3071fab391860c01b61201a565b61452a6040518060600160405280602f8152602001619291602f91398661ffff1688600281111561452557614524617c40565b5b614303565b61453e671464bffd7c86a5b160c01b61201a565b6145526796b087a6d967ad5560c01b61201a565b61457560405180606001604052806035815260200161922760359139885161352b565b614589679883ed857d557e6f60c01b61201a565b5b5f60015f9054906101000a900473ffffffffffffffffffffffffffffffffffffffff1673ffffffffffffffffffffffffffffffffffffffff16637c21ce148a6040518263ffffffff1660e01b81526004016145e59190617154565b6101a060405180830381865afa158015614601573d5f803e3d5ffd5b505050506040513d601f19601f8201168201806040525081019061462591906173d5565b90506147106040518060800160405280604781526020016191e0604791398761ffff168760015f9054906101000a900473ffffffffffffffffffffffffffffffffffffffff1673ffffffffffffffffffffffffffffffffffffffff1663b2d4fcad8d8c61ffff168151811061469d5761469c617f24565b5b6020026020010151604001516040518263ffffffff1660e01b81526004016146c59190617154565b610160604051808303815f875af11580156146e2573d5f803e3d5ffd5b505050506040513d601f19601f82011682018060405250810190614706919061845b565b6101200151616767565b6147546040518060600160405280603881526020016189f160389139898861ffff168151811061474357614742617f24565b5b60200260200101516020015161352b565b5f84156148015760025f835f015173ffffffffffffffffffffffffffffffffffffffff1673ffffffffffffffffffffffffffffffffffffffff1681526020019081526020015f205f8a8961ffff16815181106147b3576147b2617f24565b5b60200260200101515f015173ffffffffffffffffffffffffffffffffffffffff1673ffffffffffffffffffffffffffffffffffffffff1681526020019081526020015f205f015490506148a4565b60025f836040015173ffffffffffffffffffffffffffffffffffffffff1673ffffffffffffffffffffffffffffffffffffffff1681526020019081526020015f205f8a8961ffff168151811061485a57614859617f24565b5b60200260200101515f015173ffffffffffffffffffffffffffffffffffffffff1673ffffffffffffffffffffffffffffffffffffffff1681526020019081526020015f205f015490505b6148c66040518060600160405280602a8152602001619121602a91398261352b565b6148fa604051806060016040528060238152602001618fc6602391398960028111156148f5576148f4617c40565b5b61352b565b61492460405180606001604052806035815260200161925c6035913961491f8a616809565b61352b565b614a1b604051806060016040528060218152602001618e47602191398760015f9054906101000a900473ffffffffffffffffffffffffffffffffffffffff1673ffffffffffffffffffffffffffffffffffffffff1663b2d4fcad8d8c61ffff168151811061499557614994617f24565b5b6020026020010151604001516040518263ffffffff1660e01b81526004016149bd9190617154565b610160604051808303815f875af11580156149da573d5f803e3d5ffd5b505050506040513d601f19601f820116820180604052508101906149fe919061845b565b6101200151614a0c8c616809565b614a1691906176d9565b614303565b60015f9054906101000a900473ffffffffffffffffffffffffffffffffffffffff1673ffffffffffffffffffffffffffffffffffffffff1663b2d4fcad8a8961ffff1681518110614a6f57614a6e617f24565b5b6020026020010151604001516040518263ffffffff1660e01b8152600401614a979190617154565b610160604051808303815f875af1158015614ab4573d5f803e3d5ffd5b505050506040513d601f19601f82011682018060405250810190614ad8919061845b565b6101200151614ae689616809565b614af091906176d9565b86118015614b205750888761ffff1681518110614b1057614b0f617f24565b5b6020026020010151602001518110155b15614b7157888761ffff1681518110614b3c57614b3b617f24565b5b60200260200101519350614b706040518060600160405280603d8152602001618c36603d91398560200151865f01516169f4565b5b8680614b7c90617f51565b97505050505f8260200151148015614b9857508461ffff168751115b61458a57614bb067ccfdfbb3ee2bef2260c01b61201a565b614bc4671594787769b3040d60c01b61201a565b818591509150965096945050505050565b614c6d8282604051602401614beb929190618487565b6040516020818303038152906040527f319af333000000000000000000000000000000000000000000000000000000007bffffffffffffffffffffffffffffffffffffffffffffffffffffffff19166020820180517bffffffffffffffffffffffffffffffffffffffffffffffffffffffff83818316178352505050506142e4565b5050565b5f919050565b5f614c8c6773ee9a758ec3b45c60c01b61201a565b614ca067e73c1893e2a10c8360c01b61201a565b614cb4670d599980ccde4dff60c01b61201a565b5f60015f9054906101000a900473ffffffffffffffffffffffffffffffffffffffff1673ffffffffffffffffffffffffffffffffffffffff16637c21ce14866040518263ffffffff1660e01b8152600401614d0f9190617154565b6101a060405180830381865afa158015614d2b573d5f803e3d5ffd5b505050506040513d601f19601f82011682018060405250810190614d4f91906173d5565b9050614d65674b4d89095e6c0c0160c01b61201a565b614d7967af7ee47d7351901c60c01b61201a565b5f614d8e6720a691a51290914e60c01b61201a565b614da2676ed32d5099f8be7e60c01b61201a565b5f614db7679ae2adc950f4ab2260c01b61201a565b614dcb67e55e633fa642b27860c01b61201a565b8415614e1f57614de567cc406d9d13d1703360c01b61201a565b614df96730943a9f54033af960c01b61201a565b825f01519150614e13677d5ba90264d8b8ac60c01b61201a565b82604001519050614e69565b614e3367bb731e8167cd611460c01b61201a565b614e4767ee56211029f1724460c01b61201a565b82604001519150614e6267cd46e70695a7902860c01b61201a565b825f015190505b614e7d67aa920e5721d3f37760c01b61201a565b614e91677e43eb7c50ca11a660c01b61201a565b614ea18284610120015188616a93565b614eb567e4dfbfd51f03ee9760c01b61201a565b614ec9679e00991b7bfc146260c01b61201a565b5f614ede672080bebe4b28556d60c01b61201a565b614ef267bb04d08936e0c95860c01b61201a565b5f614f076763fa1002bc96dafc60c01b61201a565b614f1b6727f23a701f2bac5e60c01b61201a565b5f60149054906101000a900460ff168015614f3557505f82145b8015614f5657505f8173ffffffffffffffffffffffffffffffffffffffff16145b15614fd257614f6f67a8d8865c08a09e9160c01b61201a565b614f8367fc91734acdf9e75560c01b61201a565b614f9767be74ebe76206530960c01b61201a565b6040517f08c379a0000000000000000000000000000000000000000000000000000000008152600401614fc99061854b565b60405180910390fd5b614fe667f59bb9f73a964dde60c01b61201a565b614ffa67acd8f0cc18c1550460c01b61201a565b61500e67d89b7e6b631b45db60c01b61201a565b61504d6040518060400160405280601c81526020017f73776170202d2061646472657373206d73672e73656e646572203a200000000081525033614bd5565b61506167b9eb2a9069f4cccd60c01b61201a565b6150756767767164f1ab2cc060c01b61201a565b6150b46040518060400160405280601681526020017f73776170202d20616464726573732074686973203a200000000000000000000081525030614bd5565b6150c867ff2171175db9bff860c01b61201a565b6150dc67d3ae0abd2353128e60c01b61201a565b615103604051806060016040528060228152602001618cae60229139866101200151614bd5565b615117671f2f7d2678f8a4c460c01b61201a565b61512b675c13cd8fd62ffe9660c01b61201a565b6151c4604051806060016040528060238152602001618a55602391398573ffffffffffffffffffffffffffffffffffffffff166370a08231336040518263ffffffff1660e01b81526004016151809190617044565b602060405180830381865afa15801561519b573d5f803e3d5ffd5b505050506040513d601f19601f820116820180604052508101906151bf9190617b8b565b61352b565b6151d86709ee09042c43c30e60c01b61201a565b6151ec67ed2fa0084607f0c260c01b61201a565b6152856040518060600160405280602681526020016192c0602691398573ffffffffffffffffffffffffffffffffffffffff166370a08231306040518263ffffffff1660e01b81526004016152419190617044565b602060405180830381865afa15801561525c573d5f803e3d5ffd5b505050506040513d601f19601f820116820180604052508101906152809190617b8b565b61352b565b61529967fa4aef5881eccdb360c01b61201a565b6152ad67c88613b30301f1ee60c01b61201a565b61534b6040518060600160405280602981526020016193f0602991398573ffffffffffffffffffffffffffffffffffffffff166370a082318861012001516040518263ffffffff1660e01b81526004016153079190617044565b602060405180830381865afa158015615322573d5f803e3d5ffd5b505050506040513d601f19601f820116820180604052508101906153469190617b8b565b61352b565b61535f67c2a3c912d771cd2f60c01b61201a565b615373679850f6f9285384bb60c01b61201a565b6154136040518060600160405280603381526020016189be603391398573ffffffffffffffffffffffffffffffffffffffff1663dd62ed3e338961012001516040518363ffffffff1660e01b81526004016153cf929190618569565b602060405180830381865afa1580156153ea573d5f803e3d5ffd5b505050506040513d601f19601f8201168201806040525081019061540e9190617b8b565b61352b565b61542767baa1d9520efe148960c01b61201a565b61543b676afd520358cb66bd60c01b61201a565b6154db604051806060016040528060358152602001619028603591398573ffffffffffffffffffffffffffffffffffffffff1663dd62ed3e308961012001516040518363ffffffff1660e01b8152600401615497929190618569565b602060405180830381865afa1580156154b2573d5f803e3d5ffd5b505050506040513d601f19601f820116820180604052508101906154d69190617b8b565b61352b565b6154ef67b73899f42f442e9a60c01b61201a565b615503672ed5a0037675e46160c01b61201a565b5f6040518061010001604052808673ffffffffffffffffffffffffffffffffffffffff1681526020018573ffffffffffffffffffffffffffffffffffffffff168152602001610bb862ffffff1681526020013073ffffffffffffffffffffffffffffffffffffffff168152602001600f4261557e91906176d9565b81526020018a81526020018481526020018373ffffffffffffffffffffffffffffffffffffffff1681525090506155bf67ca345b4b1ee4382a60c01b61201a565b85610120015173ffffffffffffffffffffffffffffffffffffffff1663414bf389826040518263ffffffff1660e01b81526004016155fd919061866b565b6020604051808303815f875af1158015615619573d5f803e3d5ffd5b505050506040513d601f19601f8201168201806040525081019061563d9190617b8b565b965061565367ffb83c60473aa70f60c01b61201a565b61566767d33375672af00cbf60c01b61201a565b5050505050509392505050565b61568867a068edfb2ec64a5160c01b61201a565b61569c67b50b7eeab407ee9b60c01b61201a565b6156b0676ce3060a4dad4a9360c01b61201a565b6156d36040518060600160405280603f81526020016192e6603f91398686614303565b6156e76776b950abffcde26c60c01b61201a565b6156fb6727ed9df2ef4502cf60c01b61201a565b61571e604051806080016040528060478152602001618af1604791398484614303565b615732670c1df2711fc5fb9160c01b61201a565b615746678425b050e8f0239460c01b61201a565b5f60015f9054906101000a900473ffffffffffffffffffffffffffffffffffffffff1673ffffffffffffffffffffffffffffffffffffffff16637c21ce14886040518263ffffffff1660e01b81526004016157a19190617154565b6101a060405180830381865afa1580156157bd573d5f803e3d5ffd5b505050506040513d601f19601f820116820180604052508101906157e191906173d5565b90506157f767728267952ae4b9c060c01b61201a565b61580b677d1de61140e1297a60c01b61201a565b5f5b825f0151518161ffff16101561648f57615831676314e0ca89d65c0360c01b61201a565b61584567e443172a43329f7360c01b61201a565b5f835f01518261ffff16815181106158605761585f617f24565b5b60200260200101516020015114615e3657615885673581d6ee40dd7ead60c01b61201a565b615899675c3ba1730928daa360c01b61201a565b6158ad672ea595f01580969060c01b61201a565b5f835f01518261ffff16815181106158c8576158c7617f24565b5b60200260200101515f015190506158e967468766cfa922723860c01b61201a565b6158fd67a5a906c8c59390d760c01b61201a565b5f845f01518361ffff168151811061591857615917617f24565b5b602002602001015160200151905061593a677fa68abc83ab13c460c01b61201a565b61594e6706e73d0976d0705e60c01b61201a565b6159ed6040518060800160405280604b815260200161914b604b913960025f875f015173ffffffffffffffffffffffffffffffffffffffff1673ffffffffffffffffffffffffffffffffffffffff1681526020019081526020015f205f8573ffffffffffffffffffffffffffffffffffffffff1673ffffffffffffffffffffffffffffffffffffffff1681526020019081526020015f205f015461352b565b615a01671c686df9319ee1a260c01b61201a565b615a156707fdd7c88737dceb60c01b61201a565b615ab56040518060800160405280604b8152602001618b5f604b913960025f876040015173ffffffffffffffffffffffffffffffffffffffff1673ffffffffffffffffffffffffffffffffffffffff1681526020019081526020015f205f8573ffffffffffffffffffffffffffffffffffffffff1673ffffffffffffffffffffffffffffffffffffffff1681526020019081526020015f205f015461352b565b615ac9677ebb6e156a57a81e60c01b61201a565b615add679ddc12bef5db4eb160c01b61201a565b5f898883615aeb9190618685565b615af591906186c6565b9050615b0b678614aa2bdea55f7260c01b61201a565b615b1f679be662078d1e7edd60c01b61201a565b5f8a8884615b2d9190618685565b615b3791906186c6565b9050615b4d67d4644d11363bd03660c01b61201a565b8082615b5991906176d9565b60025f885f015173ffffffffffffffffffffffffffffffffffffffff1673ffffffffffffffffffffffffffffffffffffffff1681526020019081526020015f205f8673ffffffffffffffffffffffffffffffffffffffff1673ffffffffffffffffffffffffffffffffffffffff1681526020019081526020015f205f015f828254615be49190617534565b92505081905550615bff67110f25c4b6bcfbf860c01b61201a565b8082615c0b91906176d9565b60025f886040015173ffffffffffffffffffffffffffffffffffffffff1673ffffffffffffffffffffffffffffffffffffffff1681526020019081526020015f205f8673ffffffffffffffffffffffffffffffffffffffff1673ffffffffffffffffffffffffffffffffffffffff1681526020019081526020015f205f015f828254615c9791906176d9565b92505081905550615cb2670711cb11a08680b160c01b61201a565b615cc66793fe0b4e4205662b60c01b61201a565b615d656040518060800160405280604a815260200161905d604a913960025f895f015173ffffffffffffffffffffffffffffffffffffffff1673ffffffffffffffffffffffffffffffffffffffff1681526020019081526020015f205f8773ffffffffffffffffffffffffffffffffffffffff1673ffffffffffffffffffffffffffffffffffffffff1681526020019081526020015f205f015461352b565b615d796716349f27bdc391b860c01b61201a565b615d8d67c6f57c5060e752b060c01b61201a565b615e2d6040518060800160405280604a8152602001618cd0604a913960025f896040015173ffffffffffffffffffffffffffffffffffffffff1673ffffffffffffffffffffffffffffffffffffffff1681526020019081526020015f205f8773ffffffffffffffffffffffffffffffffffffffff1673ffffffffffffffffffffffffffffffffffffffff1681526020019081526020015f205f015461352b565b50505050615e4b565b615e4a671aa19eedb896169660c01b61201a565b5b615e5f6726c503d2dde5094f60c01b61201a565b615e7367321e87e8bc4f136d60c01b61201a565b5f83602001518261ffff1681518110615e8f57615e8e617f24565b5b6020026020010151602001511461646757615eb46748e36fde2b09116760c01b61201a565b615ec867a49d6e8c963c86a360c01b61201a565b615edc673d80e9ac09deb05e60c01b61201a565b5f83602001518261ffff1681518110615ef857615ef7617f24565b5b60200260200101515f01519050615f1967ac0b55c90d9807f260c01b61201a565b615f2d67038245ca0aa6922b60c01b61201a565b5f84602001518361ffff1681518110615f4957615f48617f24565b5b6020026020010151602001519050615f6b672493ce0b3bf883d160c01b61201a565b615f7f67228dabd8064ca0b160c01b61201a565b61601e6040518060800160405280604d8152602001618aa4604d913960025f875f015173ffffffffffffffffffffffffffffffffffffffff1673ffffffffffffffffffffffffffffffffffffffff1681526020019081526020015f205f8573ffffffffffffffffffffffffffffffffffffffff1673ffffffffffffffffffffffffffffffffffffffff1681526020019081526020015f205f015461352b565b6160326728d4bf56d6e17fdc60c01b61201a565b6160466763780042fdaa629860c01b61201a565b6160e66040518060800160405280604b8152602001618dfc604b913960025f876040015173ffffffffffffffffffffffffffffffffffffffff1673ffffffffffffffffffffffffffffffffffffffff1681526020019081526020015f205f8573ffffffffffffffffffffffffffffffffffffffff1673ffffffffffffffffffffffffffffffffffffffff1681526020019081526020015f205f015461352b565b6160fa6777a60ca66aef4b3760c01b61201a565b61610e67ca8e66ad3094b14360c01b61201a565b5f88888361611c9190618685565b61612691906186c6565b905061613c67085d6ba0bf0abc8a60c01b61201a565b616150673895776879f53ab760c01b61201a565b5f89888461615e9190618685565b61616891906186c6565b905061617e67a1a2d8abd6c27ed160c01b61201a565b808261618a91906176d9565b60025f886040015173ffffffffffffffffffffffffffffffffffffffff1673ffffffffffffffffffffffffffffffffffffffff1681526020019081526020015f205f8673ffffffffffffffffffffffffffffffffffffffff1673ffffffffffffffffffffffffffffffffffffffff1681526020019081526020015f205f015f8282546162169190617534565b92505081905550616231679bb908a688ce6e2460c01b61201a565b808261623d91906176d9565b60025f885f015173ffffffffffffffffffffffffffffffffffffffff1673ffffffffffffffffffffffffffffffffffffffff1681526020019081526020015f205f8673ffffffffffffffffffffffffffffffffffffffff1673ffffffffffffffffffffffffffffffffffffffff1681526020019081526020015f205f015f8282546162c891906176d9565b925050819055506162e3673d47d881e75fceb560c01b61201a565b6162f7675cf1f1f8726a588860c01b61201a565b6163966040518060800160405280604a8152602001618f7c604a913960025f895f015173ffffffffffffffffffffffffffffffffffffffff1673ffffffffffffffffffffffffffffffffffffffff1681526020019081526020015f205f8773ffffffffffffffffffffffffffffffffffffffff1673ffffffffffffffffffffffffffffffffffffffff1681526020019081526020015f205f015461352b565b6163aa6701cc21dfa893d86b60c01b61201a565b6163be675647e6a02f47233b60c01b61201a565b61645e6040518060800160405280604a8152602001619196604a913960025f896040015173ffffffffffffffffffffffffffffffffffffffff1673ffffffffffffffffffffffffffffffffffffffff1681526020019081526020015f205f8773ffffffffffffffffffffffffffffffffffffffff1673ffffffffffffffffffffffffffffffffffffffff1681526020019081526020015f205f015461352b565b5050505061647c565b61647b67bfcd6b8c43499b4d60c01b61201a565b5b808061648790617f51565b91505061580d565b5050505050505050565b6164ad67e0a66da52d8df1f960c01b61201a565b6164c16733c8a1195319e2db60c01b61201a565b6164d567503916ae226c0c3a60c01b61201a565b6165136040518060400160405280601b81526020017f757064617465444341436f6e66696750726f636573736564202d200000000000815250612361565b616527674fa5c11ed323c50e60c01b61201a565b61653b6737b4f626971af90560c01b61201a565b5f5b815f0151518161ffff16101561663657616561670e1550cf3e68fdec60c01b61201a565b616575678208275b02c0dbb660c01b61201a565b60015f9054906101000a900473ffffffffffffffffffffffffffffffffffffffff1673ffffffffffffffffffffffffffffffffffffffff166318b8659b835f01518361ffff16815181106165cc576165cb617f24565b5b602002602001015160400151426040518363ffffffff1660e01b81526004016165f69291906186f6565b5f604051808303815f87803b15801561660d575f80fd5b505af115801561661f573d5f803e3d5ffd5b50505050808061662e90617f51565b91505061653d565b5050565b5f33905090565b5f8373ffffffffffffffffffffffffffffffffffffffff1663dd62ed3e30856040518363ffffffff1660e01b815260040161667d929190618569565b602060405180830381865afa158015616698573d5f803e3d5ffd5b505050506040513d601f19601f820116820180604052508101906166bc9190617b8b565b905061674a8463095ea7b360e01b8585856166d791906176d9565b6040516024016166e8929190617b04565b604051602081830303815290604052907bffffffffffffffffffffffffffffffffffffffffffffffffffffffff19166020820180517bffffffffffffffffffffffffffffffffffffffffffffffffffffffff838183161783525050505061421e565b50505050565b606061675e84845f85616be2565b90509392505050565b61680384848484604051602401616781949392919061871d565b6040516020818303038152906040527fa7a87853000000000000000000000000000000000000000000000000000000007bffffffffffffffffffffffffffffffffffffffffffffffffffffffff19166020820180517bffffffffffffffffffffffffffffffffffffffffffffffffffffffff83818316178352505050506142e4565b50505050565b5f61681e67ad68069aa2011e9160c01b61201a565b61683267b3dbbde13f8a05a860c01b61201a565b6168466781e90cd9705d856060c01b61201a565b5f600281111561685957616858617c40565b5b82600281111561686c5761686b617c40565b5b036168a3576168856764011d2f97a8d40460c01b61201a565b616899675e63939e1952463a60c01b61201a565b610e1090506169c7565b6168b7677f8407c616298c0a60c01b61201a565b6168cb6748a78b9b4748fe0460c01b61201a565b600160028111156168df576168de617c40565b5b8260028111156168f2576168f1617c40565b5b0361692a5761690b677664957c4519d3d460c01b61201a565b61691f67c1d73489bfecdab360c01b61201a565b6201518090506169c6565b61693e67f237970b91ae201b60c01b61201a565b616952673efe7e4f8d330fc360c01b61201a565b60028081111561696557616964617c40565b5b82600281111561697857616977617c40565b5b036169b0576169916750da27d437b5aa0860c01b61201a565b6169a567aafa0001380d587d60c01b61201a565b62093a8090506169c5565b6169c4673cc2236939fd859960c01b61201a565b5b5b5b6169db67bf8d0edeb3a3b01d60c01b61201a565b6169ef67c3a519f525ffe6ec60c01b61201a565b919050565b616a8e838383604051602401616a0c93929190618767565b6040516020818303038152906040527f1c7ec448000000000000000000000000000000000000000000000000000000007bffffffffffffffffffffffffffffffffffffffffffffffffffffffff19166020820180517bffffffffffffffffffffffffffffffffffffffffffffffffffffffff83818316178352505050506142e4565b505050565b5f808473ffffffffffffffffffffffffffffffffffffffff1663095ea7b360e01b8585604051602401616ac7929190617b04565b604051602081830303815290604052907bffffffffffffffffffffffffffffffffffffffffffffffffffffffff19166020820180517bffffffffffffffffffffffffffffffffffffffffffffffffffffffff8381831617835250505050604051616b3191906187e7565b5f604051808303815f865af19150503d805f8114616b6a576040519150601f19603f3d011682016040523d82523d5f602084013e616b6f565b606091505b5091509150818015616b9c57505f81511480616b9b575080806020019051810190616b9a9190617b2b565b5b5b616bdb576040517f08c379a0000000000000000000000000000000000000000000000000000000008152600401616bd290618847565b60405180910390fd5b5050505050565b606082471015616c27576040517f08c379a0000000000000000000000000000000000000000000000000000000008152600401616c1e906188d5565b60405180910390fd5b5f808673ffffffffffffffffffffffffffffffffffffffff168587604051616c4f91906187e7565b5f6040518083038185875af1925050503d805f8114616c89576040519150601f19603f3d011682016040523d82523d5f602084013e616c8e565b606091505b5091509150616c9f87838387616cab565b92505050949350505050565b60608315616d0c575f835103616d0457616cc485616d1f565b616d03576040517f08c379a0000000000000000000000000000000000000000000000000000000008152600401616cfa9061893d565b60405180910390fd5b5b829050616d17565b616d168383616d41565b5b949350505050565b5f808273ffffffffffffffffffffffffffffffffffffffff163b119050919050565b5f82511115616d535781518083602001fd5b806040517f08c379a0000000000000000000000000000000000000000000000000000000008152600401616d879190617c20565b60405180910390fd5b604051806080016040528060608152602001606081526020015f81526020015f81525090565b60405180606001604052805f73ffffffffffffffffffffffffffffffffffffffff1681526020015f81526020015f81525090565b60405180604001604052805f81526020015f81525090565b6040518060e001604052805f8152602001616e1b616e75565b81526020015f73ffffffffffffffffffffffffffffffffffffffff1681526020015f73ffffffffffffffffffffffffffffffffffffffff1681526020015f61ffff1681526020015f61ffff1681526020015f151581525090565b60405180604001604052806002905b6060815260200190600190039081616e845790505090565b5f60ff82169050919050565b616eb181616e9c565b82525050565b5f602082019050616eca5f830184616ea8565b92915050565b5f604051905090565b5f80fd5b5f80fd5b5f819050919050565b616ef381616ee1565b8114616efd575f80fd5b50565b5f81359050616f0e81616eea565b92915050565b5f8060408385031215616f2a57616f29616ed9565b5b5f616f3785828601616f00565b9250506020616f4885828601616f00565b9150509250929050565b5f60208284031215616f6757616f66616ed9565b5b5f616f7484828501616f00565b91505092915050565b5f8115159050919050565b616f9181616f7d565b82525050565b5f602082019050616faa5f830184616f88565b92915050565b616fb981616e9c565b8114616fc3575f80fd5b50565b5f81359050616fd481616fb0565b92915050565b5f60208284031215616fef57616fee616ed9565b5b5f616ffc84828501616fc6565b91505092915050565b5f73ffffffffffffffffffffffffffffffffffffffff82169050919050565b5f61702e82617005565b9050919050565b61703e81617024565b82525050565b5f6020820190506170575f830184617035565b92915050565b61706681617024565b8114617070575f80fd5b50565b5f813590506170818161705d565b92915050565b5f806040838503121561709d5761709c616ed9565b5b5f6170aa85828601617073565b92505060206170bb85828601617073565b9150509250929050565b6170ce81616ee1565b82525050565b604082015f8201516170e85f8501826170c5565b5060208201516170fb60208501826170c5565b50505050565b5f6040820190506171145f8301846170d4565b92915050565b5f6020828403121561712f5761712e616ed9565b5b5f61713c84828501617073565b91505092915050565b61714e81616ee1565b82525050565b5f6020820190506171675f830184617145565b92915050565b5f80fd5b5f601f19601f8301169050919050565b7f4e487b71000000000000000000000000000000000000000000000000000000005f52604160045260245ffd5b6171b782617171565b810181811067ffffffffffffffff821117156171d6576171d5617181565b5b80604052505050565b5f6171e8616ed0565b90506171f482826171ae565b919050565b5f815190506172078161705d565b92915050565b5f6bffffffffffffffffffffffff82169050919050565b61722d8161720d565b8114617237575f80fd5b50565b5f8151905061724881617224565b92915050565b61725781616f7d565b8114617261575f80fd5b50565b5f815190506172728161724e565b92915050565b5f8151905061728681616eea565b92915050565b5f8151905061729a81616fb0565b92915050565b5f6101a082840312156172b6576172b561716d565b5b6172c16101a06171df565b90505f6172d0848285016171f9565b5f8301525060206172e38482850161723a565b60208301525060406172f7848285016171f9565b604083015250606061730b8482850161723a565b606083015250608061731f848285016171f9565b60808301525060a0617333848285016171f9565b60a08301525060c061734784828501617264565b60c08301525060e061735b84828501617278565b60e0830152506101006173708482850161728c565b61010083015250610120617386848285016171f9565b6101208301525061014061739c84828501617278565b610140830152506101606173b2848285016171f9565b610160830152506101806173c8848285016171f9565b6101808301525092915050565b5f6101a082840312156173eb576173ea616ed9565b5b5f6173f8848285016172a0565b91505092915050565b5f82825260208201905092915050565b7f576974686472617720616d6f756e742073686f756c64206265203e20300000005f82015250565b5f617445601d83617401565b915061745082617411565b602082019050919050565b5f6020820190508181035f83015261747281617439565b9050919050565b7f416d6f756e7420746f2077697468647261772073686f756c64206265203c20795f8201527f6f7572206163636f756e742062616c616e636500000000000000000000000000602082015250565b5f6174d3603383617401565b91506174de82617479565b604082019050919050565b5f6020820190508181035f830152617500816174c7565b9050919050565b7f4e487b71000000000000000000000000000000000000000000000000000000005f52601160045260245ffd5b5f61753e82616ee1565b915061754983616ee1565b925082820390508181111561756157617560617507565b5b92915050565b5f60808201905061757a5f830187617035565b6175876020830186617035565b6175946040830185617145565b6175a16060830184617145565b95945050505050565b5f61ffff82169050919050565b5f6175c1826175aa565b91506175cc836175aa565b9250828201905061ffff8111156175e6576175e5617507565b5b92915050565b5f819050919050565b5f819050919050565b5f61761861761361760e846175ec565b6175f5565b616ee1565b9050919050565b617628816175fe565b82525050565b5f6080820190506176415f83018761761f565b61764e602083018661761f565b61765b6040830185617145565b6176686060830184616f88565b95945050505050565b7f4465706f73697420616d6f756e742073686f756c64206265203e2030000000005f82015250565b5f6176a5601c83617401565b91506176b082617671565b602082019050919050565b5f6020820190508181035f8301526176d281617699565b9050919050565b5f6176e382616ee1565b91506176ee83616ee1565b925082820190508082111561770657617705617507565b5b92915050565b7f546f6b656e20616464726573732073686f756c64206e6f7420626520300000005f82015250565b5f617740601d83617401565b915061774b8261770c565b602082019050919050565b5f6020820190508181035f83015261776d81617734565b9050919050565b7f5573657220616464726573732073686f756c64206e6f742062652030000000005f82015250565b5f6177a8601c83617401565b91506177b382617774565b602082019050919050565b5f6020820190508181035f8301526177d58161779c565b9050919050565b7f4f776e61626c653a206e6577206f776e657220697320746865207a65726f20615f8201527f6464726573730000000000000000000000000000000000000000000000000000602082015250565b5f617836602683617401565b9150617841826177dc565b604082019050919050565b5f6020820190508181035f8301526178638161782a565b9050919050565b5f6020828403121561787f5761787e616ed9565b5b5f61788c848285016171f9565b91505092915050565b5f602082840312156178aa576178a961716d565b5b6178b460206171df565b90505f6178c384828501617278565b5f8301525092915050565b5f6fffffffffffffffffffffffffffffffff82169050919050565b6178f2816178ce565b81146178fc575f80fd5b50565b5f8151905061790d816178e9565b92915050565b5f64ffffffffff82169050919050565b61792c81617913565b8114617936575f80fd5b50565b5f8151905061794781617923565b92915050565b617956816175aa565b8114617960575f80fd5b50565b5f815190506179718161794d565b92915050565b5f6101e0828403121561798d5761798c61716d565b5b6179986101e06171df565b90505f6179a784828501617895565b5f8301525060206179ba848285016178ff565b60208301525060406179ce848285016178ff565b60408301525060606179e2848285016178ff565b60608301525060806179f6848285016178ff565b60808301525060a0617a0a848285016178ff565b60a08301525060c0617a1e84828501617939565b60c08301525060e0617a3284828501617963565b60e083015250610100617a47848285016171f9565b61010083015250610120617a5d848285016171f9565b61012083015250610140617a73848285016171f9565b61014083015250610160617a89848285016171f9565b61016083015250610180617a9f848285016178ff565b610180830152506101a0617ab5848285016178ff565b6101a0830152506101c0617acb848285016178ff565b6101c08301525092915050565b5f6101e08284031215617aee57617aed616ed9565b5b5f617afb84828501617977565b91505092915050565b5f604082019050617b175f830185617035565b617b246020830184617145565b9392505050565b5f60208284031215617b4057617b3f616ed9565b5b5f617b4d84828501617264565b91505092915050565b5f606082019050617b695f830186617035565b617b766020830185617145565b617b836040830184617035565b949350505050565b5f60208284031215617ba057617b9f616ed9565b5b5f617bad84828501617278565b91505092915050565b5f81519050919050565b5f5b83811015617bdd578082015181840152602081019050617bc2565b5f8484015250505050565b5f617bf282617bb6565b617bfc8185617401565b9350617c0c818560208601617bc0565b617c1581617171565b840191505092915050565b5f6020820190508181035f830152617c388184617be8565b905092915050565b7f4e487b71000000000000000000000000000000000000000000000000000000005f52602160045260245ffd5b60038110617c7e57617c7d617c40565b5b50565b5f819050617c8e82617c6d565b919050565b5f617c9d82617c81565b9050919050565b617cad81617c93565b82525050565b5f606082019050617cc65f830186617145565b617cd36020830185617145565b617ce06040830184617ca4565b949350505050565b5f80fd5b5f67ffffffffffffffff821115617d0657617d05617181565b5b602082029050919050565b5f80fd5b5f67ffffffffffffffff821115617d2f57617d2e617181565b5b602082029050602081019050919050565b5f60608284031215617d5557617d5461716d565b5b617d5f60606171df565b90505f617d6e848285016171f9565b5f830152506020617d8184828501617278565b6020830152506040617d9584828501617278565b60408301525092915050565b5f617db3617dae84617d15565b6171df565b90508083825260208201905060608402830185811115617dd657617dd5617d11565b5b835b81811015617dff5780617deb8882617d40565b845260208401935050606081019050617dd8565b5050509392505050565b5f82601f830112617e1d57617e1c617ce8565b5b8151617e2d848260208601617da1565b91505092915050565b5f617e48617e4384617cec565b6171df565b90508060208402830185811115617e6257617e61617d11565b5b835b81811015617ea957805167ffffffffffffffff811115617e8757617e86617ce8565b5b808601617e948982617e09565b85526020850194505050602081019050617e64565b5050509392505050565b5f82601f830112617ec757617ec6617ce8565b5b6002617ed4848285617e36565b91505092915050565b5f60208284031215617ef257617ef1616ed9565b5b5f82015167ffffffffffffffff811115617f0f57617f0e616edd565b5b617f1b84828501617eb3565b91505092915050565b7f4e487b71000000000000000000000000000000000000000000000000000000005f52603260045260245ffd5b5f617f5b826175aa565b915061ffff8203617f6f57617f6e617507565b5b600182019050919050565b5f6040820190508181035f830152617f928185617be8565b9050617fa16020830184617145565b9392505050565b5f6040820190508181035f830152617fc08185617be8565b9050617fcf6020830184616f88565b9392505050565b7f4f776e61626c653a2063616c6c6572206973206e6f7420746865206f776e65725f82015250565b5f61800a602083617401565b915061801582617fd6565b602082019050919050565b5f6020820190508181035f83015261803781617ffe565b9050919050565b5f6060820190506180515f830186617035565b61805e6020830185617035565b61806b6040830184617145565b949350505050565b5f61808d618088618083846175ec565b6175f5565b6175aa565b9050919050565b61809d81618073565b82525050565b5f6080820190506180b65f830187617035565b6180c36020830186617145565b6180d06040830185617035565b6180dd6060830184618094565b95945050505050565b7f5361666545524332303a204552433230206f7065726174696f6e20646964206e5f8201527f6f74207375636365656400000000000000000000000000000000000000000000602082015250565b5f618140602a83617401565b915061814b826180e6565b604082019050919050565b5f6020820190508181035f83015261816d81618134565b9050919050565b5f6060820190508181035f83015261818c8186617be8565b905061819b6020830185617145565b6181a86040830184617145565b949350505050565b5f69ffffffffffffffffffff82169050919050565b6181ce816181b0565b81146181d8575f80fd5b50565b5f815190506181e9816181c5565b92915050565b5f819050919050565b618201816181ef565b811461820b575f80fd5b50565b5f8151905061821c816181f8565b92915050565b5f805f805f60a0868803121561823b5761823a616ed9565b5b5f618248888289016181db565b95505060206182598882890161820e565b945050604061826a88828901617278565b935050606061827b88828901617278565b925050608061828c888289016181db565b9150509295509295909350565b7f4e487b71000000000000000000000000000000000000000000000000000000005f52601260045260245ffd5b5f6182d082616ee1565b91506182db83616ee1565b9250826182eb576182ea618299565b5b828206905092915050565b5f63ffffffff82169050919050565b61830e816182f6565b8114618318575f80fd5b50565b5f8151905061832981618305565b92915050565b6003811061833b575f80fd5b50565b5f8151905061834c8161832f565b92915050565b5f61016082840312156183685761836761716d565b5b6183736101606171df565b90505f61838284828501617278565b5f83015250602061839584828501617278565b60208301525060406183a984828501617264565b60408301525060606183bd84828501617278565b60608301525060806183d184828501617278565b60808301525060a06183e584828501617278565b60a08301525060c06183f98482850161728c565b60c08301525060e061840d8482850161831b565b60e0830152506101006184228482850161833e565b6101008301525061012061843884828501617278565b6101208301525061014061844e848285016171f9565b6101408301525092915050565b5f610160828403121561847157618470616ed9565b5b5f61847e84828501618352565b91505092915050565b5f6040820190508181035f83015261849f8185617be8565b90506184ae6020830184617035565b9392505050565b7f496e2070726f647574696f6e206d6f64652c20796f752073686f756c642065785f8201527f706c696369746c792073657420736c697070616765206c696d69747320666f7260208201527f20756e6973776170207377617000000000000000000000000000000000000000604082015250565b5f618535604d83617401565b9150618540826184b5565b606082019050919050565b5f6020820190508181035f83015261856281618529565b9050919050565b5f60408201905061857c5f830185617035565b6185896020830184617035565b9392505050565b61859981617024565b82525050565b5f62ffffff82169050919050565b6185b68161859f565b82525050565b6185c581617005565b82525050565b61010082015f8201516185e05f850182618590565b5060208201516185f36020850182618590565b50604082015161860660408501826185ad565b5060608201516186196060850182618590565b50608082015161862c60808501826170c5565b5060a082015161863f60a08501826170c5565b5060c082015161865260c08501826170c5565b5060e082015161866560e08501826185bc565b50505050565b5f6101008201905061867f5f8301846185cb565b92915050565b5f61868f82616ee1565b915061869a83616ee1565b92508282026186a881616ee1565b915082820484148315176186bf576186be617507565b5b5092915050565b5f6186d082616ee1565b91506186db83616ee1565b9250826186eb576186ea618299565b5b828204905092915050565b5f6040820190506187095f830185617145565b6187166020830184617145565b9392505050565b5f6080820190508181035f8301526187358187617be8565b90506187446020830186617145565b6187516040830185617145565b61875e6060830184617145565b95945050505050565b5f6060820190508181035f83015261877f8186617be8565b905061878e6020830185617145565b61879b6040830184617035565b949350505050565b5f81519050919050565b5f81905092915050565b5f6187c1826187a3565b6187cb81856187ad565b93506187db818560208601617bc0565b80840191505092915050565b5f6187f282846187b7565b915081905092915050565b7f53410000000000000000000000000000000000000000000000000000000000005f82015250565b5f618831600283617401565b915061883c826187fd565b602082019050919050565b5f6020820190508181035f83015261885e81618825565b9050919050565b7f416464726573733a20696e73756666696369656e742062616c616e636520666f5f8201527f722063616c6c0000000000000000000000000000000000000000000000000000602082015250565b5f6188bf602683617401565b91506188ca82618865565b604082019050919050565b5f6020820190508181035f8301526188ec816188b3565b9050919050565b7f416464726573733a2063616c6c20746f206e6f6e2d636f6e74726163740000005f82015250565b5f618927601d83617401565b9150618932826188f3565b602082019050919050565b5f6020820190508181035f8301526189548161891b565b905091905056fe676574444341456e7472696573546f50726f63657373202d20637074546f74616c42757920257320676574444341456e7472696573546f50726f63657373202d20456e64207768696c65202d206370744275792025732063707453656c6c2025732073776170202d2061746f6b656e20616c6c6f77616e6365206d73672e73656e646572202d3e2073776170726f75746572203a206765744e6578745365676d656e74456e747279202d203220496e205768696c65207365676d656e7420656e74727920616d6f756e74202573676574444341456e7472696573546f50726f63657373202d2070726f63566172732e6370744275792025732073776170202d2061746f6b656e2062616c616e6365206d73672e73656e646572203a20676574444341456e7472696573546f50726f63657373202d20736567456e7472792e616d6f756e74202573204f54434f72537761705472616e73616374696f6e546f5573657242616c616e6365202d20422d3e2041202d20546f6b656e2062616c616e6365206265666f7265202d20546f6b656e20412025734f54434f72537761705472616e73616374696f6e546f5573657242616c616e6365202d20616d6f756e74466f724f54432025732c20616d6f756e74466f725377617020257320202d2d2d2d2d2d2d2d2d2d2d65786563757465444341204461696c79202d2d2d2d2d2d2d2d2d2d2d4f54434f72537761705472616e73616374696f6e546f5573657242616c616e6365202d20412d3e204220546f6b656e2062616c616e6365206265666f7265202d20546f6b656e2042202573676574444341456e7472696573546f50726f63657373202d206370744275792025732063707453656c6c20257320636f6d70757465444341202d2061746f6b656e2062616c616e63652074686973286164647265737329203a20636f6d70757465444341202d20616d6f756e74466f724f5443203a2025732c20616d6f756e74466f7253776170203a2025736765744e6578745365676d656e74456e747279202d2034205365676d656e7420666f756e64202d20616d6f756e74202573202c206f776e657220257320676574444341456e7472696573546f50726f63657373202d2053656c6c203a20616d6f756e7442757920257320616d6f756e7453656c6c2025732073776170202d2061646472657373206c506169722e73776170526f75746572203a204f54434f72537761705472616e73616374696f6e546f5573657242616c616e6365202d20412d3e204220546f6b656e2062616c616e6365206166746572202d20546f6b656e2042202573676574444341456e7472696573546f50726f63657373202d20736567456e7472792e646361436f6e666967496420257320676574444341456e7472696573546f50726f63657373202d20736567456e7472792e6f776e657220257320676574444341456e7472696573546f50726f63657373202d205374617274206973427579676574444341456e7472696573546f50726f63657373202d20496e207768696c65202d206370744275792025732063707453656c6c202573204765744443414a6f62732066726f6d207061722025732064656c617920257320257320746f6b656e734f54434f72537761705472616e73616374696f6e546f5573657242616c616e6365202d20422d3e204120546f6b656e2062616c616e6365206265666f7265202d20546f6b656e20422025736765744e6578745365676d656e74456e747279202d20332063616c63756c202573676574444341456e7472696573546f50726f63657373202d20427579203a20616d6f756e7442757920257320616d6f756e7453656c6c20257320676574444341456e7472696573546f50726f63657373202d20456e642042757920202d207365676d656e74456e74726965735b305d2e6c656e677468203d3d2063707442757920257320456e64204765744443414a6f6273202d20637074546f74616c42757920257320637074546f74616c53656c6c202573202d2d2d2d2d2d2d2d2d2d2d65786563757465444341205765656b6c79202d2d2d2d2d2d2d2d2d2d2d676574444341456e7472696573546f50726f63657373202d20637074546f74616c42757920257320637074546f74616c53656c6c202573204f54434f72537761705472616e73616374696f6e546f5573657242616c616e6365202d20422d3e204120546f6b656e2062616c616e6365206166746572202d20546f6b656e20412025736765744e6578745365676d656e74456e747279202d2033205f64656c6179203a202573676574444341456e7472696573546f50726f63657373202d204d41585f4443415f4a4f425f5045525f4443415f455845435554494f4e5f43414c4c2025732073776170202d2061746f6b656e20616c6c6f77616e63652074686973286164647265737329202d3e2073776170726f757465723a204f54434f72537761705472616e73616374696f6e546f5573657242616c616e6365202d20412d3e204220546f6b656e2062616c616e6365206166746572202d20546f6b656e2041202573636f6d70757465444341202d20616d6f7574496e203a2025732c20616d6f756e744f7574203a2025732d2d2d2d2d2d2d2d2d2d2d6578656375746544434120486f75726c79202d2d2d2d2d2d2d2d2d2d2d636f6d70757465444341202d2061746f6b656e2062616c616e6365206d73672e73656e646572203a206765744e6578745365676d656e74456e747279202d2033204f776e65722062616c616e6365203a2025734f54434f72537761705472616e73616374696f6e546f5573657242616c616e6365202d20412d3e204220546f6b656e2062616c616e6365206265666f7265202d20546f6b656e20412025734f54434f72537761705472616e73616374696f6e546f5573657242616c616e6365202d20422d3e204120546f6b656e2062616c616e6365206166746572202d20546f6b656e20422025736765744e6578745365676d656e74456e747279202d203220496e205768696c6520637074203a2025732c2074696d655374616d70202573206c61737444434154696d65202573206765744e6578745365676d656e74456e747279202d2031202d207365676d656e74456e74726965732e6c656e677468203a202573206765744e6578745365676d656e74456e747279202d20332067657444656c6179496e5365636f6e64285f64656c617929203a2025736765744e6578745365676d656e74456e747279202d2031202d20637074203a2025732c205f64656c6179203a20257373776170202d2061746f6b656e2062616c616e63652074686973286164647265737329203a204f54434f72537761705472616e73616374696f6e546f5573657242616c616e6365202d20616d6f756e74496e2025732c20616d6f756e744f75742025732020676574444341456e7472696573546f50726f63657373202d20456e64202142757920202d207365676d656e74456e74726965735b315d2e6c656e677468203d3d2063707453656c6c20257320676574444341456e7472696573546f50726f63657373202d20496e207768696c65202d20637074546f74616c42757920257320637074546f74616c53656c6c20257320676574444341456e7472696573546f50726f63657373202d20496e6974207365676d656e7420656e7472696573204255592025732053454c4c20257373776170202d2061746f6b656e2062616c616e6365206c506169722e73776170526f75746572203a20676574444341456e7472696573546f50726f63657373202d20537461727420216973427579a264697066735822122019d804769117990e9cbb8b20cd7ea02e070f758a45ac8f46d09c39b23223cfe164736f6c63430008140033",
  "linkReferences": {},
  "deployedLinkReferences": {}
}