{
  "_format": "hh-sol-artifact-1",
  "contractName": "DataStorage",
  "sourceName": "contracts/DataStorage.sol",
  "abi": [
    {
      "inputs": [
        {
          "internalType": "string",
          "name": "_errorMessage",
          "type": "string"
        }
      ],
      "name": "DCAConfigError",
      "type": "error"
    },
    {
      "anonymous": false,
      "inputs": [
        {
          "indexed": true,
          "internalType": "address",
          "name": "_sender",
          "type": "address"
        },
        {
          "indexed": true,
          "internalType": "uint256",
          "name": "_pairId",
          "type": "uint256"
        },
        {
          "indexed": false,
          "internalType": "uint256",
          "name": "_configId",
          "type": "uint256"
        }
      ],
      "name": "DCAConfigCreation",
      "type": "event"
    },
    {
      "anonymous": false,
      "inputs": [
        {
          "indexed": true,
          "internalType": "address",
          "name": "_sender",
          "type": "address"
        },
        {
          "indexed": true,
          "internalType": "uint256",
          "name": "_pairId",
          "type": "uint256"
        },
        {
          "indexed": false,
          "internalType": "uint256",
          "name": "_configId",
          "type": "uint256"
        },
        {
          "indexed": false,
          "internalType": "bool",
          "name": "_isDeletedUser",
          "type": "bool"
        }
      ],
      "name": "DCAConfigDeletion",
      "type": "event"
    },
    {
      "anonymous": false,
      "inputs": [
        {
          "indexed": true,
          "internalType": "address",
          "name": "previousOwner",
          "type": "address"
        },
        {
          "indexed": true,
          "internalType": "address",
          "name": "newOwner",
          "type": "address"
        }
      ],
      "name": "OwnershipTransferred",
      "type": "event"
    },
    {
      "anonymous": false,
      "inputs": [
        {
          "indexed": false,
          "internalType": "uint256",
          "name": "_pairId",
          "type": "uint256"
        }
      ],
      "name": "TokenPAirAdded",
      "type": "event"
    },
    {
      "inputs": [
        {
          "internalType": "uint256",
          "name": "_pairId",
          "type": "uint256"
        },
        {
          "internalType": "bool",
          "name": "_isBuyTokenASellTokenB",
          "type": "bool"
        },
        {
          "internalType": "uint256",
          "name": "_min",
          "type": "uint256"
        },
        {
          "internalType": "uint256",
          "name": "_max",
          "type": "uint256"
        },
        {
          "internalType": "uint256",
          "name": "_amount",
          "type": "uint256"
        },
        {
          "internalType": "uint8",
          "name": "_scalingFactor",
          "type": "uint8"
        },
        {
          "internalType": "enum IDataStorage.DCADelayEnum",
          "name": "_dcaDelay",
          "type": "uint8"
        }
      ],
      "name": "addDCAConfig",
      "outputs": [
        {
          "internalType": "uint256",
          "name": "configId",
          "type": "uint256"
        }
      ],
      "stateMutability": "nonpayable",
      "type": "function"
    },
    {
      "inputs": [
        {
          "internalType": "address",
          "name": "_tokenAddressA",
          "type": "address"
        },
        {
          "internalType": "uint256",
          "name": "_tokenPairSegmentSize",
          "type": "uint256"
        },
        {
          "internalType": "address",
          "name": "_tokenAddressB",
          "type": "address"
        },
        {
          "internalType": "address",
          "name": "_chainLinkPriceFetcher",
          "type": "address"
        },
        {
          "internalType": "address",
          "name": "_aavePoolAddressesProvider",
          "type": "address"
        },
        {
          "internalType": "address",
          "name": "_uniswapV3SwapRouter",
          "type": "address"
        }
      ],
      "name": "addTokenPair",
      "outputs": [
        {
          "internalType": "uint256",
          "name": "",
          "type": "uint256"
        }
      ],
      "stateMutability": "nonpayable",
      "type": "function"
    },
    {
      "inputs": [
        {
          "internalType": "uint256",
          "name": "_dcaConfigId",
          "type": "uint256"
        }
      ],
      "name": "deleteDCAConfig",
      "outputs": [
        {
          "internalType": "uint256",
          "name": "",
          "type": "uint256"
        }
      ],
      "stateMutability": "nonpayable",
      "type": "function"
    },
    {
      "inputs": [
        {
          "internalType": "uint256",
          "name": "_dcaConfigId",
          "type": "uint256"
        }
      ],
      "name": "getDCAConfig",
      "outputs": [
        {
          "components": [
            {
              "internalType": "uint256",
              "name": "dcaConfigId",
              "type": "uint256"
            },
            {
              "internalType": "uint256",
              "name": "pairID",
              "type": "uint256"
            },
            {
              "internalType": "bool",
              "name": "isSwapTookenAForTokenB",
              "type": "bool"
            },
            {
              "internalType": "uint256",
              "name": "min",
              "type": "uint256"
            },
            {
              "internalType": "uint256",
              "name": "max",
              "type": "uint256"
            },
            {
              "internalType": "uint256",
              "name": "amount",
              "type": "uint256"
            },
            {
              "internalType": "uint8",
              "name": "scalingFactor",
              "type": "uint8"
            },
            {
              "internalType": "uint32",
              "name": "creationDate",
              "type": "uint32"
            },
            {
              "internalType": "enum IDataStorage.DCADelayEnum",
              "name": "dcaDelay",
              "type": "uint8"
            },
            {
              "internalType": "uint256",
              "name": "lastDCATime",
              "type": "uint256"
            },
            {
              "internalType": "address",
              "name": "creator",
              "type": "address"
            }
          ],
          "internalType": "struct IDataStorage.DCAConfig",
          "name": "",
          "type": "tuple"
        }
      ],
      "stateMutability": "view",
      "type": "function"
    },
    {
      "inputs": [
        {
          "internalType": "uint256",
          "name": "_pairId",
          "type": "uint256"
        },
        {
          "internalType": "uint256",
          "name": "price",
          "type": "uint256"
        },
        {
          "internalType": "enum IDataStorage.DCADelayEnum",
          "name": "delay",
          "type": "uint8"
        }
      ],
      "name": "getDCASegment",
      "outputs": [
        {
          "components": [
            {
              "internalType": "address",
              "name": "owner",
              "type": "address"
            },
            {
              "internalType": "uint256",
              "name": "amount",
              "type": "uint256"
            },
            {
              "internalType": "uint256",
              "name": "dcaConfigId",
              "type": "uint256"
            }
          ],
          "internalType": "struct IDataStorage.SegmentDCAEntry[][2]",
          "name": "",
          "type": "tuple[][2]"
        }
      ],
      "stateMutability": "view",
      "type": "function"
    },
    {
      "inputs": [
        {
          "internalType": "uint256",
          "name": "_pairId",
          "type": "uint256"
        },
        {
          "internalType": "uint256",
          "name": "_price",
          "type": "uint256"
        },
        {
          "internalType": "enum IDataStorage.DCADelayEnum",
          "name": "delay",
          "type": "uint8"
        },
        {
          "internalType": "enum IDataStorage.TokenEnum",
          "name": "_token",
          "type": "uint8"
        }
      ],
      "name": "getDCASegmentEntries",
      "outputs": [
        {
          "components": [
            {
              "internalType": "address",
              "name": "owner",
              "type": "address"
            },
            {
              "internalType": "uint256",
              "name": "amount",
              "type": "uint256"
            },
            {
              "internalType": "uint256",
              "name": "dcaConfigId",
              "type": "uint256"
            }
          ],
          "internalType": "struct IDataStorage.SegmentDCAEntry[]",
          "name": "",
          "type": "tuple[]"
        }
      ],
      "stateMutability": "view",
      "type": "function"
    },
    {
      "inputs": [
        {
          "internalType": "uint256",
          "name": "_pairId",
          "type": "uint256"
        }
      ],
      "name": "getTokenPair",
      "outputs": [
        {
          "components": [
            {
              "internalType": "address",
              "name": "tokenA",
              "type": "address"
            },
            {
              "internalType": "uint96",
              "name": "indexBalanceTokenA",
              "type": "uint96"
            },
            {
              "internalType": "address",
              "name": "tokenB",
              "type": "address"
            },
            {
              "internalType": "uint96",
              "name": "indexBalanceTokenB",
              "type": "uint96"
            },
            {
              "internalType": "address",
              "name": "chainlinkPriceFetcher",
              "type": "address"
            },
            {
              "internalType": "address",
              "name": "aavePoolAddressesProvider",
              "type": "address"
            },
            {
              "internalType": "bool",
              "name": "enabled",
              "type": "bool"
            },
            {
              "internalType": "uint256",
              "name": "tokenPairSegmentSize",
              "type": "uint256"
            },
            {
              "internalType": "address",
              "name": "swapRouter",
              "type": "address"
            },
            {
              "internalType": "uint256",
              "name": "pairID",
              "type": "uint256"
            },
            {
              "internalType": "address",
              "name": "aTokenA",
              "type": "address"
            },
            {
              "internalType": "address",
              "name": "aTokenB",
              "type": "address"
            }
          ],
          "internalType": "struct IDataStorage.TokenPair",
          "name": "",
          "type": "tuple"
        }
      ],
      "stateMutability": "view",
      "type": "function"
    },
    {
      "inputs": [],
      "name": "owner",
      "outputs": [
        {
          "internalType": "address",
          "name": "",
          "type": "address"
        }
      ],
      "stateMutability": "view",
      "type": "function"
    },
    {
      "inputs": [],
      "name": "renounceOwnership",
      "outputs": [],
      "stateMutability": "nonpayable",
      "type": "function"
    },
    {
      "inputs": [
        {
          "internalType": "address",
          "name": "newOwner",
          "type": "address"
        }
      ],
      "name": "transferOwnership",
      "outputs": [],
      "stateMutability": "nonpayable",
      "type": "function"
    },
    {
      "inputs": [
        {
          "internalType": "uint256",
          "name": "_dcaConfigId",
          "type": "uint256"
        },
        {
          "internalType": "uint256",
          "name": "_lastDCATime",
          "type": "uint256"
        }
      ],
      "name": "updateDCAConfigLastDCATime",
      "outputs": [],
      "stateMutability": "nonpayable",
      "type": "function"
    }
  ],
  "bytecode": "0x608060405234801561001057600080fd5b5061001a3361001f565b61006f565b600080546001600160a01b038381166001600160a01b0319831681178455604051919092169283917f8be0079c531659141344cd1fd0a4f28419497f9722a3daafe3b4186f6b6457e09190a35050565b612af08061007e6000396000f3fe608060405234801561001057600080fd5b50600436106100c95760003560e01c806388c4bbef11610081578063b2d4fcad1161005b578063b2d4fcad14610192578063b69f2948146101b2578063f2fde38b146101d257600080fd5b806388c4bbef146101445780638da5cb5b14610157578063a4036c001461017257600080fd5b8063715018a6116100b2578063715018a6146101095780637c21ce14146101115780637f0b08fa1461013157600080fd5b806318b8659b146100ce5780633b05da94146100e3575b600080fd5b6100e16100dc36600461214c565b6101e5565b005b6100f66100f1366004612182565b6102eb565b6040519081526020015b60405180910390f35b6100e16106fb565b61012461011f3660046121fb565b61070f565b6040516101009190612214565b6100f661013f3660046121fb565b61088a565b6100f6610152366004612343565b610b0a565b6000546040516001600160a01b039091168152602001610100565b6101856101803660046123bc565b611219565b60405161010091906123f1565b6101a56101a03660046121fb565b611323565b60405161010091906124bf565b6101c56101c036600461256f565b611402565b60405161010091906125bb565b6100e16101e0366004612620565b61143f565b6102246040518060400160405280600b81526020017f63616c6c6572203a202573000000000000000000000000000000000000000000815250336114cf565b60008281526004602052604090205482146102865760405162461bcd60e51b815260206004820152601160248201527f4e6f207375636820444341436f6e66696700000000000000000000000000000060448201526064015b60405180910390fd5b806000036102d65760405162461bcd60e51b815260206004820152601e60248201527f6c61737444434154696d652073686f756c64206e6f74206265206e756c6c0000604482015260640161027d565b60009182526004602052604090912060070155565b6000806102f78961070f565b9050600061030a88888460e00151611546565b90506103e862ffffff82161115610364576040516303cc968360e41b815260206004820152601160248201527f546f6f206d616e79205365676d656e7473000000000000000000000000000000604482015260640161027d565b8688106103b4576040516303cc968360e41b815260206004820152601160248201527f6d696e206d757374206265203c206d6178000000000000000000000000000000604482015260640161027d565b60008611610405576040516303cc968360e41b815260206004820152601260248201527f616d6f756e74206d757374206265203e20300000000000000000000000000000604482015260640161027d565b60018560ff16101561045a576040516303cc968360e41b815260206004820152601b60248201527f7363616c696e6720666163746f72206d757374206265203e3d20310000000000604482015260640161027d565b6000604051806101600160405280600081526020018c81526020018b151581526020018a81526020018981526020018881526020018760ff1681526020014263ffffffff1681526020018660028111156104b6576104b6612487565b81526000602082015233604090910152905061051d8160208181015160409283015183513360601b6bffffffffffffffffffffffff1916818501526034810192909252151560f81b6054820152825160358183030181526055909101909252815191012090565b80825233600090815260036020908152604080832084845290915290205490945060ff161515600103610593576040516303cc968360e41b815260206004820152601960248201527f44434120436f6e66696720616c72656164792065786973747300000000000000604482015260640161027d565b33600090815260036020818152604080842088855282528084208054600160ff19918216811790925560048085529583902087518155938701519184019190915590850151600280840180549093169115159190911790915560608501519282019290925560808401519281019290925560a0830151600583015560c083015160068301805460e086015160ff90931664ffffffffff199091161761010063ffffffff90931683021780825591850151859493909265ff00000000001916906501000000000090849081111561066b5761066b612487565b0217905550610120820151600782015561014090910151600890910180546001600160a01b0319166001600160a01b0390921691909117905560e08301516106b69082908490611567565b6040518481528b9033907f92995e71da00311cf11b1fe30c0ccf3b93d5b66a1e89d2ed29220751447fea799060200160405180910390a3505050979650505050505050565b6107036118cb565b61070d6000611925565b565b6040805161018081018252600080825260208201819052918101829052606081018290526080810182905260a0810182905260c0810182905260e0810182905261010081018290526101208101829052610140810182905261016081019190915260008281526001602081815260409283902083516101808101855281546001600160a01b03808216808452600160a01b928390046bffffffffffffffffffffffff908116968501969096529584015480821697840197909752958190049093166060820152600282015485166080820152600382015480861660a08301529290920460ff16151560c0830152600481015460e083015260058101548416610100830152600681015461012083015260078101548416610140830152600801549092166101608301526108845760405162461bcd60e51b815260206004820152601460248201527f546f6b656e2050616972206e6f7420466f756e64000000000000000000000000604482015260640161027d565b92915050565b60008061089683611323565b6020810151610140820151919250906001600160a01b03166109205760405162461bcd60e51b815260206004820152602160248201527f4e6f2044434120636f6e66696720666f756e64207769746820676976656e206960448201527f6400000000000000000000000000000000000000000000000000000000000000606482015260840161027d565b6000546001600160a01b0316331480159061095257508161014001516001600160a01b0316336001600160a01b031614155b156109eb5760405162461bcd60e51b815260206004820152604860248201527f4f6e6c7920636f6e7472616374206f776e6572206f722044434120636f6e666960448201527f672063726561746f722063616e2064656c65746520612044434120636f6e666960648201527f6775726174696f6e000000000000000000000000000000000000000000000000608482015260a40161027d565b60006109f68261070f565b9050610a1d83610a13856060015186608001518560e00151611546565b8360e00151611975565b610140830180516001600160a01b0390811660009081526003602081815260408084208b85528252808420805460ff199081169091556004928390529084208481556001810185905560028101805490921690915591820183905581018290556005810182905560068101805465ffffffffffff19169055600781019190915560080180546001600160a01b03191690559051839133917f95650a50f0a8b37bf426f1a4f5d418d502b56e15f7bd8431cf3ff7441e55353a918991168314610ae6576000610ae9565b60015b6040805192835290151560208301520160405180910390a350929392505050565b6000610b146118cb565b6001600160a01b038716610b6a5760405162461bcd60e51b815260206004820152601e60248201527f746f6b656e412061646472657373206d75737420626520646566696e65640000604482015260640161027d565b6001600160a01b038516610bc05760405162461bcd60e51b815260206004820152601e60248201527f746f6b656e422061646472657373206d75737420626520646566696e65640000604482015260640161027d565b6001600160a01b038416610c3c5760405162461bcd60e51b815260206004820152602860248201527f436861696e204c696e6b2050726963652046657463686572206d75737420626560448201527f20646566696e6564000000000000000000000000000000000000000000000000606482015260840161027d565b6001600160a01b038316610cb85760405162461bcd60e51b815260206004820152602a60248201527f4141564520506f6f6c41646472657373657350726f7669646572206d7573742060448201527f626520646566696e656400000000000000000000000000000000000000000000606482015260840161027d565b6001600160a01b038216610d345760405162461bcd60e51b815260206004820152602360248201527f556e6973776170204953776170526f75746572206d757374206265206465666960448201527f6e65640000000000000000000000000000000000000000000000000000000000606482015260840161027d565b60408051606089811b6bffffffffffffffffffffffff199081166020808501829052928a901b90911660348401819052845160288186030181526048850186528051908401206068850191909152607c840191909152835160708185030181526090909301845282519282019290922060008381526001909252929020549091906001600160a01b031615610e0b5760405162461bcd60e51b815260206004820152601b60248201527f546f6b656e205061697220416c6c726561647920446566696e65640000000000604482015260640161027d565b6000818152600160205260409020546001600160a01b031615610e705760405162461bcd60e51b815260206004820152601b60248201527f546f6b656e205061697220416c6c726561647920446566696e65640000000000604482015260640161027d565b6040518061018001604052808a6001600160a01b0316815260200160016bffffffffffffffffffffffff168152602001886001600160a01b0316815260200160016bffffffffffffffffffffffff168152602001876001600160a01b03168152602001866001600160a01b03168152602001600015158152602001898152602001856001600160a01b03168152602001838152602001866001600160a01b031663026b1d5f6040518163ffffffff1660e01b8152600401602060405180830381865afa158015610f44573d6000803e3d6000fd5b505050506040513d601f19601f82011682018060405250810190610f68919061264f565b6040516335ea6a7560e01b81526001600160a01b038d8116600483015291909116906335ea6a75906024016101e060405180830381865afa158015610fb1573d6000803e3d6000fd5b505050506040513d601f19601f82011682018060405250810190610fd5919061273b565b61010001516001600160a01b03168152602001866001600160a01b031663026b1d5f6040518163ffffffff1660e01b8152600401602060405180830381865afa158015611026573d6000803e3d6000fd5b505050506040513d601f19601f8201168201806040525081019061104a919061264f565b6040516335ea6a7560e01b81526001600160a01b038b8116600483015291909116906335ea6a75906024016101e060405180830381865afa158015611093573d6000803e3d6000fd5b505050506040513d601f19601f820116820180604052508101906110b7919061273b565b610100908101516001600160a01b03908116909252600085815260016020818152604092839020865187830151908716600160a01b6bffffffffffffffffffffffff92831681029190911783558886015160608a015190891692168102919091179382019390935560808701516002820180546001600160a01b031990811692891692909217905560a088015160038301805460c08b0151928a167fffffffffffffffffffffff000000000000000000000000000000000000000000909116179115159095021790935560e087015160048201559386015160058501805484169187169190911790556101208601516006850155610140860151600785018054841691871691909117905561016090950151600890930180549091169290931691909117909155518381527fce8995b415e0755c229b33a23e9eb69e560e9390aec47d7197cd839afe38b245910160405180910390a150979650505050505050565b611221612000565b600084815260026020818152604080842087855290915282209190849081111561124d5761124d612487565b600281111561125e5761125e612487565b8152602001908152602001600020600280602002604051908101604052809291906000905b8282101561131657838201805480602002602001604051908101604052809291908181526020016000905b82821015611303576000848152602090819020604080516060810182526003860290920180546001600160a01b03168352600180820154848601526002909101549183019190915290835290920191016112ae565b5050505081526020019060010190611283565b5050505090509392505050565b61132b612027565b6000828152600460208181526040928390208351610160810185528154815260018201549281019290925260028082015460ff90811615159584019590955260038201546060840152928101546080830152600581015460a0830152600681015480851660c084015261010080820463ffffffff1660e0850152929491939285019265010000000000909104909116908111156113ca576113ca612487565b60028111156113db576113db612487565b8152600782015460208201526008909101546001600160a01b031660409091015292915050565b606061140f858585611219565b82600181111561142157611421612487565b600281106114315761143161285e565b602002015195945050505050565b6114476118cb565b6001600160a01b0381166114c35760405162461bcd60e51b815260206004820152602660248201527f4f776e61626c653a206e6577206f776e657220697320746865207a65726f206160448201527f6464726573730000000000000000000000000000000000000000000000000000606482015260840161027d565b6114cc81611925565b50565b61154282826040516024016114e59291906128ba565b60408051601f198184030181529190526020810180517bffffffffffffffffffffffffffffffffffffffffffffffffffffffff167f319af33300000000000000000000000000000000000000000000000000000000179052611ead565b5050565b6000808261155486866128fb565b61155e919061290e565b95945050505050565b602083015160005b8362ffffff168161ffff1610156118c45760006115908461ffff8416612930565b866060015161159f9190612947565b905060006040518060600160405280336001600160a01b031681526020016115c78985611ece565b815260200188600001518152509050600087604001511561170857600085815260026020818152604080842087855290915282206101008b015190929181111561161357611613612487565b600281111561162457611624612487565b81526020019081526020016000206000600281106116445761164461285e565b0180546001808201835560008381526020808220875160039095020180546001600160a01b0319166001600160a01b0390951694909417845586810151928401929092556040808701516002948501558982528383528082208883529092529081206101008c0151939450849390928111156116c2576116c2612487565b60028111156116d3576116d3612487565b81526020019081526020016000206000600281106116f3576116f361285e565b0190805461170292919061209d565b5061180e565b600085815260026020818152604080842087855290915282206101008b015190929181111561173957611739612487565b600281111561174a5761174a612487565b8152602081019190915260400160002060010180546001808201835560008381526020808220875160039095020180546001600160a01b0319166001600160a01b0390951694909417845586810151928401929092556040808701516002948501558982528383528082208883529092529081206101008c0151939450849390928111156117da576117da612487565b60028111156117eb576117eb612487565b8152602081019190915260400160002060010190805461180c92919061209d565b505b80546103e719016118ae576040516303cc968360e41b815260206004820152604260248201527f4e6f206d6f72652044434120636f6e66696775726174696f6e20616c6c6f776560448201527f64206f6e207468697320546f6b656e5061697220666f7220746869732070726960648201527f6365000000000000000000000000000000000000000000000000000000000000608482015260a40161027d565b50505080806118bc9061295a565b91505061156f565b5050505050565b6000546001600160a01b0316331461070d5760405162461bcd60e51b815260206004820181905260248201527f4f776e61626c653a2063616c6c6572206973206e6f7420746865206f776e6572604482015260640161027d565b600080546001600160a01b038381166001600160a01b0319831681178455604051919092169283917f8be0079c531659141344cd1fd0a4f28419497f9722a3daafe3b4186f6b6457e09190a35050565b602083015160005b8362ffffff168161ffff1610156118c457600061199e8461ffff8416612930565b86606001516119ad9190612947565b90506119ee6040518060400160405280602081526020017f64656c6574655365676d656e7473202d207365676d656e745374617274203a2081525082611f8d565b6000866040015115611c9457600084815260026020818152604080842086855290915282206101008a0151909291811115611a2b57611a2b612487565b6002811115611a3c57611a3c612487565b8152602001908152602001600020600060028110611a5c57611a5c61285e565b019050611a82604051806060016040528060278152602001612a94602791398254611f8d565b60005b8154811015611b96578760000151828281548110611aa557611aa561285e565b90600052602060002090600302016002015403611b845781548290611acc906001906128fb565b81548110611adc57611adc61285e565b9060005260206000209060030201828281548110611afc57611afc61285e565b60009182526020909120825460039092020180546001600160a01b0319166001600160a01b03909216919091178155600180830154908201556002918201549101558154829080611b4f57611b4f61297b565b60008281526020812060036000199093019283020180546001600160a01b031916815560018101829055600201559055611b96565b80611b8e81612991565b915050611a85565b50600084815260026020818152604080842086855290915282206101008a015184939192811115611bc957611bc9612487565b6002811115611bda57611bda612487565b8152602001908152602001600020600060028110611bfa57611bfa61285e565b01908054611c0992919061209d565b50611c8f604051806080016040528060578152602001612a3d60579139600086815260026020818152604080842088855290915282206101008c0151909291811115611c5757611c57612487565b6002811115611c6857611c68612487565b8152602001908152602001600020600060028110611c8857611c8861285e565b0154611f8d565b611e98565b600084815260026020818152604080842086855290915282206101008a0151909291811115611cc557611cc5612487565b6002811115611cd657611cd6612487565b815260208101919091526040016000206001019050611d0e604051806060016040528060278152602001612a94602791398254611f8d565b60005b8154811015611e22578760000151828281548110611d3157611d3161285e565b90600052602060002090600302016002015403611e105781548290611d58906001906128fb565b81548110611d6857611d6861285e565b9060005260206000209060030201828281548110611d8857611d8861285e565b60009182526020909120825460039092020180546001600160a01b0319166001600160a01b03909216919091178155600180830154908201556002918201549101558154829080611ddb57611ddb61297b565b60008281526020812060036000199093019283020180546001600160a01b031916815560018101829055600201559055611e22565b80611e1a81612991565b915050611d11565b50611e986040518060800160405280605781526020016129e660579139600086815260026020818152604080842088855290915282206101008c0151909291811115611e7057611e70612487565b6002811115611e8157611e81612487565b815260208101919091526040016000206001611c88565b50508080611ea59061295a565b91505061197d565b60006a636f6e736f6c652e6c6f679050600080835160208501845afa505050565b606082015160808301516040840151600092919015611f67576305f5e100611ef683836128fb565b6305f5e100611f0587856128fb565b611f0f9190612930565b611f19919061290e565b60018760c00151611f2a91906129aa565b60ff16611f379190612930565b611f45906305f5e100612947565b8660a00151611f549190612930565b611f5e919061290e565b92505050610884565b6305f5e100611f7683836128fb565b6305f5e100611f0585886128fb565b505092915050565b6115428282604051602401611fa39291906129c3565b60408051601f198184030181529190526020810180517bffffffffffffffffffffffffffffffffffffffffffffffffffffffff167fb60e72cc00000000000000000000000000000000000000000000000000000000179052611ead565b60405180604001604052806002905b606081526020019060019003908161200f5790505090565b6040518061016001604052806000815260200160008152602001600015158152602001600081526020016000815260200160008152602001600060ff168152602001600063ffffffff1681526020016000600281111561208957612089612487565b815260006020820181905260409091015290565b82805482825590600052602060002090600302810192821561210f5760005260206000209160030282015b8281111561210f57825482546001600160a01b0319166001600160a01b039091161782556001808401549083015560028084015490830155600392830192909101906120c8565b5061211b92915061211f565b5090565b5b8082111561211b5780546001600160a01b03191681556000600182018190556002820155600301612120565b6000806040838503121561215f57600080fd5b50508035926020909101359150565b80356003811061217d57600080fd5b919050565b600080600080600080600060e0888a03121561219d57600080fd5b87359650602088013580151581146121b457600080fd5b955060408801359450606088013593506080880135925060a088013560ff811681146121df57600080fd5b91506121ed60c0890161216e565b905092959891949750929550565b60006020828403121561220d57600080fd5b5035919050565b81516001600160a01b031681526101808101602083015161224560208401826bffffffffffffffffffffffff169052565b50604083015161226060408401826001600160a01b03169052565b50606083015161228060608401826bffffffffffffffffffffffff169052565b50608083015161229b60808401826001600160a01b03169052565b5060a08301516122b660a08401826001600160a01b03169052565b5060c08301516122ca60c084018215159052565b5060e083015160e0830152610100808401516122f0828501826001600160a01b03169052565b50506101208381015190830152610140808401516001600160a01b038116828501525050610160838101516001600160a01b03811684830152611f85565b6001600160a01b03811681146114cc57600080fd5b60008060008060008060c0878903121561235c57600080fd5b86356123678161232e565b955060208701359450604087013561237e8161232e565b9350606087013561238e8161232e565b9250608087013561239e8161232e565b915060a08701356123ae8161232e565b809150509295509295509295565b6000806000606084860312156123d157600080fd5b83359250602084013591506123e86040850161216e565b90509250925092565b6020808252600090606083018382018584805b600281101561247a57878503601f19018452825180518087529087019087870190845b8181101561246457835180516001600160a01b03168452602080820151908501526040908101519084015260608301938a01939250600101612427565b5090965050509285019291850191600101612404565b5092979650505050505050565b634e487b7160e01b600052602160045260246000fd5b600381106124bb57634e487b7160e01b600052602160045260246000fd5b9052565b600061016082019050825182526020830151602083015260408301516124e9604084018215159052565b50606083015160608301526080830151608083015260a083015160a083015260c083015161251c60c084018260ff169052565b5060e083015161253460e084018263ffffffff169052565b50610100808401516125488285018261249d565b50506101208381015190830152610140808401516001600160a01b03811682850152611f85565b6000806000806080858703121561258557600080fd5b843593506020850135925061259c6040860161216e565b91506060850135600281106125b057600080fd5b939692955090935050565b6020808252825182820181905260009190848201906040850190845b8181101561261457835180516001600160a01b031684526020808201519085015260409081015190840152606083019385019392506001016125d7565b50909695505050505050565b60006020828403121561263257600080fd5b813561263d8161232e565b9392505050565b805161217d8161232e565b60006020828403121561266157600080fd5b815161263d8161232e565b6040516101e0810167ffffffffffffffff8111828210171561269e57634e487b7160e01b600052604160045260246000fd5b60405290565b6000602082840312156126b657600080fd5b6040516020810181811067ffffffffffffffff821117156126e757634e487b7160e01b600052604160045260246000fd5b6040529151825250919050565b80516fffffffffffffffffffffffffffffffff8116811461217d57600080fd5b805164ffffffffff8116811461217d57600080fd5b805161ffff8116811461217d57600080fd5b60006101e0828403121561274e57600080fd5b61275661266c565b61276084846126a4565b815261276e602084016126f4565b602082015261277f604084016126f4565b6040820152612790606084016126f4565b60608201526127a1608084016126f4565b60808201526127b260a084016126f4565b60a08201526127c360c08401612714565b60c08201526127d460e08401612729565b60e08201526101006127e7818501612644565b908201526101206127f9848201612644565b9082015261014061280b848201612644565b9082015261016061281d848201612644565b9082015261018061282f8482016126f4565b908201526101a06128418482016126f4565b908201526101c06128538482016126f4565b908201529392505050565b634e487b7160e01b600052603260045260246000fd5b6000815180845260005b8181101561289a5760208185018101518683018201520161287e565b506000602082860101526020601f19601f83011685010191505092915050565b6040815260006128cd6040830185612874565b90506001600160a01b03831660208301529392505050565b634e487b7160e01b600052601160045260246000fd5b81810381811115610884576108846128e5565b60008261292b57634e487b7160e01b600052601260045260246000fd5b500490565b8082028115828204841417610884576108846128e5565b80820180821115610884576108846128e5565b600061ffff808316818103612971576129716128e5565b6001019392505050565b634e487b7160e01b600052603160045260246000fd5b6000600182016129a3576129a36128e5565b5060010190565b60ff8281168282160390811115610884576108846128e5565b6040815260006129d66040830185612874565b9050826020830152939250505056fe64656c6574655365676d656e7473202d206463615365676d656e74734d61705b7061697249445d5b7365676d656e7453746172745d5b5f646361436f6e6669672e64636144656c61795d5b315d2e6c656e677468203a2064656c6574655365676d656e7473202d206463615365676d656e74734d61705b7061697249445d5b7365676d656e7453746172745d5b5f646361436f6e6669672e64636144656c61795d5b305d2e6c656e677468203a2064656c6574655365676d656e7473202d2063757272656e7441727261792e6c656e677468203a20a26469706673582212202d1539c58f8d4156a7238e4a7dfca8c87ca4008b022ebad415fc463aa397688664736f6c63430008130033",
  "linkReferences": {},
  "deployedLinkReferences": {}
}