{
  "_format": "hh-sol-artifact-1",
  "contractName": "DataStorage",
  "sourceName": "contracts/DataStorage.sol",
  "abi": [
    {
      "inputs": [
        {
          "internalType": "string",
          "name": "_errorMessage",
          "type": "string"
        }
      ],
      "name": "DCAConfigError",
      "type": "error"
    },
    {
      "anonymous": false,
      "inputs": [
        {
          "indexed": true,
          "internalType": "address",
          "name": "_sender",
          "type": "address"
        },
        {
          "indexed": true,
          "internalType": "uint256",
          "name": "_pairId",
          "type": "uint256"
        },
        {
          "indexed": false,
          "internalType": "uint256",
          "name": "_configId",
          "type": "uint256"
        }
      ],
      "name": "DCAConfigCreation",
      "type": "event"
    },
    {
      "anonymous": false,
      "inputs": [
        {
          "indexed": true,
          "internalType": "address",
          "name": "_sender",
          "type": "address"
        },
        {
          "indexed": true,
          "internalType": "uint256",
          "name": "_pairId",
          "type": "uint256"
        },
        {
          "indexed": false,
          "internalType": "uint256",
          "name": "_configId",
          "type": "uint256"
        },
        {
          "indexed": false,
          "internalType": "bool",
          "name": "_isDeletedUser",
          "type": "bool"
        }
      ],
      "name": "DCAConfigDeletion",
      "type": "event"
    },
    {
      "anonymous": false,
      "inputs": [
        {
          "indexed": true,
          "internalType": "address",
          "name": "previousOwner",
          "type": "address"
        },
        {
          "indexed": true,
          "internalType": "address",
          "name": "newOwner",
          "type": "address"
        }
      ],
      "name": "OwnershipTransferred",
      "type": "event"
    },
    {
      "anonymous": false,
      "inputs": [
        {
          "indexed": false,
          "internalType": "uint256",
          "name": "_pairId",
          "type": "uint256"
        }
      ],
      "name": "TokenPAirAdded",
      "type": "event"
    },
    {
      "inputs": [
        {
          "internalType": "uint256",
          "name": "_pairId",
          "type": "uint256"
        },
        {
          "internalType": "bool",
          "name": "_isBuyTokenASellTokenB",
          "type": "bool"
        },
        {
          "internalType": "uint256",
          "name": "_min",
          "type": "uint256"
        },
        {
          "internalType": "uint256",
          "name": "_max",
          "type": "uint256"
        },
        {
          "internalType": "uint256",
          "name": "_amount",
          "type": "uint256"
        },
        {
          "internalType": "uint8",
          "name": "_scalingFactor",
          "type": "uint8"
        },
        {
          "internalType": "enum IDataStorage.DCADelayEnum",
          "name": "_dcaDelay",
          "type": "uint8"
        }
      ],
      "name": "addDCAConfig",
      "outputs": [
        {
          "internalType": "uint256",
          "name": "configId",
          "type": "uint256"
        }
      ],
      "stateMutability": "nonpayable",
      "type": "function"
    },
    {
      "inputs": [
        {
          "internalType": "address",
          "name": "_tokenAddressA",
          "type": "address"
        },
        {
          "internalType": "uint256",
          "name": "_tokenPairSegmentSize",
          "type": "uint256"
        },
        {
          "internalType": "address",
          "name": "_tokenAddressB",
          "type": "address"
        },
        {
          "internalType": "address",
          "name": "_chainLinkPriceFetcher",
          "type": "address"
        },
        {
          "internalType": "address",
          "name": "_aavePoolAddressesProvider",
          "type": "address"
        },
        {
          "internalType": "address",
          "name": "_uniswapV3SwapRouter",
          "type": "address"
        }
      ],
      "name": "addTokenPair",
      "outputs": [
        {
          "internalType": "uint256",
          "name": "",
          "type": "uint256"
        }
      ],
      "stateMutability": "nonpayable",
      "type": "function"
    },
    {
      "inputs": [
        {
          "internalType": "uint256",
          "name": "_dcaConfigId",
          "type": "uint256"
        }
      ],
      "name": "deleteDCAConfig",
      "outputs": [
        {
          "internalType": "uint256",
          "name": "",
          "type": "uint256"
        }
      ],
      "stateMutability": "nonpayable",
      "type": "function"
    },
    {
      "inputs": [
        {
          "internalType": "uint256",
          "name": "_dcaConfigId",
          "type": "uint256"
        }
      ],
      "name": "getDCAConfig",
      "outputs": [
        {
          "components": [
            {
              "internalType": "uint256",
              "name": "dcaConfigId",
              "type": "uint256"
            },
            {
              "internalType": "uint256",
              "name": "pairID",
              "type": "uint256"
            },
            {
              "internalType": "bool",
              "name": "isSwapTookenAForTokenB",
              "type": "bool"
            },
            {
              "internalType": "uint256",
              "name": "min",
              "type": "uint256"
            },
            {
              "internalType": "uint256",
              "name": "max",
              "type": "uint256"
            },
            {
              "internalType": "uint256",
              "name": "amount",
              "type": "uint256"
            },
            {
              "internalType": "uint8",
              "name": "scalingFactor",
              "type": "uint8"
            },
            {
              "internalType": "uint32",
              "name": "creationDate",
              "type": "uint32"
            },
            {
              "internalType": "enum IDataStorage.DCADelayEnum",
              "name": "dcaDelay",
              "type": "uint8"
            },
            {
              "internalType": "uint256",
              "name": "lastDCATime",
              "type": "uint256"
            },
            {
              "internalType": "address",
              "name": "creator",
              "type": "address"
            }
          ],
          "internalType": "struct IDataStorage.DCAConfig",
          "name": "",
          "type": "tuple"
        }
      ],
      "stateMutability": "view",
      "type": "function"
    },
    {
      "inputs": [
        {
          "internalType": "uint256",
          "name": "_pairId",
          "type": "uint256"
        },
        {
          "internalType": "uint256",
          "name": "price",
          "type": "uint256"
        },
        {
          "internalType": "enum IDataStorage.DCADelayEnum",
          "name": "delay",
          "type": "uint8"
        }
      ],
      "name": "getDCASegment",
      "outputs": [
        {
          "components": [
            {
              "internalType": "address",
              "name": "owner",
              "type": "address"
            },
            {
              "internalType": "uint256",
              "name": "amount",
              "type": "uint256"
            },
            {
              "internalType": "uint256",
              "name": "dcaConfigId",
              "type": "uint256"
            }
          ],
          "internalType": "struct IDataStorage.SegmentDCAEntry[][2]",
          "name": "",
          "type": "tuple[][2]"
        }
      ],
      "stateMutability": "view",
      "type": "function"
    },
    {
      "inputs": [
        {
          "internalType": "uint256",
          "name": "_pairId",
          "type": "uint256"
        },
        {
          "internalType": "uint256",
          "name": "_price",
          "type": "uint256"
        },
        {
          "internalType": "enum IDataStorage.DCADelayEnum",
          "name": "delay",
          "type": "uint8"
        },
        {
          "internalType": "enum IDataStorage.TokenEnum",
          "name": "_token",
          "type": "uint8"
        }
      ],
      "name": "getDCASegmentEntries",
      "outputs": [
        {
          "components": [
            {
              "internalType": "address",
              "name": "owner",
              "type": "address"
            },
            {
              "internalType": "uint256",
              "name": "amount",
              "type": "uint256"
            },
            {
              "internalType": "uint256",
              "name": "dcaConfigId",
              "type": "uint256"
            }
          ],
          "internalType": "struct IDataStorage.SegmentDCAEntry[]",
          "name": "",
          "type": "tuple[]"
        }
      ],
      "stateMutability": "view",
      "type": "function"
    },
    {
      "inputs": [
        {
          "internalType": "uint256",
          "name": "_pairId",
          "type": "uint256"
        }
      ],
      "name": "getTokenPair",
      "outputs": [
        {
          "components": [
            {
              "internalType": "address",
              "name": "tokenA",
              "type": "address"
            },
            {
              "internalType": "uint96",
              "name": "indexBalanceTokenA",
              "type": "uint96"
            },
            {
              "internalType": "address",
              "name": "tokenB",
              "type": "address"
            },
            {
              "internalType": "uint96",
              "name": "indexBalanceTokenB",
              "type": "uint96"
            },
            {
              "internalType": "address",
              "name": "chainlinkPriceFetcher",
              "type": "address"
            },
            {
              "internalType": "address",
              "name": "aavePoolAddressesProvider",
              "type": "address"
            },
            {
              "internalType": "bool",
              "name": "enabled",
              "type": "bool"
            },
            {
              "internalType": "uint256",
              "name": "tokenPairSegmentSize",
              "type": "uint256"
            },
            {
              "internalType": "address",
              "name": "swapRouter",
              "type": "address"
            },
            {
              "internalType": "uint256",
              "name": "pairID",
              "type": "uint256"
            },
            {
              "internalType": "address",
              "name": "aTokenA",
              "type": "address"
            },
            {
              "internalType": "address",
              "name": "aTokenB",
              "type": "address"
            }
          ],
          "internalType": "struct IDataStorage.TokenPair",
          "name": "",
          "type": "tuple"
        }
      ],
      "stateMutability": "view",
      "type": "function"
    },
    {
      "inputs": [],
      "name": "owner",
      "outputs": [
        {
          "internalType": "address",
          "name": "",
          "type": "address"
        }
      ],
      "stateMutability": "view",
      "type": "function"
    },
    {
      "inputs": [],
      "name": "renounceOwnership",
      "outputs": [],
      "stateMutability": "nonpayable",
      "type": "function"
    },
    {
      "inputs": [
        {
          "internalType": "address",
          "name": "newOwner",
          "type": "address"
        }
      ],
      "name": "transferOwnership",
      "outputs": [],
      "stateMutability": "nonpayable",
      "type": "function"
    },
    {
      "inputs": [
        {
          "internalType": "uint256",
          "name": "_dcaConfigId",
          "type": "uint256"
        },
        {
          "internalType": "uint256",
          "name": "_lastDCATime",
          "type": "uint256"
        }
      ],
      "name": "updateDCAConfigLastDCATime",
      "outputs": [],
      "stateMutability": "nonpayable",
      "type": "function"
    }
  ],
  "bytecode": "0x60806040523480156200001157600080fd5b5062000032620000266200003860201b60201c565b6200004060201b60201c565b62000104565b600033905090565b60008060009054906101000a900473ffffffffffffffffffffffffffffffffffffffff169050816000806101000a81548173ffffffffffffffffffffffffffffffffffffffff021916908373ffffffffffffffffffffffffffffffffffffffff1602179055508173ffffffffffffffffffffffffffffffffffffffff168173ffffffffffffffffffffffffffffffffffffffff167f8be0079c531659141344cd1fd0a4f28419497f9722a3daafe3b4186f6b6457e060405160405180910390a35050565b615bca80620001146000396000f3fe608060405234801561001057600080fd5b50600436106100c95760003560e01c806388c4bbef11610081578063b2d4fcad1161005b578063b2d4fcad14610202578063b69f294814610232578063f2fde38b14610262576100c9565b806388c4bbef146101845780638da5cb5b146101b4578063a4036c00146101d2576100c9565b8063715018a6116100b2578063715018a61461011a5780637c21ce14146101245780637f0b08fa14610154576100c9565b806318b8659b146100ce5780633b05da94146100ea575b600080fd5b6100e860048036038101906100e3919061402f565b61027e565b005b61010460048036038101906100ff9190614105565b610467565b60405161011191906141b6565b60405180910390f35b610122610bcf565b005b61013e600480360381019061013991906141d1565b610be3565b60405161014b919061437a565b60405180910390f35b61016e600480360381019061016991906141d1565b611043565b60405161017b91906141b6565b60405180910390f35b61019e600480360381019061019991906143c2565b611593565b6040516101ab91906141b6565b60405180910390f35b6101bc61226b565b6040516101c9919061445e565b60405180910390f35b6101ec60048036038101906101e79190614479565b612294565b6040516101f99190614673565b60405180910390f35b61021c600480360381019061021791906141d1565b61242f565b604051610229919061481b565b60405180910390f35b61024c6004803603810190610247919061485c565b6125c4565b6040516102599190614932565b60405180910390f35b61027c60048036038101906102779190614954565b612640565b005b61029267081dd2909a767eaf60c01b6126c3565b6102a667e221db71787b7b6160c01b6126c3565b6102ba675aa501760bba20f260c01b6126c3565b6102f96040518060400160405280600b81526020017f63616c6c6572203a202573000000000000000000000000000000000000000000815250336126c6565b61030d6791e920b45f761b9560c01b6126c3565b610321673ec46fded12c0c0f60c01b6126c3565b6103356797366dd65c8ce3b360c01b6126c3565b8160046000848152602001908152602001600020600001541461038d576040517f08c379a0000000000000000000000000000000000000000000000000000000008152600401610384906149de565b60405180910390fd5b6103a1674e86da992ce3e3d260c01b6126c3565b6103b567cbe679b0bf5e84bc60c01b6126c3565b6103c9674141564f2bca878060c01b6126c3565b6103dd676b4983730a2402c760c01b6126c3565b60008103610420576040517f08c379a000000000000000000000000000000000000000000000000000000000815260040161041790614a4a565b60405180910390fd5b610434677886e44f7e1452ab60c01b6126c3565b610448679f93d104f7370bac60c01b6126c3565b8060046000848152602001908152602001600020600701819055505050565b600061047d677d9c4c8fa470631b60c01b6126c3565b61049167b17ac83129b1624460c01b6126c3565b6104a5679f0edd2e56c16e3060c01b6126c3565b60006104b089610be3565b90506104c66744afb2801a1f9c8a60c01b6126c3565b6104da6742e46955e1e8847f60c01b6126c3565b60006104eb88888460e00151612762565b9050610501675bac92b98fce36cd60c01b6126c3565b610515677fa58fbc201fd09460c01b6126c3565b6103e861ffff168162ffffff1611156105775761053c676a4697d05d418d5c60c01b6126c3565b6040517f3cc9683000000000000000000000000000000000000000000000000000000000815260040161056e90614ab6565b60405180910390fd5b61058b674c3d651d527f31aa60c01b6126c3565b61059f6734214dcc2c13086560c01b6126c3565b6105b367737acc477521505f60c01b6126c3565b868810610609576105ce6793a14a150a28b51960c01b6126c3565b6040517f3cc9683000000000000000000000000000000000000000000000000000000000815260040161060090614b22565b60405180910390fd5b61061d67efa35b86d0b3695060c01b6126c3565b61063167c42c9cf61c47cb0960c01b6126c3565b610645672416904b8227eea260c01b6126c3565b6000861161069c5761066167bea75d0ad6ed739d60c01b6126c3565b6040517f3cc9683000000000000000000000000000000000000000000000000000000000815260040161069390614b8e565b60405180910390fd5b6106b0676b0822cf2dbe381c60c01b6126c3565b6106c4679bb602550f01f9ee60c01b6126c3565b6106d867b4a35f6cf829ac7b60c01b6126c3565b60018560ff161015610733576106f86753e6423ceaa08c9260c01b6126c3565b6040517f3cc9683000000000000000000000000000000000000000000000000000000000815260040161072a90614bfa565b60405180910390fd5b61074767af78af5f4e8e8b5060c01b6126c3565b61075b6720f19cf10de6ea8f60c01b6126c3565b61076f67d80ac669528d781160c01b6126c3565b6000604051806101600160405280600081526020018c81526020018b151581526020018a81526020018981526020018881526020018760ff1681526020014263ffffffff1681526020018660028111156107cc576107cb6146c3565b5b8152602001600081526020013373ffffffffffffffffffffffffffffffffffffffff16815250905061080867461b3f2ee1fc0f3c60c01b6126c3565b610811816127ee565b93506108276734968849e3ed475960c01b6126c3565b83816000018181525050610845674f20265338b9f9b260c01b6126c3565b610859670f96af0b962bceef60c01b6126c3565b60011515600360003373ffffffffffffffffffffffffffffffffffffffff1673ffffffffffffffffffffffffffffffffffffffff168152602001908152602001600020600086815260200190815260200160002060009054906101000a900460ff16151503610911576108d667bd3784d2a1b16c7960c01b6126c3565b6040517f3cc9683000000000000000000000000000000000000000000000000000000000815260040161090890614c66565b60405180910390fd5b61092567408d25ef25dc764260c01b6126c3565b61093967a92cfda49e98e6e660c01b6126c3565b6001600360003373ffffffffffffffffffffffffffffffffffffffff1673ffffffffffffffffffffffffffffffffffffffff168152602001908152602001600020600086815260200190815260200160002060006101000a81548160ff0219169083151502179055506109b6679b99b23b54c7d4e060c01b6126c3565b8060046000868152602001908152602001600020600082015181600001556020820151816001015560408201518160020160006101000a81548160ff021916908315150217905550606082015181600301556080820151816004015560a0820151816005015560c08201518160060160006101000a81548160ff021916908360ff16021790555060e08201518160060160016101000a81548163ffffffff021916908363ffffffff1602179055506101008201518160060160056101000a81548160ff02191690836002811115610a9057610a8f6146c3565b5b021790555061012082015181600701556101408201518160080160006101000a81548173ffffffffffffffffffffffffffffffffffffffff021916908373ffffffffffffffffffffffffffffffffffffffff160217905550905050610aff677215b89887f6964160c01b6126c3565b610b1367ab50a1d1782f2ef160c01b6126c3565b610b2281838560e00151612869565b610b3667be1be588bd8050aa60c01b6126c3565b610b4a6793a1fbe5caa7ada860c01b6126c3565b8a3373ffffffffffffffffffffffffffffffffffffffff167f92995e71da00311cf11b1fe30c0ccf3b93d5b66a1e89d2ed29220751447fea7986604051610b9191906141b6565b60405180910390a3610bad67443b018bcec0881b60c01b6126c3565b610bc167eb3149166975bbfb60c01b6126c3565b505050979650505050505050565b610bd7612e8e565b610be16000612f0c565b565b610beb613cfc565b610bff6752168b929a86262160c01b6126c3565b610c1367479bfbcbe9fd9bdf60c01b6126c3565b610c27674854bc45dffc9b2c60c01b6126c3565b600060016000848152602001908152602001600020604051806101800160405290816000820160009054906101000a900473ffffffffffffffffffffffffffffffffffffffff1673ffffffffffffffffffffffffffffffffffffffff1673ffffffffffffffffffffffffffffffffffffffff1681526020016000820160149054906101000a90046bffffffffffffffffffffffff166bffffffffffffffffffffffff166bffffffffffffffffffffffff1681526020016001820160009054906101000a900473ffffffffffffffffffffffffffffffffffffffff1673ffffffffffffffffffffffffffffffffffffffff1673ffffffffffffffffffffffffffffffffffffffff1681526020016001820160149054906101000a90046bffffffffffffffffffffffff166bffffffffffffffffffffffff166bffffffffffffffffffffffff1681526020016002820160009054906101000a900473ffffffffffffffffffffffffffffffffffffffff1673ffffffffffffffffffffffffffffffffffffffff1673ffffffffffffffffffffffffffffffffffffffff1681526020016003820160009054906101000a900473ffffffffffffffffffffffffffffffffffffffff1673ffffffffffffffffffffffffffffffffffffffff1673ffffffffffffffffffffffffffffffffffffffff1681526020016003820160149054906101000a900460ff16151515158152602001600482015481526020016005820160009054906101000a900473ffffffffffffffffffffffffffffffffffffffff1673ffffffffffffffffffffffffffffffffffffffff1673ffffffffffffffffffffffffffffffffffffffff168152602001600682015481526020016007820160009054906101000a900473ffffffffffffffffffffffffffffffffffffffff1673ffffffffffffffffffffffffffffffffffffffff1673ffffffffffffffffffffffffffffffffffffffff1681526020016008820160009054906101000a900473ffffffffffffffffffffffffffffffffffffffff1673ffffffffffffffffffffffffffffffffffffffff1673ffffffffffffffffffffffffffffffffffffffff16815250509050610f63670905a2837f37615460c01b6126c3565b610f7767c3559c3cea82e13260c01b6126c3565b610f8b670945be2482f0e0c760c01b6126c3565b600073ffffffffffffffffffffffffffffffffffffffff16816000015173ffffffffffffffffffffffffffffffffffffffff1603610ffe576040517f08c379a0000000000000000000000000000000000000000000000000000000008152600401610ff590614cd2565b60405180910390fd5b61101267fda96293bda6cee860c01b6126c3565b6110266706c9594c3c7265fe60c01b6126c3565b61103a67801b7b199c2037ce60c01b6126c3565b80915050919050565b60006110596786f60dcfa28ad6a560c01b6126c3565b61106d67483c29d99285530b60c01b6126c3565b61108167aba370ac348559b960c01b6126c3565b600061108c8361242f565b90506110a267ee8cb8f86b88b29260c01b6126c3565b6110b667e92d7ee21c0e227560c01b6126c3565b6000816020015190506110d3673e2b2cb63c79b2a060c01b6126c3565b6110e7674d7b56dfd71e8d1660c01b6126c3565b600073ffffffffffffffffffffffffffffffffffffffff1682610140015173ffffffffffffffffffffffffffffffffffffffff160361119757611134676d433228ff8e9c8060c01b6126c3565b61114867bbd49469f2a966a060c01b6126c3565b61115c6739076b64b4c8fc0e60c01b6126c3565b6040517f08c379a000000000000000000000000000000000000000000000000000000000815260040161118e90614d64565b60405180910390fd5b6111ab67e68e57fd37d4d10a60c01b6126c3565b6111bf6706da208f184e9be860c01b6126c3565b6111d367c616bf923754d8c560c01b6126c3565b6111db61226b565b73ffffffffffffffffffffffffffffffffffffffff163373ffffffffffffffffffffffffffffffffffffffff1614158015611247575081610140015173ffffffffffffffffffffffffffffffffffffffff163373ffffffffffffffffffffffffffffffffffffffff1614155b156112c3576112606706414261fc82b3f660c01b6126c3565b61127467313dff1b90a5fb1260c01b6126c3565b611288676679719acbe2b46f60c01b6126c3565b6040517f08c379a00000000000000000000000000000000000000000000000000000000081526004016112ba90614e1c565b60405180910390fd5b6112d76719cef27f1f3e32af60c01b6126c3565b6112eb67fa67984544513b4460c01b6126c3565b6112ff67d3c5ea79440f313760c01b6126c3565b600061130a82610be3565b905061132067d29c2343c36da24d60c01b6126c3565b6113346737ca8b8e99cfb55760c01b6126c3565b6113598361134f856060015186608001518560e00151612762565b8360e00151612fd0565b61136d67e031a560587c9eee60c01b6126c3565b6003600084610140015173ffffffffffffffffffffffffffffffffffffffff1673ffffffffffffffffffffffffffffffffffffffff168152602001908152602001600020600086815260200190815260200160002060006101000a81549060ff02191690556113e667682a18de8c914f3b60c01b6126c3565b6004600086815260200190815260200160002060008082016000905560018201600090556002820160006101000a81549060ff02191690556003820160009055600482016000905560058201600090556006820160006101000a81549060ff02191690556006820160016101000a81549063ffffffff02191690556006820160056101000a81549060ff021916905560078201600090556008820160006101000a81549073ffffffffffffffffffffffffffffffffffffffff021916905550506114ba67ea1466711bc4625460c01b6126c3565b6114ce675e3838dadf63b76360c01b6126c3565b813373ffffffffffffffffffffffffffffffffffffffff167f95650a50f0a8b37bf426f1a4f5d418d502b56e15f7bd8431cf3ff7441e55353a8786610140015173ffffffffffffffffffffffffffffffffffffffff163373ffffffffffffffffffffffffffffffffffffffff161461154757600061154a565b60015b604051611558929190614e4b565b60405180910390a361157467b249e35185c4f6bb60c01b6126c3565b611588672f55964fdd9f290b60c01b6126c3565b849350505050919050565b60006115a967383d22e3a4642e2f60c01b6126c3565b6115b1612e8e565b6115c56741cc7520420edd4860c01b6126c3565b6115d9670d1d608158f4fb5560c01b6126c3565b6115ed6706bc8294a5b3017060c01b6126c3565b611601671857afb174cb6f1f60c01b6126c3565b611615671d7e066e2a36e44e60c01b6126c3565b600073ffffffffffffffffffffffffffffffffffffffff168773ffffffffffffffffffffffffffffffffffffffff1603611684576040517f08c379a000000000000000000000000000000000000000000000000000000000815260040161167b90614ec0565b60405180910390fd5b6116986791fe8404efadfb1660c01b6126c3565b6116ac67d75c19a5246ac5d560c01b6126c3565b6116c067e4c67ce372f24a9f60c01b6126c3565b6116d4677da24e23616b3c5f60c01b6126c3565b600073ffffffffffffffffffffffffffffffffffffffff168573ffffffffffffffffffffffffffffffffffffffff1603611743576040517f08c379a000000000000000000000000000000000000000000000000000000000815260040161173a90614f2c565b60405180910390fd5b61175767719a6259bde889aa60c01b6126c3565b61176b6786fcd2e1bfa1924460c01b6126c3565b61177e661f69500e3a167060c01b6126c3565b611792678ff433c175ead85860c01b6126c3565b600073ffffffffffffffffffffffffffffffffffffffff168473ffffffffffffffffffffffffffffffffffffffff1603611801576040517f08c379a00000000000000000000000000000000000000000000000000000000081526004016117f890614fbe565b60405180910390fd5b61181567812e6b746575768c60c01b6126c3565b61182967640d09353dec2e0a60c01b6126c3565b61183d6740fe80cb5fae4c9160c01b6126c3565b6118516733259fb1ba4108ab60c01b6126c3565b600073ffffffffffffffffffffffffffffffffffffffff168373ffffffffffffffffffffffffffffffffffffffff16036118c0576040517f08c379a00000000000000000000000000000000000000000000000000000000081526004016118b790615050565b60405180910390fd5b6118d467bd63302072b0d86560c01b6126c3565b6118e867193d580c5964ddfe60c01b6126c3565b6118fc67f3f8157a7cc9f31b60c01b6126c3565b61191067deec0b926970bf6a60c01b6126c3565b600073ffffffffffffffffffffffffffffffffffffffff168273ffffffffffffffffffffffffffffffffffffffff160361197f576040517f08c379a0000000000000000000000000000000000000000000000000000000008152600401611976906150e2565b60405180910390fd5b611993676113e599598328a360c01b6126c3565b6119a767e327d7783218515360c01b6126c3565b6119bb671ad2f995222b774660c01b6126c3565b600087866040516020016119d092919061514a565b6040516020818303038152906040528051906020012060001c90506119ff6705becd45e6afd6c960c01b6126c3565b611a1367057f7b7f579f59d060c01b6126c3565b60008689604051602001611a2892919061514a565b6040516020818303038152906040528051906020012060001c9050611a5767672aa64d07df2ec660c01b6126c3565b611a6b67f19c1762c0425d2560c01b6126c3565b611a7f6753057b2fb79b5ff160c01b6126c3565b600073ffffffffffffffffffffffffffffffffffffffff166001600084815260200190815260200160002060000160009054906101000a900473ffffffffffffffffffffffffffffffffffffffff1673ffffffffffffffffffffffffffffffffffffffff1614611b24576040517f08c379a0000000000000000000000000000000000000000000000000000000008152600401611b1b906151c2565b60405180910390fd5b611b38670b9341a9e6e5c78160c01b6126c3565b611b4c674323049d038e815560c01b6126c3565b611b6067b6af405073af4e6f60c01b6126c3565b611b746780f4a9118809803060c01b6126c3565b600073ffffffffffffffffffffffffffffffffffffffff166001600083815260200190815260200160002060000160009054906101000a900473ffffffffffffffffffffffffffffffffffffffff1673ffffffffffffffffffffffffffffffffffffffff1614611c19576040517f08c379a0000000000000000000000000000000000000000000000000000000008152600401611c10906151c2565b60405180910390fd5b611c2d674638f28c8faa886c60c01b6126c3565b611c4167f16d8228456771f960c01b6126c3565b6040518061018001604052808a73ffffffffffffffffffffffffffffffffffffffff16815260200160016bffffffffffffffffffffffff1681526020018873ffffffffffffffffffffffffffffffffffffffff16815260200160016bffffffffffffffffffffffff1681526020018773ffffffffffffffffffffffffffffffffffffffff1681526020018673ffffffffffffffffffffffffffffffffffffffff1681526020016000151581526020018981526020018573ffffffffffffffffffffffffffffffffffffffff1681526020018381526020018673ffffffffffffffffffffffffffffffffffffffff1663026b1d5f6040518163ffffffff1660e01b8152600401602060405180830381865afa158015611d63573d6000803e3d6000fd5b505050506040513d601f19601f82011682018060405250810190611d8791906151f7565b73ffffffffffffffffffffffffffffffffffffffff166335ea6a758c6040518263ffffffff1660e01b8152600401611dbf919061445e565b6101e060405180830381865afa158015611ddd573d6000803e3d6000fd5b505050506040513d601f19601f82011682018060405250810190611e019190615529565b610100015173ffffffffffffffffffffffffffffffffffffffff1681526020018673ffffffffffffffffffffffffffffffffffffffff1663026b1d5f6040518163ffffffff1660e01b8152600401602060405180830381865afa158015611e6c573d6000803e3d6000fd5b505050506040513d601f19601f82011682018060405250810190611e9091906151f7565b73ffffffffffffffffffffffffffffffffffffffff166335ea6a758a6040518263ffffffff1660e01b8152600401611ec8919061445e565b6101e060405180830381865afa158015611ee6573d6000803e3d6000fd5b505050506040513d601f19601f82011682018060405250810190611f0a9190615529565b610100015173ffffffffffffffffffffffffffffffffffffffff168152506001600084815260200190815260200160002060008201518160000160006101000a81548173ffffffffffffffffffffffffffffffffffffffff021916908373ffffffffffffffffffffffffffffffffffffffff16021790555060208201518160000160146101000a8154816bffffffffffffffffffffffff02191690836bffffffffffffffffffffffff16021790555060408201518160010160006101000a81548173ffffffffffffffffffffffffffffffffffffffff021916908373ffffffffffffffffffffffffffffffffffffffff16021790555060608201518160010160146101000a8154816bffffffffffffffffffffffff02191690836bffffffffffffffffffffffff16021790555060808201518160020160006101000a81548173ffffffffffffffffffffffffffffffffffffffff021916908373ffffffffffffffffffffffffffffffffffffffff16021790555060a08201518160030160006101000a81548173ffffffffffffffffffffffffffffffffffffffff021916908373ffffffffffffffffffffffffffffffffffffffff16021790555060c08201518160030160146101000a81548160ff02191690831515021790555060e082015181600401556101008201518160050160006101000a81548173ffffffffffffffffffffffffffffffffffffffff021916908373ffffffffffffffffffffffffffffffffffffffff16021790555061012082015181600601556101408201518160070160006101000a81548173ffffffffffffffffffffffffffffffffffffffff021916908373ffffffffffffffffffffffffffffffffffffffff1602179055506101608201518160080160006101000a81548173ffffffffffffffffffffffffffffffffffffffff021916908373ffffffffffffffffffffffffffffffffffffffff1602179055509050506121e96746fb7aa2476e012b60c01b6126c3565b6121fd67bfba3d79149de5c360c01b6126c3565b7fce8995b415e0755c229b33a23e9eb69e560e9390aec47d7197cd839afe38b2458260405161222c91906141b6565b60405180910390a1612248673460779a3dabd7a360c01b6126c3565b61225c677eab8d3958ed999160c01b6126c3565b81925050509695505050505050565b60008060009054906101000a900473ffffffffffffffffffffffffffffffffffffffff16905090565b61229c613e15565b6122b0676c48497a65ba734e60c01b6126c3565b6122c4676154d33077c593c660c01b6126c3565b6122d86798039f05aaead35f60c01b6126c3565b6002600085815260200190815260200160002060008481526020019081526020016000206000836002811115612311576123106146c3565b5b6002811115612323576123226146c3565b5b8152602001908152602001600020600280602002604051908101604052809291906000905b8282101561242257838201805480602002602001604051908101604052809291908181526020016000905b8282101561240f57838290600052602060002090600302016040518060600160405290816000820160009054906101000a900473ffffffffffffffffffffffffffffffffffffffff1673ffffffffffffffffffffffffffffffffffffffff1673ffffffffffffffffffffffffffffffffffffffff1681526020016001820154815260200160028201548152505081526020019060010190612373565b5050505081526020019060010190612348565b5050505090509392505050565b612437613e3c565b61244b67f5d7bddd75d4d74a60c01b6126c3565b61245f671b71361999d9f07a60c01b6126c3565b612473676e084388120777f760c01b6126c3565b600460008381526020019081526020016000206040518061016001604052908160008201548152602001600182015481526020016002820160009054906101000a900460ff161515151581526020016003820154815260200160048201548152602001600582015481526020016006820160009054906101000a900460ff1660ff1660ff1681526020016006820160019054906101000a900463ffffffff1663ffffffff1663ffffffff1681526020016006820160059054906101000a900460ff166002811115612547576125466146c3565b5b6002811115612559576125586146c3565b5b8152602001600782015481526020016008820160009054906101000a900473ffffffffffffffffffffffffffffffffffffffff1673ffffffffffffffffffffffffffffffffffffffff1673ffffffffffffffffffffffffffffffffffffffff16815250509050919050565b60606125da6779d8f3230ee5cad360c01b6126c3565b6125ee6775bcaf83e9e70c6460c01b6126c3565b6126026721aeb09ef15dc7d860c01b6126c3565b61260d858585612294565b8260018111156126205761261f6146c3565b5b6002811061263157612630615557565b5b60200201519050949350505050565b612648612e8e565b600073ffffffffffffffffffffffffffffffffffffffff168173ffffffffffffffffffffffffffffffffffffffff16036126b7576040517f08c379a00000000000000000000000000000000000000000000000000000000081526004016126ae906155f8565b60405180910390fd5b6126c081612f0c565b50565b50565b61275e82826040516024016126dc929190615686565b6040516020818303038152906040527f319af333000000000000000000000000000000000000000000000000000000007bffffffffffffffffffffffffffffffffffffffffffffffffffffffff19166020820180517bffffffffffffffffffffffffffffffffffffffffffffffffffffffff8381831617835250505050613a09565b5050565b60006127786715e64281ecd4755560c01b6126c3565b61278c679396e6cb79e3908a60c01b6126c3565b6127a067f31e446733845f0360c01b6126c3565b60008285856127af91906156e5565b6127b99190615748565b90506127cf6701362a91ecd8610460c01b6126c3565b6127e3678ee5551cdd7b887d60c01b6126c3565b809150509392505050565b600061280467ee104c7a86043d8760c01b6126c3565b6128186708fb109b6cbd0ddd60c01b6126c3565b61282c6784d177d6c76883de60c01b6126c3565b3382602001518360400151604051602001612849939291906157e2565b6040516020818303038152906040528051906020012060001c9050919050565b61287d679697b3a0e82012a160c01b6126c3565b6128916788c1822f6e52469660c01b6126c3565b6128a567fad20675e26f278360c01b6126c3565b6000836020015190506128c2670ccf0a7b3cfcd59160c01b6126c3565b6128d6676425e5225c8e953e60c01b6126c3565b60005b8362ffffff168161ffff161015612e87576128fe67bd5f2efb214269e060c01b6126c3565b61291267814b9fb010b99bad60c01b6126c3565b6000838261ffff16612924919061581f565b86606001516129339190615861565b905061294967249641f46109061e60c01b6126c3565b61295d678495c088ac4b655560c01b6126c3565b600060405180606001604052803373ffffffffffffffffffffffffffffffffffffffff1681526020016129908985613a2a565b8152602001886000015181525090506129b3678ee7fb53939fa97960c01b6126c3565b6129c767e5fe6e3e092c3a1d60c01b6126c3565b60006129dd679ea6aac929252b8c60c01b6126c3565b6129f167ba78fbf8e1eaf09d60c01b6126c3565b876040015115612be257612a0f671f91e64b7027ef0660c01b6126c3565b612a23674757d4344a7a1db860c01b6126c3565b60026000868152602001908152602001600020600084815260200190815260200160002060008961010001516002811115612a6157612a606146c3565b5b6002811115612a7357612a726146c3565b5b8152602001908152602001600020600060028110612a9457612a93615557565b5b019050612aab67058657d9761900e360c01b6126c3565b612abf6756d65f98bd7ed42860c01b6126c3565b8082908060018154018082558091505060019003906000526020600020906003020160009091909190915060008201518160000160006101000a81548173ffffffffffffffffffffffffffffffffffffffff021916908373ffffffffffffffffffffffffffffffffffffffff16021790555060208201518160010155604082015181600201555050612b5b6752c37ef77ece0f0060c01b6126c3565b8060026000878152602001908152602001600020600085815260200190815260200160002060008a61010001516002811115612b9a57612b996146c3565b5b6002811115612bac57612bab6146c3565b5b8152602001908152602001600020600060028110612bcd57612bcc615557565b5b01908054612bdc929190613ec9565b50612dc5565b612bf66795e4ee002d3ff50160c01b6126c3565b612c0a6797efd95d631c9db560c01b6126c3565b60026000868152602001908152602001600020600084815260200190815260200160002060008961010001516002811115612c4857612c476146c3565b5b6002811115612c5a57612c596146c3565b5b8152602001908152602001600020600160028110612c7b57612c7a615557565b5b019050612c9267f368ee59401dea3060c01b6126c3565b612ca6673616e33a41b66d8860c01b6126c3565b8082908060018154018082558091505060019003906000526020600020906003020160009091909190915060008201518160000160006101000a81548173ffffffffffffffffffffffffffffffffffffffff021916908373ffffffffffffffffffffffffffffffffffffffff16021790555060208201518160010155604082015181600201555050612d4267fc0462800530bb0760c01b6126c3565b8060026000878152602001908152602001600020600085815260200190815260200160002060008a61010001516002811115612d8157612d806146c3565b5b6002811115612d9357612d926146c3565b5b8152602001908152602001600020600160028110612db457612db3615557565b5b01908054612dc3929190613ec9565b505b612dd967f4559d275a643cb560c01b6126c3565b612ded67426ed9df7006151b60c01b6126c3565b6103e8818054905003612e5d57612e0e67c36cd62cb4a8250760c01b6126c3565b612e22674be659f474c3ae0060c01b6126c3565b6040517f3cc96830000000000000000000000000000000000000000000000000000000008152600401612e549061592d565b60405180910390fd5b612e7167eb0be4b7e9b527e260c01b6126c3565b5050508080612e7f9061594d565b9150506128d9565b5050505050565b612e96613c58565b73ffffffffffffffffffffffffffffffffffffffff16612eb461226b565b73ffffffffffffffffffffffffffffffffffffffff1614612f0a576040517f08c379a0000000000000000000000000000000000000000000000000000000008152600401612f01906159c3565b60405180910390fd5b565b60008060009054906101000a900473ffffffffffffffffffffffffffffffffffffffff169050816000806101000a81548173ffffffffffffffffffffffffffffffffffffffff021916908373ffffffffffffffffffffffffffffffffffffffff1602179055508173ffffffffffffffffffffffffffffffffffffffff168173ffffffffffffffffffffffffffffffffffffffff167f8be0079c531659141344cd1fd0a4f28419497f9722a3daafe3b4186f6b6457e060405160405180910390a35050565b612fe46796d00e5577a11b1e60c01b6126c3565b612ff8677a6fbd7c8c7f63ea60c01b6126c3565b61300c67e6e8106769b554ac60c01b6126c3565b6000836020015190506130296702c260c5d2dbfcdf60c01b6126c3565b61303d67dd10da0cb01c8fc860c01b6126c3565b60005b8362ffffff168161ffff161015613a025761306567b623905f0559224c60c01b6126c3565b6130796727fc4388aa0c655c60c01b6126c3565b6000838261ffff1661308b919061581f565b866060015161309a9190615861565b90506130b067d1019389421023e060c01b6126c3565b6130c4674d373b4ab3046ff760c01b6126c3565b6131036040518060400160405280602081526020017f64656c6574655365676d656e7473202d207365676d656e745374617274203a2081525082613c60565b6131176728fef5b9eb89ba9360c01b6126c3565b61312b67c9cd6212f380a0ae60c01b6126c3565b60006131416779a113ef3b6c5aec60c01b6126c3565b61315567b4f7b8aad14fd83960c01b6126c3565b8660400151156135f35761317367bb876620a6d5aa7960c01b6126c3565b613187670c68428b2df0377360c01b6126c3565b600260008581526020019081526020016000206000838152602001908152602001600020600088610100015160028111156131c5576131c46146c3565b5b60028111156131d7576131d66146c3565b5b81526020019081526020016000206000600281106131f8576131f7615557565b5b01905061320f6760b524e2f1f5486760c01b6126c3565b61322367bbc46287b1037d4560c01b6126c3565b613249604051806060016040528060278152602001615b6e602791398280549050613c60565b61325d67df18f8d1b4692e7b60c01b6126c3565b61327167812f7dc696ba753060c01b6126c3565b60005b81805490508110156134985761329467c4e3073d0b73ad9960c01b6126c3565b6132a867631e5bf58f7602c360c01b6126c3565b87600001518282815481106132c0576132bf615557565b5b90600052602060002090600302016002015403613471576132eb67dd7f87d1e59ead4860c01b6126c3565b6132ff67b10db5182813ae0d60c01b6126c3565b816001838054905061331191906156e5565b8154811061332257613321615557565b5b906000526020600020906003020182828154811061334357613342615557565b5b90600052602060002090600302016000820160009054906101000a900473ffffffffffffffffffffffffffffffffffffffff168160000160006101000a81548173ffffffffffffffffffffffffffffffffffffffff021916908373ffffffffffffffffffffffffffffffffffffffff16021790555060018201548160010155600282015481600201559050506133e3675c8f64436601448560c01b6126c3565b6133f767204b3a0ccf99a48260c01b6126c3565b81805480613408576134076159e3565b5b6001900381819060005260206000209060030201600080820160006101000a81549073ffffffffffffffffffffffffffffffffffffffff0219169055600182016000905560028201600090555050905561346c67d714f24e3704f18760c01b6126c3565b613498565b61348567590a38e38d3c724b60c01b6126c3565b808061349090615a12565b915050613274565b506134ad67368c301a936ed1e560c01b6126c3565b80600260008681526020019081526020016000206000848152602001908152602001600020600089610100015160028111156134ec576134eb6146c3565b5b60028111156134fe576134fd6146c3565b5b815260200190815260200160002060006002811061351f5761351e615557565b5b0190805461352e929190613ec9565b5061354367950e31adec3caeff60c01b6126c3565b61355767cb87dac8668e4ce960c01b6126c3565b6135ee604051806080016040528060578152602001615b176057913960026000878152602001908152602001600020600085815260200190815260200160002060008a610100015160028111156135b1576135b06146c3565b5b60028111156135c3576135c26146c3565b5b81526020019081526020016000206000600281106135e4576135e3615557565b5b0180549050613c60565b6139ed565b613607676f35f15ceab14b1760c01b6126c3565b61361b67c2d1389dcfc28e6c60c01b6126c3565b60026000858152602001908152602001600020600083815260200190815260200160002060008861010001516002811115613659576136586146c3565b5b600281111561366b5761366a6146c3565b5b815260200190815260200160002060016002811061368c5761368b615557565b5b0190506136a367ebf09ccdb94a0e2460c01b6126c3565b6136b76753f2bea458cb9fe860c01b6126c3565b6136dd604051806060016040528060278152602001615b6e602791398280549050613c60565b6136f16771fb5ed66965ae1660c01b6126c3565b61370567b57322917f2062eb60c01b6126c3565b60005b818054905081101561392c5761372867d6e38fae80af057760c01b6126c3565b61373c67332f3f97823c741960c01b6126c3565b876000015182828154811061375457613753615557565b5b906000526020600020906003020160020154036139055761377f67e421a99a835ea3ab60c01b6126c3565b61379367fec3afa2d2484c9c60c01b6126c3565b81600183805490506137a591906156e5565b815481106137b6576137b5615557565b5b90600052602060002090600302018282815481106137d7576137d6615557565b5b90600052602060002090600302016000820160009054906101000a900473ffffffffffffffffffffffffffffffffffffffff168160000160006101000a81548173ffffffffffffffffffffffffffffffffffffffff021916908373ffffffffffffffffffffffffffffffffffffffff160217905550600182015481600101556002820154816002015590505061387767378e8f61248e2b7960c01b6126c3565b61388b67f2d8bfe3f64297c860c01b6126c3565b8180548061389c5761389b6159e3565b5b6001900381819060005260206000209060030201600080820160006101000a81549073ffffffffffffffffffffffffffffffffffffffff021916905560018201600090556002820160009055505090556139006774ac42dd7f3f202260c01b6126c3565b61392c565b613919671389a4549bdd6bc360c01b6126c3565b808061392490615a12565b915050613708565b50613941679589faf2d535817c60c01b6126c3565b61395567e1abd663cae9e3db60c01b6126c3565b6139ec604051806080016040528060578152602001615ac06057913960026000878152602001908152602001600020600085815260200190815260200160002060008a610100015160028111156139af576139ae6146c3565b5b60028111156139c1576139c06146c3565b5b81526020019081526020016000206001600281106139e2576139e1615557565b5b0180549050613c60565b5b505080806139fa9061594d565b915050613040565b5050505050565b60006a636f6e736f6c652e6c6f679050600080835160208501845afa505050565b6000613a406721974d854734d43360c01b6126c3565b613a5467cf21014d8ff1ff3a60c01b6126c3565b613a6867d7d5c343f0513dd260c01b6126c3565b600083606001519050613a8567798fb5867ebd6e4860c01b6126c3565b613a9967c649c44128d9669260c01b6126c3565b600084608001519050613ab6671799906c9e89290960c01b6126c3565b613aca67d3a6b543b4a2a1c060c01b6126c3565b846040015115613b9557613ae867b60c35aa22295d7260c01b6126c3565b613afc67dcdb19b7ad8b1cb460c01b6126c3565b613b10671e1832d21d01fc6b60c01b6126c3565b6305f5e1008282613b2191906156e5565b6305f5e1008684613b3291906156e5565b613b3c919061581f565b613b469190615748565b60018760c00151613b579190615a5a565b60ff16613b64919061581f565b6305f5e100613b739190615861565b8660a00151613b82919061581f565b613b8c9190615748565b92505050613c52565b613ba967a3626a396f1e99df60c01b6126c3565b613bbd670ffe13329822c5a660c01b6126c3565b613bd1678538f8b9cf85f4b260c01b6126c3565b6305f5e1008282613be291906156e5565b6305f5e1008487613bf391906156e5565b613bfd919061581f565b613c079190615748565b60018760c00151613c189190615a5a565b60ff16613c25919061581f565b6305f5e100613c349190615861565b8660a00151613c43919061581f565b613c4d9190615748565b925050505b92915050565b600033905090565b613cf88282604051602401613c76929190615a8f565b6040516020818303038152906040527fb60e72cc000000000000000000000000000000000000000000000000000000007bffffffffffffffffffffffffffffffffffffffffffffffffffffffff19166020820180517bffffffffffffffffffffffffffffffffffffffffffffffffffffffff8381831617835250505050613a09565b5050565b604051806101800160405280600073ffffffffffffffffffffffffffffffffffffffff16815260200160006bffffffffffffffffffffffff168152602001600073ffffffffffffffffffffffffffffffffffffffff16815260200160006bffffffffffffffffffffffff168152602001600073ffffffffffffffffffffffffffffffffffffffff168152602001600073ffffffffffffffffffffffffffffffffffffffff16815260200160001515815260200160008152602001600073ffffffffffffffffffffffffffffffffffffffff16815260200160008152602001600073ffffffffffffffffffffffffffffffffffffffff168152602001600073ffffffffffffffffffffffffffffffffffffffff1681525090565b60405180604001604052806002905b6060815260200190600190039081613e245790505090565b6040518061016001604052806000815260200160008152602001600015158152602001600081526020016000815260200160008152602001600060ff168152602001600063ffffffff16815260200160006002811115613e9f57613e9e6146c3565b5b815260200160008152602001600073ffffffffffffffffffffffffffffffffffffffff1681525090565b828054828255906000526020600020906003028101928215613f8b5760005260206000209160030282015b82811115613f8a5782826000820160009054906101000a900473ffffffffffffffffffffffffffffffffffffffff168160000160006101000a81548173ffffffffffffffffffffffffffffffffffffffff021916908373ffffffffffffffffffffffffffffffffffffffff1602179055506001820154816001015560028201548160020155505091600301919060030190613ef4565b5b509050613f989190613f9c565b5090565b5b80821115613fe657600080820160006101000a81549073ffffffffffffffffffffffffffffffffffffffff02191690556001820160009055600282016000905550600301613f9d565b5090565b6000604051905090565b600080fd5b6000819050919050565b61400c81613ff9565b811461401757600080fd5b50565b60008135905061402981614003565b92915050565b6000806040838503121561404657614045613ff4565b5b60006140548582860161401a565b92505060206140658582860161401a565b9150509250929050565b60008115159050919050565b6140848161406f565b811461408f57600080fd5b50565b6000813590506140a18161407b565b92915050565b600060ff82169050919050565b6140bd816140a7565b81146140c857600080fd5b50565b6000813590506140da816140b4565b92915050565b600381106140ed57600080fd5b50565b6000813590506140ff816140e0565b92915050565b600080600080600080600060e0888a03121561412457614123613ff4565b5b60006141328a828b0161401a565b97505060206141438a828b01614092565b96505060406141548a828b0161401a565b95505060606141658a828b0161401a565b94505060806141768a828b0161401a565b93505060a06141878a828b016140cb565b92505060c06141988a828b016140f0565b91505092959891949750929550565b6141b081613ff9565b82525050565b60006020820190506141cb60008301846141a7565b92915050565b6000602082840312156141e7576141e6613ff4565b5b60006141f58482850161401a565b91505092915050565b600073ffffffffffffffffffffffffffffffffffffffff82169050919050565b6000614229826141fe565b9050919050565b6142398161421e565b82525050565b60006bffffffffffffffffffffffff82169050919050565b6142608161423f565b82525050565b61426f8161406f565b82525050565b61427e81613ff9565b82525050565b6101808201600082015161429b6000850182614230565b5060208201516142ae6020850182614257565b5060408201516142c16040850182614230565b5060608201516142d46060850182614257565b5060808201516142e76080850182614230565b5060a08201516142fa60a0850182614230565b5060c082015161430d60c0850182614266565b5060e082015161432060e0850182614275565b50610100820151614335610100850182614230565b5061012082015161434a610120850182614275565b5061014082015161435f610140850182614230565b50610160820151614374610160850182614230565b50505050565b6000610180820190506143906000830184614284565b92915050565b61439f8161421e565b81146143aa57600080fd5b50565b6000813590506143bc81614396565b92915050565b60008060008060008060c087890312156143df576143de613ff4565b5b60006143ed89828a016143ad565b96505060206143fe89828a0161401a565b955050604061440f89828a016143ad565b945050606061442089828a016143ad565b935050608061443189828a016143ad565b92505060a061444289828a016143ad565b9150509295509295509295565b6144588161421e565b82525050565b6000602082019050614473600083018461444f565b92915050565b60008060006060848603121561449257614491613ff4565b5b60006144a08682870161401a565b93505060206144b18682870161401a565b92505060406144c2868287016140f0565b9150509250925092565b600060029050919050565b600081905092915050565b6000819050919050565b600081519050919050565b600082825260208201905092915050565b6000819050602082019050919050565b60608201600082015161452e6000850182614230565b5060208201516145416020850182614275565b5060408201516145546040850182614275565b50505050565b60006145668383614518565b60608301905092915050565b6000602082019050919050565b600061458a826144ec565b61459481856144f7565b935061459f83614508565b8060005b838110156145d05781516145b7888261455a565b97506145c283614572565b9250506001810190506145a3565b5085935050505092915050565b60006145e9838361457f565b905092915050565b6000602082019050919050565b6000614609826144cc565b61461381856144d7565b935083602082028501614625856144e2565b8060005b85811015614661578484038952815161464285826145dd565b945061464d836145f1565b925060208a01995050600181019050614629565b50829750879550505050505092915050565b6000602082019050818103600083015261468d81846145fe565b905092915050565b61469e816140a7565b82525050565b600063ffffffff82169050919050565b6146bd816146a4565b82525050565b7f4e487b7100000000000000000000000000000000000000000000000000000000600052602160045260246000fd5b60038110614703576147026146c3565b5b50565b6000819050614714826146f2565b919050565b600061472482614706565b9050919050565b61473481614719565b82525050565b610160820160008201516147516000850182614275565b5060208201516147646020850182614275565b5060408201516147776040850182614266565b50606082015161478a6060850182614275565b50608082015161479d6080850182614275565b5060a08201516147b060a0850182614275565b5060c08201516147c360c0850182614695565b5060e08201516147d660e08501826146b4565b506101008201516147eb61010085018261472b565b50610120820151614800610120850182614275565b50610140820151614815610140850182614230565b50505050565b600061016082019050614831600083018461473a565b92915050565b6002811061484457600080fd5b50565b60008135905061485681614837565b92915050565b6000806000806080858703121561487657614875613ff4565b5b60006148848782880161401a565b94505060206148958782880161401a565b93505060406148a6878288016140f0565b92505060606148b787828801614847565b91505092959194509250565b600082825260208201905092915050565b60006148df826144ec565b6148e981856148c3565b93506148f483614508565b8060005b8381101561492557815161490c888261455a565b975061491783614572565b9250506001810190506148f8565b5085935050505092915050565b6000602082019050818103600083015261494c81846148d4565b905092915050565b60006020828403121561496a57614969613ff4565b5b6000614978848285016143ad565b91505092915050565b600082825260208201905092915050565b7f4e6f207375636820444341436f6e666967000000000000000000000000000000600082015250565b60006149c8601183614981565b91506149d382614992565b602082019050919050565b600060208201905081810360008301526149f7816149bb565b9050919050565b7f6c61737444434154696d652073686f756c64206e6f74206265206e756c6c0000600082015250565b6000614a34601e83614981565b9150614a3f826149fe565b602082019050919050565b60006020820190508181036000830152614a6381614a27565b9050919050565b7f546f6f206d616e79205365676d656e7473000000000000000000000000000000600082015250565b6000614aa0601183614981565b9150614aab82614a6a565b602082019050919050565b60006020820190508181036000830152614acf81614a93565b9050919050565b7f6d696e206d757374206265203c206d6178000000000000000000000000000000600082015250565b6000614b0c601183614981565b9150614b1782614ad6565b602082019050919050565b60006020820190508181036000830152614b3b81614aff565b9050919050565b7f616d6f756e74206d757374206265203e20300000000000000000000000000000600082015250565b6000614b78601283614981565b9150614b8382614b42565b602082019050919050565b60006020820190508181036000830152614ba781614b6b565b9050919050565b7f7363616c696e6720666163746f72206d757374206265203e3d20310000000000600082015250565b6000614be4601b83614981565b9150614bef82614bae565b602082019050919050565b60006020820190508181036000830152614c1381614bd7565b9050919050565b7f44434120436f6e66696720616c72656164792065786973747300000000000000600082015250565b6000614c50601983614981565b9150614c5b82614c1a565b602082019050919050565b60006020820190508181036000830152614c7f81614c43565b9050919050565b7f546f6b656e2050616972206e6f7420466f756e64000000000000000000000000600082015250565b6000614cbc601483614981565b9150614cc782614c86565b602082019050919050565b60006020820190508181036000830152614ceb81614caf565b9050919050565b7f4e6f2044434120636f6e66696720666f756e64207769746820676976656e206960008201527f6400000000000000000000000000000000000000000000000000000000000000602082015250565b6000614d4e602183614981565b9150614d5982614cf2565b604082019050919050565b60006020820190508181036000830152614d7d81614d41565b9050919050565b7f4f6e6c7920636f6e7472616374206f776e6572206f722044434120636f6e666960008201527f672063726561746f722063616e2064656c65746520612044434120636f6e666960208201527f6775726174696f6e000000000000000000000000000000000000000000000000604082015250565b6000614e06604883614981565b9150614e1182614d84565b606082019050919050565b60006020820190508181036000830152614e3581614df9565b9050919050565b614e458161406f565b82525050565b6000604082019050614e6060008301856141a7565b614e6d6020830184614e3c565b9392505050565b7f746f6b656e412061646472657373206d75737420626520646566696e65640000600082015250565b6000614eaa601e83614981565b9150614eb582614e74565b602082019050919050565b60006020820190508181036000830152614ed981614e9d565b9050919050565b7f746f6b656e422061646472657373206d75737420626520646566696e65640000600082015250565b6000614f16601e83614981565b9150614f2182614ee0565b602082019050919050565b60006020820190508181036000830152614f4581614f09565b9050919050565b7f436861696e204c696e6b2050726963652046657463686572206d75737420626560008201527f20646566696e6564000000000000000000000000000000000000000000000000602082015250565b6000614fa8602883614981565b9150614fb382614f4c565b604082019050919050565b60006020820190508181036000830152614fd781614f9b565b9050919050565b7f4141564520506f6f6c41646472657373657350726f7669646572206d7573742060008201527f626520646566696e656400000000000000000000000000000000000000000000602082015250565b600061503a602a83614981565b915061504582614fde565b604082019050919050565b600060208201905081810360008301526150698161502d565b9050919050565b7f556e6973776170204953776170526f75746572206d757374206265206465666960008201527f6e65640000000000000000000000000000000000000000000000000000000000602082015250565b60006150cc602383614981565b91506150d782615070565b604082019050919050565b600060208201905081810360008301526150fb816150bf565b9050919050565b60008160601b9050919050565b600061511a82615102565b9050919050565b600061512c8261510f565b9050919050565b61514461513f8261421e565b615121565b82525050565b60006151568285615133565b6014820191506151668284615133565b6014820191508190509392505050565b7f546f6b656e205061697220416c6c726561647920446566696e65640000000000600082015250565b60006151ac601b83614981565b91506151b782615176565b602082019050919050565b600060208201905081810360008301526151db8161519f565b9050919050565b6000815190506151f181614396565b92915050565b60006020828403121561520d5761520c613ff4565b5b600061521b848285016151e2565b91505092915050565b600080fd5b6000601f19601f8301169050919050565b7f4e487b7100000000000000000000000000000000000000000000000000000000600052604160045260246000fd5b61527282615229565b810181811067ffffffffffffffff821117156152915761529061523a565b5b80604052505050565b60006152a4613fea565b90506152b08282615269565b919050565b6000815190506152c481614003565b92915050565b6000602082840312156152e0576152df615224565b5b6152ea602061529a565b905060006152fa848285016152b5565b60008301525092915050565b60006fffffffffffffffffffffffffffffffff82169050919050565b61532b81615306565b811461533657600080fd5b50565b60008151905061534881615322565b92915050565b600064ffffffffff82169050919050565b6153688161534e565b811461537357600080fd5b50565b6000815190506153858161535f565b92915050565b600061ffff82169050919050565b6153a28161538b565b81146153ad57600080fd5b50565b6000815190506153bf81615399565b92915050565b60006101e082840312156153dc576153db615224565b5b6153e76101e061529a565b905060006153f7848285016152ca565b600083015250602061540b84828501615339565b602083015250604061541f84828501615339565b604083015250606061543384828501615339565b606083015250608061544784828501615339565b60808301525060a061545b84828501615339565b60a08301525060c061546f84828501615376565b60c08301525060e0615483848285016153b0565b60e083015250610100615498848285016151e2565b610100830152506101206154ae848285016151e2565b610120830152506101406154c4848285016151e2565b610140830152506101606154da848285016151e2565b610160830152506101806154f084828501615339565b610180830152506101a061550684828501615339565b6101a0830152506101c061551c84828501615339565b6101c08301525092915050565b60006101e082840312156155405761553f613ff4565b5b600061554e848285016153c5565b91505092915050565b7f4e487b7100000000000000000000000000000000000000000000000000000000600052603260045260246000fd5b7f4f776e61626c653a206e6577206f776e657220697320746865207a65726f206160008201527f6464726573730000000000000000000000000000000000000000000000000000602082015250565b60006155e2602683614981565b91506155ed82615586565b604082019050919050565b60006020820190508181036000830152615611816155d5565b9050919050565b600081519050919050565b60005b83811015615641578082015181840152602081019050615626565b60008484015250505050565b600061565882615618565b6156628185614981565b9350615672818560208601615623565b61567b81615229565b840191505092915050565b600060408201905081810360008301526156a0818561564d565b90506156af602083018461444f565b9392505050565b7f4e487b7100000000000000000000000000000000000000000000000000000000600052601160045260246000fd5b60006156f082613ff9565b91506156fb83613ff9565b9250828203905081811115615713576157126156b6565b5b92915050565b7f4e487b7100000000000000000000000000000000000000000000000000000000600052601260045260246000fd5b600061575382613ff9565b915061575e83613ff9565b92508261576e5761576d615719565b5b828204905092915050565b6000819050919050565b61579461578f82613ff9565b615779565b82525050565b60008160f81b9050919050565b60006157b28261579a565b9050919050565b60006157c4826157a7565b9050919050565b6157dc6157d78261406f565b6157b9565b82525050565b60006157ee8286615133565b6014820191506157fe8285615783565b60208201915061580e82846157cb565b600182019150819050949350505050565b600061582a82613ff9565b915061583583613ff9565b925082820261584381613ff9565b9150828204841483151761585a576158596156b6565b5b5092915050565b600061586c82613ff9565b915061587783613ff9565b925082820190508082111561588f5761588e6156b6565b5b92915050565b7f4e6f206d6f72652044434120636f6e66696775726174696f6e20616c6c6f776560008201527f64206f6e207468697320546f6b656e5061697220666f7220746869732070726960208201527f6365000000000000000000000000000000000000000000000000000000000000604082015250565b6000615917604283614981565b915061592282615895565b606082019050919050565b600060208201905081810360008301526159468161590a565b9050919050565b60006159588261538b565b915061ffff820361596c5761596b6156b6565b5b600182019050919050565b7f4f776e61626c653a2063616c6c6572206973206e6f7420746865206f776e6572600082015250565b60006159ad602083614981565b91506159b882615977565b602082019050919050565b600060208201905081810360008301526159dc816159a0565b9050919050565b7f4e487b7100000000000000000000000000000000000000000000000000000000600052603160045260246000fd5b6000615a1d82613ff9565b91507fffffffffffffffffffffffffffffffffffffffffffffffffffffffffffffffff8203615a4f57615a4e6156b6565b5b600182019050919050565b6000615a65826140a7565b9150615a70836140a7565b9250828203905060ff811115615a8957615a886156b6565b5b92915050565b60006040820190508181036000830152615aa9818561564d565b9050615ab860208301846141a7565b939250505056fe64656c6574655365676d656e7473202d206463615365676d656e74734d61705b7061697249445d5b7365676d656e7453746172745d5b5f646361436f6e6669672e64636144656c61795d5b315d2e6c656e677468203a2064656c6574655365676d656e7473202d206463615365676d656e74734d61705b7061697249445d5b7365676d656e7453746172745d5b5f646361436f6e6669672e64636144656c61795d5b305d2e6c656e677468203a2064656c6574655365676d656e7473202d2063757272656e7441727261792e6c656e677468203a20a26469706673582212202bbfce3089cead4c59112769028f25bd047be78916df34e0cb86d6b4953c403664736f6c63430008130033",
  "linkReferences": {},
  "deployedLinkReferences": {}
}