{
  "_format": "hh-sol-artifact-1",
  "contractName": "DOApp",
  "sourceName": "contracts/DOApp.sol",
  "abi": [
    {
      "inputs": [
        {
          "internalType": "bool",
          "name": "_isProductionMode",
          "type": "bool"
        },
        {
          "internalType": "contract IDataStorage",
          "name": "_dataStorage",
          "type": "address"
        }
      ],
      "stateMutability": "payable",
      "type": "constructor"
    },
    {
      "anonymous": false,
      "inputs": [
        {
          "indexed": true,
          "internalType": "address",
          "name": "previousOwner",
          "type": "address"
        },
        {
          "indexed": true,
          "internalType": "address",
          "name": "newOwner",
          "type": "address"
        }
      ],
      "name": "OwnershipTransferred",
      "type": "event"
    },
    {
      "anonymous": false,
      "inputs": [
        {
          "indexed": true,
          "internalType": "uint256",
          "name": "_pairId",
          "type": "uint256"
        },
        {
          "indexed": false,
          "internalType": "uint256",
          "name": "_amountIn",
          "type": "uint256"
        },
        {
          "indexed": false,
          "internalType": "uint256",
          "name": "_amountOut",
          "type": "uint256"
        },
        {
          "indexed": false,
          "internalType": "uint256",
          "name": "_amountOTC",
          "type": "uint256"
        },
        {
          "indexed": false,
          "internalType": "uint256",
          "name": "_amountSwap",
          "type": "uint256"
        },
        {
          "indexed": false,
          "internalType": "uint256",
          "name": "_timeStamp",
          "type": "uint256"
        },
        {
          "indexed": false,
          "internalType": "bool",
          "name": "hasRemainingJobs",
          "type": "bool"
        }
      ],
      "name": "PairDCAExecutionResult",
      "type": "event"
    },
    {
      "anonymous": false,
      "inputs": [
        {
          "indexed": false,
          "internalType": "address",
          "name": "_sender",
          "type": "address"
        },
        {
          "indexed": true,
          "internalType": "uint256",
          "name": "_pairId",
          "type": "uint256"
        },
        {
          "indexed": false,
          "internalType": "address",
          "name": "token",
          "type": "address"
        },
        {
          "indexed": false,
          "internalType": "uint256",
          "name": "_amount",
          "type": "uint256"
        },
        {
          "indexed": false,
          "internalType": "uint256",
          "name": "_timestamp",
          "type": "uint256"
        }
      ],
      "name": "TokenDeposit",
      "type": "event"
    },
    {
      "anonymous": false,
      "inputs": [
        {
          "indexed": false,
          "internalType": "address",
          "name": "_sender",
          "type": "address"
        },
        {
          "indexed": true,
          "internalType": "uint256",
          "name": "_pairId",
          "type": "uint256"
        },
        {
          "indexed": false,
          "internalType": "address",
          "name": "token",
          "type": "address"
        },
        {
          "indexed": false,
          "internalType": "uint256",
          "name": "_amount",
          "type": "uint256"
        },
        {
          "indexed": false,
          "internalType": "uint256",
          "name": "_timestamp",
          "type": "uint256"
        }
      ],
      "name": "TokenWithdrawal",
      "type": "event"
    },
    {
      "anonymous": false,
      "inputs": [
        {
          "indexed": true,
          "internalType": "uint256",
          "name": "_pairId",
          "type": "uint256"
        },
        {
          "indexed": true,
          "internalType": "address",
          "name": "_user",
          "type": "address"
        },
        {
          "indexed": false,
          "internalType": "uint256",
          "name": "_amountOTC",
          "type": "uint256"
        },
        {
          "indexed": false,
          "internalType": "uint256",
          "name": "_amountSwap",
          "type": "uint256"
        },
        {
          "indexed": false,
          "internalType": "uint256",
          "name": "_timeStamp",
          "type": "uint256"
        }
      ],
      "name": "UserDCAExecutionResult",
      "type": "event"
    },
    {
      "inputs": [],
      "name": "MAX_DCA_SEGMENT_PROCESSED_BY_DCA_EXECUTION_CALL",
      "outputs": [
        {
          "internalType": "uint8",
          "name": "",
          "type": "uint8"
        }
      ],
      "stateMutability": "view",
      "type": "function"
    },
    {
      "inputs": [
        {
          "internalType": "uint256",
          "name": "_pairId",
          "type": "uint256"
        },
        {
          "internalType": "uint256",
          "name": "_amount",
          "type": "uint256"
        }
      ],
      "name": "depositTokenA",
      "outputs": [],
      "stateMutability": "nonpayable",
      "type": "function"
    },
    {
      "inputs": [
        {
          "internalType": "uint256",
          "name": "_pairId",
          "type": "uint256"
        },
        {
          "internalType": "uint256",
          "name": "_amount",
          "type": "uint256"
        }
      ],
      "name": "depositTokenB",
      "outputs": [],
      "stateMutability": "nonpayable",
      "type": "function"
    },
    {
      "inputs": [
        {
          "internalType": "uint256",
          "name": "_pairId",
          "type": "uint256"
        }
      ],
      "name": "executeDCA",
      "outputs": [
        {
          "internalType": "bool",
          "name": "hasRemainingDCAJobs",
          "type": "bool"
        }
      ],
      "stateMutability": "nonpayable",
      "type": "function"
    },
    {
      "inputs": [
        {
          "internalType": "address",
          "name": "_token",
          "type": "address"
        },
        {
          "internalType": "address",
          "name": "_user",
          "type": "address"
        }
      ],
      "name": "getTokenUserBalances",
      "outputs": [
        {
          "components": [
            {
              "internalType": "uint256",
              "name": "balance",
              "type": "uint256"
            },
            {
              "internalType": "uint256",
              "name": "index",
              "type": "uint256"
            }
          ],
          "internalType": "struct DOApp.TokenUserBalance",
          "name": "",
          "type": "tuple"
        }
      ],
      "stateMutability": "view",
      "type": "function"
    },
    {
      "inputs": [],
      "name": "owner",
      "outputs": [
        {
          "internalType": "address",
          "name": "",
          "type": "address"
        }
      ],
      "stateMutability": "view",
      "type": "function"
    },
    {
      "inputs": [],
      "name": "renounceOwnership",
      "outputs": [],
      "stateMutability": "nonpayable",
      "type": "function"
    },
    {
      "inputs": [
        {
          "internalType": "uint8",
          "name": "_newVal",
          "type": "uint8"
        }
      ],
      "name": "setMaxDCAProcessSegmentPerCall",
      "outputs": [],
      "stateMutability": "nonpayable",
      "type": "function"
    },
    {
      "inputs": [
        {
          "internalType": "address",
          "name": "newOwner",
          "type": "address"
        }
      ],
      "name": "transferOwnership",
      "outputs": [],
      "stateMutability": "nonpayable",
      "type": "function"
    },
    {
      "inputs": [
        {
          "internalType": "uint256",
          "name": "_pairId",
          "type": "uint256"
        },
        {
          "internalType": "uint256",
          "name": "_amount",
          "type": "uint256"
        }
      ],
      "name": "withdrawTokenA",
      "outputs": [],
      "stateMutability": "nonpayable",
      "type": "function"
    },
    {
      "inputs": [
        {
          "internalType": "uint256",
          "name": "_pairId",
          "type": "uint256"
        },
        {
          "internalType": "uint256",
          "name": "_amount",
          "type": "uint256"
        }
      ],
      "name": "withdrawTokenB",
      "outputs": [],
      "stateMutability": "nonpayable",
      "type": "function"
    }
  ],
  "bytecode": "0x608060405260008060146101000a81548160ff0219169083151502179055506002600160146101000a81548160ff021916908360ff16021790555060405162009b5f38038062009b5f83398181016040528101906200005f9190620002c0565b6200007f620000736200013660201b60201c565b6200013e60201b60201c565b6200009b672db2e2549e1a815960c01b6200020260201b60201c565b620000b767dd5d8b4779b3e72660c01b6200020260201b60201c565b81600060146101000a81548160ff021916908315150217905550620000ed67e724cb23064dc13860c01b6200020260201b60201c565b80600160006101000a81548173ffffffffffffffffffffffffffffffffffffffff021916908373ffffffffffffffffffffffffffffffffffffffff160217905550505062000307565b600033905090565b60008060009054906101000a900473ffffffffffffffffffffffffffffffffffffffff169050816000806101000a81548173ffffffffffffffffffffffffffffffffffffffff021916908373ffffffffffffffffffffffffffffffffffffffff1602179055508173ffffffffffffffffffffffffffffffffffffffff168173ffffffffffffffffffffffffffffffffffffffff167f8be0079c531659141344cd1fd0a4f28419497f9722a3daafe3b4186f6b6457e060405160405180910390a35050565b50565b600080fd5b60008115159050919050565b62000221816200020a565b81146200022d57600080fd5b50565b600081519050620002418162000216565b92915050565b600073ffffffffffffffffffffffffffffffffffffffff82169050919050565b6000620002748262000247565b9050919050565b6000620002888262000267565b9050919050565b6200029a816200027b565b8114620002a657600080fd5b50565b600081519050620002ba816200028f565b92915050565b60008060408385031215620002da57620002d962000205565b5b6000620002ea8582860162000230565b9250506020620002fd85828601620002a9565b9150509250929050565b61984880620003176000396000f3fe608060405234801561001057600080fd5b50600436106100c95760003560e01c8063715018a611610081578063aa2ef4f01161005b578063aa2ef4f0146101b4578063be25c259146101e4578063f2fde38b14610200576100c9565b8063715018a6146101705780638da5cb5b1461017a578063a2ab51eb14610198576100c9565b80631f7d5689116100b25780631f7d5689146101085780636d9dc389146101385780636db243af14610154576100c9565b8063099f870f146100ce5780631cda7a7c146100ec575b600080fd5b6100d661021c565b6040516100e391906171a0565b60405180910390f35b61010660048036038101906101019190617205565b61022f565b005b610122600480360381019061011d9190617245565b610707565b60405161012f919061728d565b60405180910390f35b610152600480360381019061014d91906172d4565b611064565b005b61016e60048036038101906101699190617205565b6110da565b005b61017861149e565b005b6101826114b2565b60405161018f9190617342565b60405180910390f35b6101b260048036038101906101ad9190617205565b6114db565b005b6101ce60048036038101906101c99190617389565b6119b3565b6040516101db9190617407565b60405180910390f35b6101fe60048036038101906101f99190617205565b611c18565b005b61021a60048036038101906102159190617422565b611fdc565b005b600160149054906101000a900460ff1681565b61024367e6c965788cea828160c01b61205f565b6102576783b3ea0ebb91aaa560c01b61205f565b61026b6743918934b573732d60c01b61205f565b6000600160009054906101000a900473ffffffffffffffffffffffffffffffffffffffff1673ffffffffffffffffffffffffffffffffffffffff16637c21ce14846040518263ffffffff1660e01b81526004016102c8919061745e565b61018060405180830381865afa1580156102e6573d6000803e3d6000fd5b505050506040513d601f19601f8201168201806040525081019061030a91906176c6565b905061032067b5087f5a2486846d60c01b61205f565b610334676e5f87ff2894ae3e60c01b61205f565b61034867b45582cf1f486cd460c01b61205f565b6000821161038b576040517f08c379a000000000000000000000000000000000000000000000000000000000815260040161038290617751565b60405180910390fd5b61039f6745c9fb44a3fb84e660c01b61205f565b6103b36755b963b8ca08745260c01b61205f565b6103c7679ebb339b27acf73860c01b61205f565b6103db6730d6c6be8856e74e60c01b61205f565b60026000826000015173ffffffffffffffffffffffffffffffffffffffff1673ffffffffffffffffffffffffffffffffffffffff16815260200190815260200160002060003373ffffffffffffffffffffffffffffffffffffffff1673ffffffffffffffffffffffffffffffffffffffff168152602001908152602001600020600001548211156104a1576040517f08c379a0000000000000000000000000000000000000000000000000000000008152600401610498906177e3565b60405180910390fd5b6104b567951daaba6c91c8e260c01b61205f565b6104c967665ed3a8267e2c1b60c01b61205f565b6104d1612062565b60026000836000015173ffffffffffffffffffffffffffffffffffffffff1673ffffffffffffffffffffffffffffffffffffffff16815260200190815260200160002060003373ffffffffffffffffffffffffffffffffffffffff1673ffffffffffffffffffffffffffffffffffffffff1681526020019081526020016000206001018190555061056c672ed96c9b9de19ca760c01b61205f565b8160026000836000015173ffffffffffffffffffffffffffffffffffffffff1673ffffffffffffffffffffffffffffffffffffffff16815260200190815260200160002060003373ffffffffffffffffffffffffffffffffffffffff1673ffffffffffffffffffffffffffffffffffffffff16815260200190815260200160002060000160008282546105ff9190617832565b9250508190555061061a67f27860fd4aa3ac6860c01b61205f565b61062e675fe76b29aefbde6f60c01b61205f565b6106418160a0015182600001518461207b565b61065567b069254120dba7b060c01b61205f565b61066967e5d6a65f0b31582560c01b61205f565b6106983383836000015173ffffffffffffffffffffffffffffffffffffffff1661232d9092919063ffffffff16565b6106ac67f90c94d43df39f0860c01b61205f565b6106c067c2ae063dd151ee5a60c01b61205f565b827fb051fa67486d17e04638dfff4d83b75ca9aede58b73679b06e004b28f90262ed33836000015185426040516106fa9493929190617866565b60405180910390a2505050565b600061071d673fdeffb22ecd1f6a60c01b61205f565b6107316794767dead643ad5760c01b61205f565b61074567ed3323b44f7a2efb60c01b61205f565b600061075b675e75222bc29f91b860c01b61205f565b61076f67b4ad9de8c98de55160c01b61205f565b600061078567c7a989cba8cecd5860c01b61205f565b610799675c7022a47cb59f6560c01b61205f565b6000600160009054906101000a900473ffffffffffffffffffffffffffffffffffffffff1673ffffffffffffffffffffffffffffffffffffffff16637c21ce14866040518263ffffffff1660e01b81526004016107f6919061745e565b61018060405180830381865afa158015610814573d6000803e3d6000fd5b505050506040513d601f19601f8201168201806040525081019061083891906176c6565b905061084e6751ff70994f0662e960c01b61205f565b610862679845cb89cc7107a160c01b61205f565b61086a617043565b61087e672b5d1bffc0dcf0df60c01b61205f565b600160149054906101000a900460ff1660ff1667ffffffffffffffff8111156108aa576108a961748f565b5b6040519080825280602002602001820160405280156108e357816020015b6108d061706b565b8152602001906001900390816108c85790505b5081600001819052506109006760d941ab80857a5460c01b61205f565b600160149054906101000a900460ff1660ff1667ffffffffffffffff81111561092c5761092b61748f565b5b60405190808252806020026020018201604052801561096557816020015b61095261706b565b81526020019060019003908161094a5790505b5081602001819052506109826712ad5bfa1fa9ba7c60c01b61205f565b61099667b417b4ee990e3f1860c01b61205f565b6109b76040518060600160405280602881526020016194a5602891396123b3565b6109cb676156b5bc3566acad60c01b61205f565b6109da8260008360008061244c565b8095508196508293505050506109fa673c6d07d4232fa0b060c01b61205f565b610a0e6795fbae4774fb7fe760c01b61205f565b610a516040518060400160405280601c81526020017f506f737420686f75726c7920637074546f74616c427579203a202573000000008152508561ffff16613598565b610a65675f8efc17dcf8f4fc60c01b61205f565b610a79675499ba6e792ed37360c01b61205f565b610abc6040518060400160405280601d81526020017f506f737420686f75726c7920637074546f74616c53656c6c203a2025730000008152508461ffff16613598565b610ad067057ec99d05bcc7e060c01b61205f565b610ae467463192a297f7b9f260c01b61205f565b600160149054906101000a900460ff1660ff168385610b0391906178b9565b61ffff161015610b9d57610b2167ee3dfd4d99e2684e60c01b61205f565b610b3567911f0eef20fa9e8f60c01b61205f565b610b49677187e86bebce78e560c01b61205f565b610b6a604051806060016040528060278152602001618f0d602791396123b3565b610b7e67bc19f40cac7b2ba760c01b61205f565b610b8c82600183878761244c565b809550819650829350505050610bca565b610bb167a8e4dc974963bd8460c01b61205f565b610bc567b084875cce86968960c01b61205f565b600194505b610bde6716a26be4aae73f8f60c01b61205f565b610bf2672dcefd7a5117f7ab60c01b61205f565b610c356040518060400160405280601b81526020017f506f7374206461696c7920637074546f74616c427579203a20257300000000008152508561ffff16613598565b610c4967e7f913552e26dbf860c01b61205f565b610c5d6708adedc3304f09d760c01b61205f565b610ca06040518060400160405280601c81526020017f506f7374206461696c7920637074546f74616c53656c6c203a202573000000008152508461ffff16613598565b610cb4676e0414f8bb7b8a1c60c01b61205f565b610cc867f91d0c72b2f896bd60c01b61205f565b600160149054906101000a900460ff1660ff168385610ce791906178b9565b61ffff161015610d8157610d056796ac4f15cedcc20760c01b61205f565b610d19674ae9e345668851ac60c01b61205f565b610d2d671f4d86c904a5156d60c01b61205f565b610d4e6040518060600160405280602881526020016192f1602891396123b3565b610d6267812df3637e01867b60c01b61205f565b610d7082600283878761244c565b809550819650829350505050610dae565b610d9567bae61f70cc52e1f260c01b61205f565b610da967da27e791f6e473fd60c01b61205f565b600194505b610dc267e84db3ef76ba6bdd60c01b61205f565b610dd667bf4fe55cf3eb92c660c01b61205f565b610e196040518060400160405280601c81526020017f506f7374207765656b6c7920637074546f74616c427579203a202573000000008152508561ffff16613598565b610e2d679afe7996daaea5de60c01b61205f565b610e416757a47f37a2abcb4060c01b61205f565b610e846040518060400160405280601d81526020017f506f7374207765656b6c7920637074546f74616c53656c6c203a2025730000008152508461ffff16613598565b610e98672cd1646aa3d599ef60c01b61205f565b610eac67c5a8062ab414728860c01b61205f565b600160149054906101000a900460ff1660ff168385610ecb91906178b9565b61ffff161015610f0657610ee96770629ed11db3436f60c01b61205f565b610efd67b82fed2150685f7560c01b61205f565b60009450610f1b565b610f1a67168efad25d4c833c60c01b61205f565b5b610f2f679bcbc8376bd6645860c01b61205f565b610f43677f62bbb13740b22b60c01b61205f565b6000610f4f8783613634565b9050610f6567d6b3bd41b66cab2060c01b61205f565b610f7967d0a9aea4afcf5c7b60c01b61205f565b867fcb37354b8c96fbee5e582673e5e85a6e9436b2a28fac74fe14f87e832840519a8260000151836020015184604001518560600151428c604051610fc3969594939291906178ef565b60405180910390a2610fdf67b74782387fc577e560c01b61205f565b610ff367c566abae176bf11860c01b61205f565b6110326040518060400160405280601681526020017f68617352656d61696e696e674443414a6f62732025730000000000000000000081525087613f13565b6110466724971123ecc8c94860c01b61205f565b61105a6745ac2480f27eca2760c01b61205f565b5050505050919050565b611078670566517eff1e426460c01b61205f565b611080613faf565b61109467ba71fab51d08d7e560c01b61205f565b6110a867e9f59c99640f291a60c01b61205f565b6110bc67e66ac25c9f4221c060c01b61205f565b80600160146101000a81548160ff021916908360ff16021790555050565b6110ee6799d9a85b678c4ea260c01b61205f565b611102676af31f266244790760c01b61205f565b61111667f1b619f886d6124260c01b61205f565b6000600160009054906101000a900473ffffffffffffffffffffffffffffffffffffffff1673ffffffffffffffffffffffffffffffffffffffff16637c21ce14846040518263ffffffff1660e01b8152600401611173919061745e565b61018060405180830381865afa158015611191573d6000803e3d6000fd5b505050506040513d601f19601f820116820180604052508101906111b591906176c6565b90506111cb67f4c8cd25d5ccf7a360c01b61205f565b6111df6757d755d1faca95ea60c01b61205f565b6111f3672fcaf70da58fd74d60c01b61205f565b60008211611236576040517f08c379a000000000000000000000000000000000000000000000000000000000815260040161122d9061799c565b60405180910390fd5b61124a675ac406bfb1472b7a60c01b61205f565b61125e67e79ef735095b415860c01b61205f565b61127267563a27d1492d615560c01b61205f565b6112a3333084846000015173ffffffffffffffffffffffffffffffffffffffff1661402d909392919063ffffffff16565b6112b76739e0eebd3e3627c460c01b61205f565b6112cb6792637aa42d420cbf60c01b61205f565b6112de8160a001518260000151846140b6565b6112f267de325db04200c52860c01b61205f565b6112fa612062565b60026000836000015173ffffffffffffffffffffffffffffffffffffffff1673ffffffffffffffffffffffffffffffffffffffff16815260200190815260200160002060003373ffffffffffffffffffffffffffffffffffffffff1673ffffffffffffffffffffffffffffffffffffffff16815260200190815260200160002060010181905550611395677eb7a6080a7aaf8560c01b61205f565b8160026000836000015173ffffffffffffffffffffffffffffffffffffffff1673ffffffffffffffffffffffffffffffffffffffff16815260200190815260200160002060003373ffffffffffffffffffffffffffffffffffffffff1673ffffffffffffffffffffffffffffffffffffffff168152602001908152602001600020600001600082825461142891906179bc565b925050819055506114436768e037dd693951cb60c01b61205f565b6114576781c2ba8235e1c26b60c01b61205f565b827f9b42c995337c12dd7a5a1a5328a037e094b21b429c6cd6e5e1f478ba546b2d2b33836000015185426040516114919493929190617866565b60405180910390a2505050565b6114a6613faf565b6114b06000614258565b565b60008060009054906101000a900473ffffffffffffffffffffffffffffffffffffffff16905090565b6114ef673aee9e6faa0c0e6960c01b61205f565b61150367363303a8a6451bc160c01b61205f565b611517672326e693b7961d3560c01b61205f565b6000600160009054906101000a900473ffffffffffffffffffffffffffffffffffffffff1673ffffffffffffffffffffffffffffffffffffffff16637c21ce14846040518263ffffffff1660e01b8152600401611574919061745e565b61018060405180830381865afa158015611592573d6000803e3d6000fd5b505050506040513d601f19601f820116820180604052508101906115b691906176c6565b90506115cc678cae893b512ac27960c01b61205f565b6115e067937fa88d4f5fdcfb60c01b61205f565b6115f467d31edb101a6d4b3a60c01b61205f565b60008211611637576040517f08c379a000000000000000000000000000000000000000000000000000000000815260040161162e90617751565b60405180910390fd5b61164b672eabe17aee26f44a60c01b61205f565b61165f67dec3b15661490ada60c01b61205f565b611673677089919eceb1fbbe60c01b61205f565b61168767dc2d21c520c41ea460c01b61205f565b60026000826040015173ffffffffffffffffffffffffffffffffffffffff1673ffffffffffffffffffffffffffffffffffffffff16815260200190815260200160002060003373ffffffffffffffffffffffffffffffffffffffff1673ffffffffffffffffffffffffffffffffffffffff1681526020019081526020016000206000015482111561174d576040517f08c379a0000000000000000000000000000000000000000000000000000000008152600401611744906177e3565b60405180910390fd5b61176167bda5acc5dcc514a460c01b61205f565b611775675450163a6bc4c9ca60c01b61205f565b61177d612062565b60026000836040015173ffffffffffffffffffffffffffffffffffffffff1673ffffffffffffffffffffffffffffffffffffffff16815260200190815260200160002060003373ffffffffffffffffffffffffffffffffffffffff1673ffffffffffffffffffffffffffffffffffffffff168152602001908152602001600020600101819055506118186750653249c77eb65160c01b61205f565b8160026000836040015173ffffffffffffffffffffffffffffffffffffffff1673ffffffffffffffffffffffffffffffffffffffff16815260200190815260200160002060003373ffffffffffffffffffffffffffffffffffffffff1673ffffffffffffffffffffffffffffffffffffffff16815260200190815260200160002060000160008282546118ab9190617832565b925050819055506118c6673cced27c3360474660c01b61205f565b6118da67929ed1551567f92360c01b61205f565b6118ed8160a0015182604001518461207b565b611901678dfaa70333c39ffc60c01b61205f565b61191567871cae16f37b8d2060c01b61205f565b6119443383836040015173ffffffffffffffffffffffffffffffffffffffff1661232d9092919063ffffffff16565b61195867410d2b29eca81b7160c01b61205f565b61196c674171036fd0aa912b60c01b61205f565b827fb051fa67486d17e04638dfff4d83b75ca9aede58b73679b06e004b28f90262ed33836040015185426040516119a69493929190617866565b60405180910390a2505050565b6119bb6170a2565b6119cf67848d905dd460833b60c01b61205f565b6119e36735f98b9b940d36b260c01b61205f565b6119f767c34bffbaf64441db60c01b61205f565b611a0b678127099718916ee360c01b61205f565b600073ffffffffffffffffffffffffffffffffffffffff168373ffffffffffffffffffffffffffffffffffffffff1603611a7a576040517f08c379a0000000000000000000000000000000000000000000000000000000008152600401611a7190617a3c565b60405180910390fd5b611a8e678676200882e81d5e60c01b61205f565b611aa267dd7b27e0d1d6ba0a60c01b61205f565b611ab66718e91ac1731175d260c01b61205f565b611aca67cba61c8a7617690b60c01b61205f565b600073ffffffffffffffffffffffffffffffffffffffff168273ffffffffffffffffffffffffffffffffffffffff1603611b39576040517f08c379a0000000000000000000000000000000000000000000000000000000008152600401611b3090617aa8565b60405180910390fd5b611b4d67953693744f418a3d60c01b61205f565b611b616725b6b98c2128dca160c01b61205f565b611b7567832f8165bcfa9d2560c01b61205f565b600260008473ffffffffffffffffffffffffffffffffffffffff1673ffffffffffffffffffffffffffffffffffffffff16815260200190815260200160002060008373ffffffffffffffffffffffffffffffffffffffff1673ffffffffffffffffffffffffffffffffffffffff16815260200190815260200160002060405180604001604052908160008201548152602001600182015481525050905092915050565b611c2c6737d724af95b430d360c01b61205f565b611c4067e0267a23debfbe7f60c01b61205f565b611c54678fe18445c7b00af460c01b61205f565b6000600160009054906101000a900473ffffffffffffffffffffffffffffffffffffffff1673ffffffffffffffffffffffffffffffffffffffff16637c21ce14846040518263ffffffff1660e01b8152600401611cb1919061745e565b61018060405180830381865afa158015611ccf573d6000803e3d6000fd5b505050506040513d601f19601f82011682018060405250810190611cf391906176c6565b9050611d0967629f935b8803ef1b60c01b61205f565b611d1d6795b19c4d151b18d260c01b61205f565b611d3167bd3c2302512eca8c60c01b61205f565b60008211611d74576040517f08c379a0000000000000000000000000000000000000000000000000000000008152600401611d6b9061799c565b60405180910390fd5b611d88671ff5c7870e6cee6e60c01b61205f565b611d9c67f877ea19782be92f60c01b61205f565b611db067fc0d4c5377f2f8ee60c01b61205f565b611de1333084846040015173ffffffffffffffffffffffffffffffffffffffff1661402d909392919063ffffffff16565b611df567dbac615d14c3481560c01b61205f565b611e09670e4a2976014eba7960c01b61205f565b611e1c8160a001518260400151846140b6565b611e306752cee741a0f22f6460c01b61205f565b611e38612062565b60026000836040015173ffffffffffffffffffffffffffffffffffffffff1673ffffffffffffffffffffffffffffffffffffffff16815260200190815260200160002060003373ffffffffffffffffffffffffffffffffffffffff1673ffffffffffffffffffffffffffffffffffffffff16815260200190815260200160002060010181905550611ed367e915dfd96a396d6460c01b61205f565b8160026000836040015173ffffffffffffffffffffffffffffffffffffffff1673ffffffffffffffffffffffffffffffffffffffff16815260200190815260200160002060003373ffffffffffffffffffffffffffffffffffffffff1673ffffffffffffffffffffffffffffffffffffffff1681526020019081526020016000206000016000828254611f6691906179bc565b92505081905550611f81675d4d9ab292e5678f60c01b61205f565b611f95672da848cddee8942260c01b61205f565b827f9b42c995337c12dd7a5a1a5328a037e094b21b429c6cd6e5e1f478ba546b2d2b3383604001518542604051611fcf9493929190617866565b60405180910390a2505050565b611fe4613faf565b600073ffffffffffffffffffffffffffffffffffffffff168173ffffffffffffffffffffffffffffffffffffffff1603612053576040517f08c379a000000000000000000000000000000000000000000000000000000000815260040161204a90617b3a565b60405180910390fd5b61205c81614258565b50565b50565b600061207867a1cf5cbe8165c07e60c01b61205f565b90565b61208f672bc2dfe6d050109960c01b61205f565b6120a367c9329f99ab7fc3f660c01b61205f565b6120b7676b3a9e35c9a038dc60c01b61205f565b60008373ffffffffffffffffffffffffffffffffffffffff1663026b1d5f6040518163ffffffff1660e01b8152600401602060405180830381865afa158015612104573d6000803e3d6000fd5b505050506040513d601f19601f820116820180604052508101906121289190617b5a565b905061213e67cc084a6e24eb277560c01b61205f565b612152671f2e5bbaa9f6cb3460c01b61205f565b60008173ffffffffffffffffffffffffffffffffffffffff166335ea6a75856040518263ffffffff1660e01b815260040161218d9190617342565b6101e060405180830381865afa1580156121ab573d6000803e3d6000fd5b505050506040513d601f19601f820116820180604052508101906121cf9190617dd8565b610100015190506121ea672662e9572766a52960c01b61205f565b6121fe67d0580e953c2a976c60c01b61205f565b8073ffffffffffffffffffffffffffffffffffffffff1663095ea7b383856040518363ffffffff1660e01b8152600401612239929190617e06565b6020604051808303816000875af1158015612258573d6000803e3d6000fd5b505050506040513d601f19601f8201168201806040525081019061227c9190617e2f565b5061229167537fb6ee4836adf360c01b61205f565b6122a567e2189cb3ceb01bc160c01b61205f565b8173ffffffffffffffffffffffffffffffffffffffff166369328dec8585306040518463ffffffff1660e01b81526004016122e293929190617e5c565b6020604051808303816000875af1158015612301573d6000803e3d6000fd5b505050506040513d601f19601f820116820180604052508101906123259190617e93565b505050505050565b6123ae8363a9059cbb60e01b848460405160240161234c929190617e06565b604051602081830303815290604052907bffffffffffffffffffffffffffffffffffffffffffffffffffffffff19166020820180517bffffffffffffffffffffffffffffffffffffffffffffffffffffffff838183161783525050505061431c565b505050565b612449816040516024016123c79190617f2e565b6040516020818303038152906040527f41304fac000000000000000000000000000000000000000000000000000000007bffffffffffffffffffffffffffffffffffffffffffffffffffffffff19166020820180517bffffffffffffffffffffffffffffffffffffffffffffffffffffffff83818316178352505050506143e4565b50565b612454617043565b60008061246b6764d4f75fda76fe4860c01b61205f565b61247f67e6053681e9fe579460c01b61205f565b612493674ac720f8f005b69760c01b61205f565b6124cd6040518060600160405280602981526020016191a8602991398961012001518960028111156124c8576124c7617f50565b5b614405565b6124e167ce06e782836781c060c01b61205f565b6124f56744ce9e75429c14e960c01b61205f565b6124fd6170bc565b6125116717753b5417cf1e7560c01b61205f565b61251a896144a4565b81600001818152505061253767f6c7d59a0337485360c01b61205f565b600160009054906101000a900473ffffffffffffffffffffffffffffffffffffffff1673ffffffffffffffffffffffffffffffffffffffff1663a4036c008a610120015183600001518b6040518463ffffffff1660e01b815260040161259f93929190617fc7565b600060405180830381865afa1580156125bc573d6000803e3d6000fd5b505050506040513d6000823e3d601f19601f820116820180604052508101906125e591906181fe565b81602001819052506126016750101c264a1ddf1460c01b61205f565b886101400151816040019073ffffffffffffffffffffffffffffffffffffffff16908173ffffffffffffffffffffffffffffffffffffffff1681525050612652673bf2860615a261d360c01b61205f565b886101600151816060019073ffffffffffffffffffffffffffffffffffffffff16908173ffffffffffffffffffffffffffffffffffffffff16815250506126a367e406e80ead44746260c01b61205f565b60018160c00190151590811515815250506126c8671e9b58b7f39027b560c01b61205f565b6126dc67c66a94e4c6e845eb60c01b61205f565b6126f067918cf7c61226bd5160c01b61205f565b61274d6040518060600160405280603c8152602001619789603c9139826020015160006002811061272457612723618247565b5b602002015151836020015160016002811061274257612741618247565b5b602002015151614405565b61276167b48700d08e05b3dd60c01b61205f565b61277567834584160096b59f60c01b61205f565b6000816020015160006002811061278f5761278e618247565b5b602002015151141580156127b357506127b2672c4667a3b584a82560c01b6145a8565b5b806127f85750600081602001516001600281106127d3576127d2618247565b5b602002015151141580156127f757506127f66712fcc1c95a9430a960c01b6145a8565b5b5b156134f3576128116703def10609dcbf8760c01b61205f565b6128256736f7cf2428338b1960c01b61205f565b61283967ea3aaa472c73db3f60c01b61205f565b61286d6040518060600160405280603f81526020016193be603f9139600160149054906101000a900460ff1660ff16613598565b61288167e03a75e76547881560c01b61205f565b61289567d5895709c5cf780360c01b61205f565b6128c86040518060600160405280602e8152602001618f7f602e9139826080015161ffff168360a0015161ffff16614405565b6128dc67f48995eec3fb00c560c01b61205f565b6128f067d55c25553c290d3c60c01b61205f565b61291b604051806060016040528060388152602001619319603891398761ffff168761ffff16614405565b61292e66b3279b238e775160c01b61205f565b61294267baa3dc524b5791e260c01b61205f565b5b600160149054906101000a900460ff1660ff16858761296291906178b9565b61ffff16108015612a005750806080015161ffff16816020015160006002811061298f5761298e618247565b5b602002015151141580156129b357506129b267b32e7b985de1df8c60c01b6145a8565b5b806129ff57508060a0015161ffff1681602001516001600281106129da576129d9618247565b5b602002015151141580156129fe57506129fd6743f35c4fd95c589560c01b6145a8565b5b5b5b156134ee57612a19672c2fc9d69fdf06bc60c01b61205f565b612a2d67cca6558abac6be8660c01b61205f565b612a6060405180606001604052806039815260200161916f60399139826080015161ffff168360a0015161ffff16614405565b612a7467c2aaa113fd2c08f360c01b61205f565b612a8867b759204c714d284960c01b61205f565b612ab3604051806080016040528060438152602001619746604391398761ffff168761ffff16614405565b612ac767c6d6fb3d55b86da960c01b61205f565b612adb67134bc668b7801f7b60c01b61205f565b8060c001511561308057612af96711c3521e3e3d4dac60c01b61205f565b612b0d67d3b64864c7fa9db260c01b61205f565b612b2167757fe01a72c6e62360c01b61205f565b612b4260405180606001604052806024815260200161914b602491396123b3565b612b5667710e857545ab2bd260c01b61205f565b612b6a67e6838d5b76ac240c60c01b61205f565b60008160200151600060028110612b8457612b83618247565b5b6020020151511115612f0357612ba467948bad99b0c9275260c01b61205f565b612bb86703971c6d6bac5ca860c01b61205f565b612bcc673e1e4a1aa9b6bc0060c01b61205f565b600080612c038b61012001518460200151600060028110612bf057612bef618247565b5b60200201518c86608001514260016145b3565b91509150612c1b670ade3f519764480560c01b61205f565b80836080019061ffff16908161ffff1681525050612c4367d0a9c35b1f6df20660c01b61205f565b612c576702fb7120fc5514c260c01b61205f565b612c7d6040518060600160405280602c8152602001618e4d602c91398360200151613598565b612c9167cba67f38df4de0b260c01b61205f565b612ca5674929b7a63f27241560c01b61205f565b612ccb6040518060600160405280602b8152602001619120602b91398360000151614cfd565b612cdf6752d1d569a50b386b60c01b61205f565b612cf367960c4b393cb6a79f60c01b61205f565b612d196040518060600160405280603181526020016190ef603191398360400151613598565b612d2d67fa92217e73d15f6360c01b61205f565b612d4167192d02dd9777a3e360c01b61205f565b612d6b6040518060600160405280602c8152602001618dfe602c9139846080015161ffff16613598565b612d7f67dfd0d32b64e1c5cf60c01b61205f565b612d9367a422640ad8e608d560c01b61205f565b612db9604051806060016040528060288152602001618d31602891398961ffff16613598565b612dcd6748c5b51ec0d91b0460c01b61205f565b612de16767b49b47cc15474460c01b61205f565b6000826020015114612e9457612e01674ed686858c51e79e60c01b61205f565b612e156737ce72257abfd6a760c01b61205f565b8189600001518961ffff1681518110612e3157612e30618247565b5b6020026020010181905250612e5067e1f3b90459da6c6860c01b61205f565b816020015189604001818151612e6691906179bc565b91508181525050612e81671bb9561dd18c0c9260c01b61205f565b8780612e8c90618276565b985050612ea9565b612ea8677e3b3ee2eb8bc35960c01b61205f565b5b612ebd67c4288fd46afb711a60c01b61205f565b612ed167ab35856bf0292ebb60c01b61205f565b612efc6040518060600160405280603a815260200161923d603a91398a604001518b60600151614405565b5050612f18565b612f1767fa83007a22234f6560c01b61205f565b5b612f2c67dbcaec1c35ff641360c01b61205f565b612f40672bd92dc1be06267760c01b61205f565b612f896040518060800160405280604a8152602001619277604a9139826080015161ffff168360200151600060028110612f7d57612f7c618247565b5b60200201515114613f13565b612f9d672bd5daa023a9624860c01b61205f565b612fb1672222dca240ef1dc960c01b61205f565b86606001518760400151118015612fd85750612fd7674f55a60de887f2bf60c01b6145a8565b5b806130235750806080015161ffff168160200151600060028110612fff57612ffe618247565b5b602002015151148015613022575061302167fd458a3e5ae8cd9560c01b6145a8565b5b5b156130665761303c67a0524dd7ddf3dc0e60c01b61205f565b613050672d9e173f9dc7260b60c01b61205f565b60008160c001901515908115158152505061307b565b61307a67eb3068ceb1528fee60c01b61205f565b5b61348e565b61309467b61e9dca42b76edc60c01b61205f565b6130a867cce9d61dddbaaa9f60c01b61205f565b6130bc6750bf08eb437f76ee60c01b61205f565b6130dd6040518060600160405280602581526020016197ee602591396123b3565b6130f167d4932f2fb085e07e60c01b61205f565b613105676090387a8f282e5760c01b61205f565b6000816020015160016002811061311f5761311e618247565b5b60200201515111156133145761313f678ceafbff3918c09260c01b61205f565b613153676bdec6db35f88be060c01b61205f565b61316767f09108bf22587f9460c01b61205f565b60008061319e8b6101200151846020015160016002811061318b5761318a618247565b5b60200201518c8660a001514260006145b3565b915091506131b66794c2ebe19b5e6f7d60c01b61205f565b808360a0019061ffff16908161ffff16815250506131de67535aad29ddd5ee4760c01b61205f565b6131f26709af518d72634b2160c01b61205f565b60008260200151146132a55761321267c4e0c2afc0a39f2f60c01b61205f565b61322667b2aa9c5f53d97a9760c01b61205f565b8189602001518861ffff168151811061324257613241618247565b5b602002602001018190525061326167b9986a52ec7afe1460c01b61205f565b81602001518960600181815161327791906179bc565b9150818152505061329267b3d36fbc1a83f18860c01b61205f565b868061329d90618276565b9750506132ba565b6132b9677902075c0f0b504c60c01b61205f565b5b6132ce672ab26d570bcf731b60c01b61205f565b6132e267c458a797d202a3b360c01b61205f565b61330d6040518060600160405280603b8152602001619048603b91398a604001518b60600151614405565b5050613329565b61332867464c9cd5825eeb0060c01b61205f565b5b61333d67bfd748fb1fbcb1be60c01b61205f565b61335167a6cb2401850c14df60c01b61205f565b61339a6040518060800160405280604c81526020016196fa604c91398260a0015161ffff16836020015160016002811061338e5761338d618247565b5b60200201515114613f13565b6133ae677603be16bb5ba2f060c01b61205f565b6133c26757f3d889c0f677ce60c01b61205f565b86604001518760600151101580156133ea57506133e967a5b83461c8e25c7360c01b6145a8565b5b8061343557508060a0015161ffff16816020015160016002811061341157613410618247565b5b602002015151148015613434575061343367176404cad8254bdc60c01b6145a8565b5b5b156134785761344e677bb238fcbfc1185160c01b61205f565b61346267d2b80c7175671e1c60c01b61205f565b60018160c001901515908115158152505061348d565b61348c679b89d47008c5393860c01b61205f565b5b5b6134a267e3de3c28e098d30160c01b61205f565b6134b667652b8809b5983b4760c01b61205f565b6134e96040518060600160405280603a8152602001618d59603a9139826080015161ffff168360a0015161ffff16614405565b612943565b613508565b613507674a0f3195f650f96c60c01b61205f565b5b61351c678eca45b1d84c0e6f60c01b61205f565b613530679a8e1e7aec8857b560c01b61205f565b61355b6040518060600160405280603081526020016192c1603091398761ffff168761ffff16614405565b61356f67bc4670bb0c906aff60c01b61205f565b613583678e6cd60ae5867f3d60c01b61205f565b86868693509350935050955095509592505050565b61363082826040516024016135ae9291906182a0565b6040516020818303038152906040527fb60e72cc000000000000000000000000000000000000000000000000000000007bffffffffffffffffffffffffffffffffffffffffffffffffffffffff19166020820180517bffffffffffffffffffffffffffffffffffffffffffffffffffffffff83818316178352505050506143e4565b5050565b61363c617135565b61365067d7627ffb8b0d410b60c01b61205f565b6136646759d5a63c8203147060c01b61205f565b6136786765e0fd7d0d2f072660c01b61205f565b613680617135565b6136946760fad8267a72cf1260c01b61205f565b6136a86709d334ee15f9b0f560c01b61205f565b60006136be67326651920e57887d60c01b61205f565b6136d26701c2ba6c119b49dd60c01b61205f565b60006136e86759503df56dc04e2360c01b61205f565b6136fc670e17bba357b445c960c01b61205f565b60006137126752b63349bf41bfa860c01b61205f565b61372667a300b22dd140ce9a60c01b61205f565b60005b8660000151518161ffff1610156137f35761374e67de07b3af8ce8c74760c01b61205f565b86600001518161ffff168151811061376957613768618247565b5b602002602001015160200151856000015161378491906179bc565b8560000181815250506137a167eeaca2adb6a0b04060c01b61205f565b86602001518161ffff16815181106137bc576137bb618247565b5b60200260200101516020015185602001516137d791906179bc565b85602001818152505080806137eb90618276565b915050613729565b50613808677e709e2ba2b1729d60c01b61205f565b61381c67569b6f482dc5704d60c01b61205f565b61384760405180606001604052806029815260200161947c6029913985600001518660200151614405565b61385b67258da82145015d5060c01b61205f565b836020015184600001511080156138825750613881672ea38524b16bd11c60c01b6145a8565b5b8061389d575061389c672cb6e4227ac0bf6d60c01b614d99565b5b6138ab5783602001516138b1565b83600001515b8460400181815250506138ce67989a1766496a6e8760c01b61205f565b836020015184600001511080156138f557506138f4678621ed7f01f85a5d60c01b6145a8565b5b80613910575061390f67aeaabbc9bfde192060c01b614d99565b5b61392d57836040015184600001516139289190617832565b613942565b836040015184602001516139419190617832565b5b84606001818152505061395f6720a6f95208ff8bfd60c01b61205f565b61397367bbefa9547d246a6260c01b61205f565b61399e604051806060016040528060328152602001618fd96032913985604001518660600151614405565b6139b267ec97a205d0025a6a60c01b61205f565b6139c66772b38106003f9b3f60c01b61205f565b600084606001511115613e56576139e76792df05a2a3ff0f3160c01b61205f565b6139fb67101e516cf8f626cc60c01b61205f565b613a0f678e8c06539174333260c01b61205f565b6000600160009054906101000a900473ffffffffffffffffffffffffffffffffffffffff1673ffffffffffffffffffffffffffffffffffffffff16637c21ce14896040518263ffffffff1660e01b8152600401613a6c919061745e565b61018060405180830381865afa158015613a8a573d6000803e3d6000fd5b505050506040513d601f19601f82011682018060405250810190613aae91906176c6565b9050613ac4674d6db28be6bfdc7a60c01b61205f565b613ad867927f3dd733fe123a60c01b61205f565b846020015185600001511115613b3757613afc678f3143d231a6ae3f60c01b61205f565b613b10677e7d7d89cc6ba45460c01b61205f565b80600001519250613b2b67b8869af6857b4b8b60c01b61205f565b80604001519150613b82565b613b4b6771a78ffca3299fd960c01b61205f565b613b5f67f0f8dbf2de7e4f4360c01b61205f565b80604001519250613b7a67cbbafda52ea3634660c01b61205f565b806000015191505b613b96671e0a89784dcd422260c01b61205f565b613baa67f3d1de71313a5d0d60c01b61205f565b6000613bc067856466658df2d06160c01b61205f565b85602001518660000151118015613be75750613be6677ccced0d7087aebd60c01b6145a8565b5b80613c025750613c01671979dead0f3095b360c01b614d99565b5b613c1157816101600151613c18565b8161014001515b9050613c2e67a4df93ebba09871d60c01b61205f565b613c42678a2bba038422e47a60c01b61205f565b613cdd6040518060600160405280602981526020016194cd602991398273ffffffffffffffffffffffffffffffffffffffff166370a08231336040518263ffffffff1660e01b8152600401613c979190617342565b602060405180830381865afa158015613cb4573d6000803e3d6000fd5b505050506040513d601f19601f82011682018060405250810190613cd89190617e93565b613598565b613cf167e0b352fc66362e6360c01b61205f565b613d05673c692d88b8727ccc60c01b61205f565b613da06040518060600160405280602c8152602001618fad602c91398273ffffffffffffffffffffffffffffffffffffffff166370a08231306040518263ffffffff1660e01b8152600401613d5a9190617342565b602060405180830381865afa158015613d77573d6000803e3d6000fd5b505050506040513d601f19601f82011682018060405250810190613d9b9190617e93565b613598565b613db4674fc4f7523c53957d60c01b61205f565b613dc867f21dded6d85e3e2460c01b61205f565b613ddb8260a0015185886060015161207b565b613def672a58ae35cc5c430360c01b61205f565b613e168987606001518860200151896000015111613e0e576000613e11565b60015b614da0565b9450613e2c6745cb2382ee42fc5960c01b61205f565b613e40673dea75d8dd00148f60c01b61205f565b613e4f8260a0015184876140b6565b5050613e6b565b613e6a6772d8aea0d111faa160c01b61205f565b5b613e7f672a067fd97048b3a960c01b61205f565b613e9367f4b4aa83a4b202ee60c01b61205f565b613ead87856000015186602001518760400151878b6157b9565b613ec1675b8fefc2451506fb60c01b61205f565b613ed5678193000c8f98754160c01b61205f565b613ede8661672f565b613ef267f05d4a6cf78100ae60c01b61205f565b613f0667e6f1a21e2811dc1d60c01b61205f565b8394505050505092915050565b613fab8282604051602401613f299291906182d0565b6040516020818303038152906040527fc3b55635000000000000000000000000000000000000000000000000000000007bffffffffffffffffffffffffffffffffffffffffffffffffffffffff19166020820180517bffffffffffffffffffffffffffffffffffffffffffffffffffffffff83818316178352505050506143e4565b5050565b613fb76168d9565b73ffffffffffffffffffffffffffffffffffffffff16613fd56114b2565b73ffffffffffffffffffffffffffffffffffffffff161461402b576040517f08c379a00000000000000000000000000000000000000000000000000000000081526004016140229061834c565b60405180910390fd5b565b6140b0846323b872dd60e01b85858560405160240161404e9392919061836c565b604051602081830303815290604052907bffffffffffffffffffffffffffffffffffffffffffffffffffffffff19166020820180517bffffffffffffffffffffffffffffffffffffffffffffffffffffffff838183161783525050505061431c565b50505050565b6140ca67d33375672af00cbf60c01b61205f565b6140de67b33dfc4d204d4dd660c01b61205f565b6140f267a0bc0282171a6e0f60c01b61205f565b60008373ffffffffffffffffffffffffffffffffffffffff1663026b1d5f6040518163ffffffff1660e01b8152600401602060405180830381865afa15801561413f573d6000803e3d6000fd5b505050506040513d601f19601f820116820180604052508101906141639190617b5a565b90506141796754dcc1184b480d1f60c01b61205f565b61418d678bfa6e16e605635b60c01b61205f565b6141b881838573ffffffffffffffffffffffffffffffffffffffff166168e19092919063ffffffff16565b6141cc67575852e13640395160c01b61205f565b6141e06750c91f9972bb278260c01b61205f565b8073ffffffffffffffffffffffffffffffffffffffff1663617ba03784843060006040518563ffffffff1660e01b815260040161422094939291906183e8565b600060405180830381600087803b15801561423a57600080fd5b505af115801561424e573d6000803e3d6000fd5b5050505050505050565b60008060009054906101000a900473ffffffffffffffffffffffffffffffffffffffff169050816000806101000a81548173ffffffffffffffffffffffffffffffffffffffff021916908373ffffffffffffffffffffffffffffffffffffffff1602179055508173ffffffffffffffffffffffffffffffffffffffff168173ffffffffffffffffffffffffffffffffffffffff167f8be0079c531659141344cd1fd0a4f28419497f9722a3daafe3b4186f6b6457e060405160405180910390a35050565b600061437e826040518060400160405280602081526020017f5361666545524332303a206c6f772d6c6576656c2063616c6c206661696c65648152508573ffffffffffffffffffffffffffffffffffffffff166169f39092919063ffffffff16565b90506000815114806143a057508080602001905181019061439f9190617e2f565b5b6143df576040517f08c379a00000000000000000000000000000000000000000000000000000000081526004016143d69061849f565b60405180910390fd5b505050565b60006a636f6e736f6c652e6c6f679050600080835160208501845afa505050565b61449f83838360405160240161441d939291906184bf565b6040516020818303038152906040527fca47c4eb000000000000000000000000000000000000000000000000000000007bffffffffffffffffffffffffffffffffffffffffffffffffffffffff19166020820180517bffffffffffffffffffffffffffffffffffffffffffffffffffffffff83818316178352505050506143e4565b505050565b60006144ba6785d22e8b30f2c14360c01b61205f565b6144ce67d17807844b1df8ae60c01b61205f565b6144e26723871928c20e58af60c01b61205f565b6000826080015173ffffffffffffffffffffffffffffffffffffffff1663feaf968c6040518163ffffffff1660e01b815260040160a060405180830381865afa158015614533573d6000803e3d6000fd5b505050506040513d601f19601f820116820180604052508101906145579190618575565b5050509150506145716745a482ca77d891eb60c01b61205f565b614585676b6f810e7c3952b760c01b61205f565b8260e0015181614595919061861f565b816145a09190617832565b915050919050565b600060019050919050565b6145bb61706b565b60006145d167c3a519f525ffe6ec60c01b61205f565b6145e5676514f3d86289847860c01b61205f565b6145f9678c5b97d64190df6e60c01b61205f565b6146326040518060600160405280602f8152602001619666602f91398661ffff1688600281111561462d5761462c617f50565b5b614405565b61464667d89bc3071fab391860c01b61205f565b61465a671464bffd7c86a5b160c01b61205f565b61467d6040518060600160405280603581526020016195fc603591398851613598565b6146916796b087a6d967ad5560c01b61205f565b5b6000600160009054906101000a900473ffffffffffffffffffffffffffffffffffffffff1673ffffffffffffffffffffffffffffffffffffffff16637c21ce148a6040518263ffffffff1660e01b81526004016146ef919061745e565b61018060405180830381865afa15801561470d573d6000803e3d6000fd5b505050506040513d601f19601f8201168201806040525081019061473191906176c6565b90506148206040518060800160405280604781526020016195b5604791398761ffff1687600160009054906101000a900473ffffffffffffffffffffffffffffffffffffffff1673ffffffffffffffffffffffffffffffffffffffff1663b2d4fcad8d8c61ffff16815181106147aa576147a9618247565b5b6020026020010151604001516040518263ffffffff1660e01b81526004016147d2919061745e565b610160604051808303816000875af11580156147f2573d6000803e3d6000fd5b505050506040513d601f19601f8201168201806040525081019061481691906187d2565b6101200151616a0b565b614864604051806060016040528060388152602001618dc660389139898861ffff168151811061485357614852618247565b5b602002602001015160200151613598565b600084156149195760026000836000015173ffffffffffffffffffffffffffffffffffffffff1673ffffffffffffffffffffffffffffffffffffffff16815260200190815260200160002060008a8961ffff16815181106148c8576148c7618247565b5b60200260200101516000015173ffffffffffffffffffffffffffffffffffffffff1673ffffffffffffffffffffffffffffffffffffffff1681526020019081526020016000206000015490506149c2565b60026000836040015173ffffffffffffffffffffffffffffffffffffffff1673ffffffffffffffffffffffffffffffffffffffff16815260200190815260200160002060008a8961ffff168151811061497557614974618247565b5b60200260200101516000015173ffffffffffffffffffffffffffffffffffffffff1673ffffffffffffffffffffffffffffffffffffffff1681526020019081526020016000206000015490505b6149e46040518060600160405280602a81526020016194f6602a913982613598565b614a1860405180606001604052806023815260200161939b60239139896002811115614a1357614a12617f50565b5b613598565b614a4260405180606001604052806035815260200161963160359139614a3d8a616aad565b613598565b614b3d60405180606001604052806021815260200161921c6021913987600160009054906101000a900473ffffffffffffffffffffffffffffffffffffffff1673ffffffffffffffffffffffffffffffffffffffff1663b2d4fcad8d8c61ffff1681518110614ab457614ab3618247565b5b6020026020010151604001516040518263ffffffff1660e01b8152600401614adc919061745e565b610160604051808303816000875af1158015614afc573d6000803e3d6000fd5b505050506040513d601f19601f82011682018060405250810190614b2091906187d2565b6101200151614b2e8c616aad565b614b3891906179bc565b614405565b600160009054906101000a900473ffffffffffffffffffffffffffffffffffffffff1673ffffffffffffffffffffffffffffffffffffffff1663b2d4fcad8a8961ffff1681518110614b9257614b91618247565b5b6020026020010151604001516040518263ffffffff1660e01b8152600401614bba919061745e565b610160604051808303816000875af1158015614bda573d6000803e3d6000fd5b505050506040513d601f19601f82011682018060405250810190614bfe91906187d2565b6101200151614c0c89616aad565b614c1691906179bc565b86118015614c465750888761ffff1681518110614c3657614c35618247565b5b6020026020010151602001518110155b15614c9857888761ffff1681518110614c6257614c61618247565b5b60200260200101519350614c976040518060600160405280603d815260200161900b603d913985602001518660000151616c9a565b5b8680614ca390618276565b975050505060008260200151148015614cc057508461ffff168751115b61469257614cd8679883ed857d557e6f60c01b61205f565b614cec67ccfdfbb3ee2bef2260c01b61205f565b818591509150965096945050505050565b614d958282604051602401614d13929190618800565b6040516020818303038152906040527f319af333000000000000000000000000000000000000000000000000000000007bffffffffffffffffffffffffffffffffffffffffffffffffffffffff19166020820180517bffffffffffffffffffffffffffffffffffffffffffffffffffffffff83818316178352505050506143e4565b5050565b6000919050565b6000614db6671594787769b3040d60c01b61205f565b614dca6773ee9a758ec3b45c60c01b61205f565b614dde67e73c1893e2a10c8360c01b61205f565b6000600160009054906101000a900473ffffffffffffffffffffffffffffffffffffffff1673ffffffffffffffffffffffffffffffffffffffff16637c21ce14866040518263ffffffff1660e01b8152600401614e3b919061745e565b61018060405180830381865afa158015614e59573d6000803e3d6000fd5b505050506040513d601f19601f82011682018060405250810190614e7d91906176c6565b9050614e93670d599980ccde4dff60c01b61205f565b614ea7674b4d89095e6c0c0160c01b61205f565b6000614ebd67af7ee47d7351901c60c01b61205f565b614ed16720a691a51290914e60c01b61205f565b6000614ee7676ed32d5099f8be7e60c01b61205f565b614efb679ae2adc950f4ab2260c01b61205f565b8415614f5057614f1567e55e633fa642b27860c01b61205f565b614f2967cc406d9d13d1703360c01b61205f565b82600001519150614f446730943a9f54033af960c01b61205f565b82604001519050614f9b565b614f64677d5ba90264d8b8ac60c01b61205f565b614f7867bb731e8167cd611460c01b61205f565b82604001519150614f9367ee56211029f1724460c01b61205f565b826000015190505b614faf67cd46e70695a7902860c01b61205f565b614fc367aa920e5721d3f37760c01b61205f565b614fd38284610100015188616d39565b614fe7677e43eb7c50ca11a660c01b61205f565b614ffb67e4dfbfd51f03ee9760c01b61205f565b6000615011679e00991b7bfc146260c01b61205f565b615025672080bebe4b28556d60c01b61205f565b600061503b67bb04d08936e0c95860c01b61205f565b61504f6763fa1002bc96dafc60c01b61205f565b600060149054906101000a900460ff16801561506b5750600082145b801561508d575060008173ffffffffffffffffffffffffffffffffffffffff16145b15615109576150a66727f23a701f2bac5e60c01b61205f565b6150ba67a8d8865c08a09e9160c01b61205f565b6150ce67fc91734acdf9e75560c01b61205f565b6040517f08c379a0000000000000000000000000000000000000000000000000000000008152600401615100906188c8565b60405180910390fd5b61511d67be74ebe76206530960c01b61205f565b61513167f59bb9f73a964dde60c01b61205f565b61514567acd8f0cc18c1550460c01b61205f565b6151846040518060400160405280601c81526020017f73776170202d2061646472657373206d73672e73656e646572203a200000000081525033614cfd565b61519867d89b7e6b631b45db60c01b61205f565b6151ac67b9eb2a9069f4cccd60c01b61205f565b6151eb6040518060400160405280601681526020017f73776170202d20616464726573732074686973203a200000000000000000000081525030614cfd565b6151ff6767767164f1ab2cc060c01b61205f565b61521367ff2171175db9bff860c01b61205f565b61523a60405180606001604052806022815260200161908360229139866101000151614cfd565b61524e67d3ae0abd2353128e60c01b61205f565b615262671f2f7d2678f8a4c460c01b61205f565b6152fd604051806060016040528060238152602001618e2a602391398573ffffffffffffffffffffffffffffffffffffffff166370a08231336040518263ffffffff1660e01b81526004016152b79190617342565b602060405180830381865afa1580156152d4573d6000803e3d6000fd5b505050506040513d601f19601f820116820180604052508101906152f89190617e93565b613598565b615311675c13cd8fd62ffe9660c01b61205f565b6153256709ee09042c43c30e60c01b61205f565b6153c0604051806060016040528060268152602001619695602691398573ffffffffffffffffffffffffffffffffffffffff166370a08231306040518263ffffffff1660e01b815260040161537a9190617342565b602060405180830381865afa158015615397573d6000803e3d6000fd5b505050506040513d601f19601f820116820180604052508101906153bb9190617e93565b613598565b6153d467ed2fa0084607f0c260c01b61205f565b6153e867fa4aef5881eccdb360c01b61205f565b6154886040518060600160405280602981526020016197c5602991398573ffffffffffffffffffffffffffffffffffffffff166370a082318861010001516040518263ffffffff1660e01b81526004016154429190617342565b602060405180830381865afa15801561545f573d6000803e3d6000fd5b505050506040513d601f19601f820116820180604052508101906154839190617e93565b613598565b61549c67c88613b30301f1ee60c01b61205f565b6154b067c2a3c912d771cd2f60c01b61205f565b615552604051806060016040528060338152602001618d93603391398573ffffffffffffffffffffffffffffffffffffffff1663dd62ed3e338961010001516040518363ffffffff1660e01b815260040161550c9291906188e8565b602060405180830381865afa158015615529573d6000803e3d6000fd5b505050506040513d601f19601f8201168201806040525081019061554d9190617e93565b613598565b615566679850f6f9285384bb60c01b61205f565b61557a67baa1d9520efe148960c01b61205f565b61561c6040518060600160405280603581526020016193fd603591398573ffffffffffffffffffffffffffffffffffffffff1663dd62ed3e308961010001516040518363ffffffff1660e01b81526004016155d69291906188e8565b602060405180830381865afa1580156155f3573d6000803e3d6000fd5b505050506040513d601f19601f820116820180604052508101906156179190617e93565b613598565b615630676afd520358cb66bd60c01b61205f565b61564467b73899f42f442e9a60c01b61205f565b60006040518061010001604052808673ffffffffffffffffffffffffffffffffffffffff1681526020018573ffffffffffffffffffffffffffffffffffffffff168152602001610bb862ffffff1681526020013073ffffffffffffffffffffffffffffffffffffffff168152602001600f426156c091906179bc565b81526020018a81526020018481526020018373ffffffffffffffffffffffffffffffffffffffff168152509050615701672ed5a0037675e46160c01b61205f565b85610100015173ffffffffffffffffffffffffffffffffffffffff1663414bf389826040518263ffffffff1660e01b815260040161573f91906189ef565b6020604051808303816000875af115801561575e573d6000803e3d6000fd5b505050506040513d601f19601f820116820180604052508101906157829190617e93565b965061579867ca345b4b1ee4382a60c01b61205f565b6157ac67ffb83c60473aa70f60c01b61205f565b5050505050509392505050565b6157cd6737b4f626971af90560c01b61205f565b6157e1670e1550cf3e68fdec60c01b61205f565b6157f5678208275b02c0dbb660c01b61205f565b6158186040518060600160405280603f81526020016196bb603f91398686614405565b61582c67a068edfb2ec64a5160c01b61205f565b61584067b50b7eeab407ee9b60c01b61205f565b615863604051806080016040528060478152602001618ec6604791398484614405565b615877676ce3060a4dad4a9360c01b61205f565b61588b6776b950abffcde26c60c01b61205f565b6000600160009054906101000a900473ffffffffffffffffffffffffffffffffffffffff1673ffffffffffffffffffffffffffffffffffffffff16637c21ce14886040518263ffffffff1660e01b81526004016158e8919061745e565b61018060405180830381865afa158015615906573d6000803e3d6000fd5b505050506040513d601f19601f8201168201806040525081019061592a91906176c6565b90506159406727ed9df2ef4502cf60c01b61205f565b615954670c1df2711fc5fb9160c01b61205f565b60005b8260000151518161ffff1610156167255761597c678425b050e8f0239460c01b61205f565b61599067728267952ae4b9c060c01b61205f565b600083600001518261ffff16815181106159ad576159ac618247565b5b60200260200101516020015114616028576159d2677d1de61140e1297a60c01b61205f565b6159e6676314e0ca89d65c0360c01b61205f565b6159fa67e443172a43329f7360c01b61205f565b600083600001518261ffff1681518110615a1757615a16618247565b5b6020026020010151600001519050615a39673581d6ee40dd7ead60c01b61205f565b615a4d675c3ba1730928daa360c01b61205f565b600084600001518361ffff1681518110615a6a57615a69618247565b5b6020026020010151602001519050615a8c672ea595f01580969060c01b61205f565b615aa067468766cfa922723860c01b61205f565b615b456040518060800160405280604b8152602001619520604b913960026000876000015173ffffffffffffffffffffffffffffffffffffffff1673ffffffffffffffffffffffffffffffffffffffff16815260200190815260200160002060008573ffffffffffffffffffffffffffffffffffffffff1673ffffffffffffffffffffffffffffffffffffffff16815260200190815260200160002060000154613598565b615b5967a5a906c8c59390d760c01b61205f565b615b6d677fa68abc83ab13c460c01b61205f565b615c126040518060800160405280604b8152602001618f34604b913960026000876040015173ffffffffffffffffffffffffffffffffffffffff1673ffffffffffffffffffffffffffffffffffffffff16815260200190815260200160002060008573ffffffffffffffffffffffffffffffffffffffff1673ffffffffffffffffffffffffffffffffffffffff16815260200190815260200160002060000154613598565b615c266706e73d0976d0705e60c01b61205f565b615c3a671c686df9319ee1a260c01b61205f565b6000898883615c499190618a0b565b615c539190618a4d565b9050615c696707fdd7c88737dceb60c01b61205f565b615c7d677ebb6e156a57a81e60c01b61205f565b60008a8884615c8c9190618a0b565b615c969190618a4d565b9050615cac679ddc12bef5db4eb160c01b61205f565b8082615cb891906179bc565b60026000886000015173ffffffffffffffffffffffffffffffffffffffff1673ffffffffffffffffffffffffffffffffffffffff16815260200190815260200160002060008673ffffffffffffffffffffffffffffffffffffffff1673ffffffffffffffffffffffffffffffffffffffff1681526020019081526020016000206000016000828254615d4a9190617832565b92505081905550615d65678614aa2bdea55f7260c01b61205f565b8082615d7191906179bc565b60026000886040015173ffffffffffffffffffffffffffffffffffffffff1673ffffffffffffffffffffffffffffffffffffffff16815260200190815260200160002060008673ffffffffffffffffffffffffffffffffffffffff1673ffffffffffffffffffffffffffffffffffffffff1681526020019081526020016000206000016000828254615e0391906179bc565b92505081905550615e1e679be662078d1e7edd60c01b61205f565b615e3267d4644d11363bd03660c01b61205f565b615ed76040518060800160405280604a8152602001619432604a913960026000896000015173ffffffffffffffffffffffffffffffffffffffff1673ffffffffffffffffffffffffffffffffffffffff16815260200190815260200160002060008773ffffffffffffffffffffffffffffffffffffffff1673ffffffffffffffffffffffffffffffffffffffff16815260200190815260200160002060000154613598565b615eeb67110f25c4b6bcfbf860c01b61205f565b615eff670711cb11a08680b160c01b61205f565b615fa46040518060800160405280604a81526020016190a5604a913960026000896040015173ffffffffffffffffffffffffffffffffffffffff1673ffffffffffffffffffffffffffffffffffffffff16815260200190815260200160002060008773ffffffffffffffffffffffffffffffffffffffff1673ffffffffffffffffffffffffffffffffffffffff16815260200190815260200160002060000154613598565b615fb86793fe0b4e4205662b60c01b61205f565b615fcc6716349f27bdc391b860c01b61205f565b8373ffffffffffffffffffffffffffffffffffffffff168c7f5dc08c9a9eec325c07a09445ba05b47988774fb40b5fccabea813c9511d5406484844260405161601793929190618a7e565b60405180910390a35050505061603d565b61603c67c6f57c5060e752b060c01b61205f565b5b616051671aa19eedb896169660c01b61205f565b6160656726c503d2dde5094f60c01b61205f565b600083602001518261ffff168151811061608257616081618247565b5b602002602001015160200151146166fd576160a767321e87e8bc4f136d60c01b61205f565b6160bb6748e36fde2b09116760c01b61205f565b6160cf67a49d6e8c963c86a360c01b61205f565b600083602001518261ffff16815181106160ec576160eb618247565b5b602002602001015160000151905061610e673d80e9ac09deb05e60c01b61205f565b61612267ac0b55c90d9807f260c01b61205f565b600084602001518361ffff168151811061613f5761613e618247565b5b602002602001015160200151905061616167038245ca0aa6922b60c01b61205f565b616175672493ce0b3bf883d160c01b61205f565b61621a6040518060800160405280604d8152602001618e79604d913960026000876000015173ffffffffffffffffffffffffffffffffffffffff1673ffffffffffffffffffffffffffffffffffffffff16815260200190815260200160002060008573ffffffffffffffffffffffffffffffffffffffff1673ffffffffffffffffffffffffffffffffffffffff16815260200190815260200160002060000154613598565b61622e67228dabd8064ca0b160c01b61205f565b6162426728d4bf56d6e17fdc60c01b61205f565b6162e76040518060800160405280604b81526020016191d1604b913960026000876040015173ffffffffffffffffffffffffffffffffffffffff1673ffffffffffffffffffffffffffffffffffffffff16815260200190815260200160002060008573ffffffffffffffffffffffffffffffffffffffff1673ffffffffffffffffffffffffffffffffffffffff16815260200190815260200160002060000154613598565b6162fb6763780042fdaa629860c01b61205f565b61630f6777a60ca66aef4b3760c01b61205f565b600088888361631e9190618a0b565b6163289190618a4d565b905061633e67ca8e66ad3094b14360c01b61205f565b61635267085d6ba0bf0abc8a60c01b61205f565b60008988846163619190618a0b565b61636b9190618a4d565b9050616381673895776879f53ab760c01b61205f565b808261638d91906179bc565b60026000886040015173ffffffffffffffffffffffffffffffffffffffff1673ffffffffffffffffffffffffffffffffffffffff16815260200190815260200160002060008673ffffffffffffffffffffffffffffffffffffffff1673ffffffffffffffffffffffffffffffffffffffff168152602001908152602001600020600001600082825461641f9190617832565b9250508190555061643a67a1a2d8abd6c27ed160c01b61205f565b808261644691906179bc565b60026000886000015173ffffffffffffffffffffffffffffffffffffffff1673ffffffffffffffffffffffffffffffffffffffff16815260200190815260200160002060008673ffffffffffffffffffffffffffffffffffffffff1673ffffffffffffffffffffffffffffffffffffffff16815260200190815260200160002060000160008282546164d891906179bc565b925050819055506164f3679bb908a688ce6e2460c01b61205f565b616507673d47d881e75fceb560c01b61205f565b6165ac6040518060800160405280604a8152602001619351604a913960026000896000015173ffffffffffffffffffffffffffffffffffffffff1673ffffffffffffffffffffffffffffffffffffffff16815260200190815260200160002060008773ffffffffffffffffffffffffffffffffffffffff1673ffffffffffffffffffffffffffffffffffffffff16815260200190815260200160002060000154613598565b6165c0675cf1f1f8726a588860c01b61205f565b6165d46701cc21dfa893d86b60c01b61205f565b6166796040518060800160405280604a815260200161956b604a913960026000896040015173ffffffffffffffffffffffffffffffffffffffff1673ffffffffffffffffffffffffffffffffffffffff16815260200190815260200160002060008773ffffffffffffffffffffffffffffffffffffffff1673ffffffffffffffffffffffffffffffffffffffff16815260200190815260200160002060000154613598565b61668d675647e6a02f47233b60c01b61205f565b6166a167bfcd6b8c43499b4d60c01b61205f565b8373ffffffffffffffffffffffffffffffffffffffff168c7f5dc08c9a9eec325c07a09445ba05b47988774fb40b5fccabea813c9511d540648484426040516166ec93929190618a7e565b60405180910390a350505050616712565b61671167591a26ba0100125560c01b61205f565b5b808061671d90618276565b915050615957565b5050505050505050565b61674367ae184e0b861c7f8e60c01b61205f565b61675767c5e355fafb8e53c760c01b61205f565b61676b679b256b435fc3272f60c01b61205f565b6167a96040518060400160405280601b81526020017f757064617465444341436f6e66696750726f636573736564202d2000000000008152506123b3565b6167bd67e0a66da52d8df1f960c01b61205f565b6167d16733c8a1195319e2db60c01b61205f565b60005b8160000151518161ffff1610156168d5576167f967503916ae226c0c3a60c01b61205f565b61680d674fa5c11ed323c50e60c01b61205f565b600160009054906101000a900473ffffffffffffffffffffffffffffffffffffffff1673ffffffffffffffffffffffffffffffffffffffff166318b8659b83600001518361ffff168151811061686657616865618247565b5b602002602001015160400151426040518363ffffffff1660e01b8152600401616890929190618ab5565b600060405180830381600087803b1580156168aa57600080fd5b505af11580156168be573d6000803e3d6000fd5b5050505080806168cd90618276565b9150506167d4565b5050565b600033905090565b60008373ffffffffffffffffffffffffffffffffffffffff1663dd62ed3e30856040518363ffffffff1660e01b815260040161691e9291906188e8565b602060405180830381865afa15801561693b573d6000803e3d6000fd5b505050506040513d601f19601f8201168201806040525081019061695f9190617e93565b90506169ed8463095ea7b360e01b85858561697a91906179bc565b60405160240161698b929190617e06565b604051602081830303815290604052907bffffffffffffffffffffffffffffffffffffffffffffffffffffffff19166020820180517bffffffffffffffffffffffffffffffffffffffffffffffffffffffff838183161783525050505061431c565b50505050565b6060616a028484600085616e8e565b90509392505050565b616aa784848484604051602401616a259493929190618ade565b6040516020818303038152906040527fa7a87853000000000000000000000000000000000000000000000000000000007bffffffffffffffffffffffffffffffffffffffffffffffffffffffff19166020820180517bffffffffffffffffffffffffffffffffffffffffffffffffffffffff83818316178352505050506143e4565b50505050565b6000616ac367f7c51f0628b783ef60c01b61205f565b616ad767ad68069aa2011e9160c01b61205f565b616aeb67b3dbbde13f8a05a860c01b61205f565b60006002811115616aff57616afe617f50565b5b826002811115616b1257616b11617f50565b5b03616b4957616b2b6781e90cd9705d856060c01b61205f565b616b3f6764011d2f97a8d40460c01b61205f565b610e109050616c6d565b616b5d675e63939e1952463a60c01b61205f565b616b71677f8407c616298c0a60c01b61205f565b60016002811115616b8557616b84617f50565b5b826002811115616b9857616b97617f50565b5b03616bd057616bb16748a78b9b4748fe0460c01b61205f565b616bc5677664957c4519d3d460c01b61205f565b620151809050616c6c565b616be467c1d73489bfecdab360c01b61205f565b616bf867f237970b91ae201b60c01b61205f565b600280811115616c0b57616c0a617f50565b5b826002811115616c1e57616c1d617f50565b5b03616c5657616c37673efe7e4f8d330fc360c01b61205f565b616c4b6750da27d437b5aa0860c01b61205f565b62093a809050616c6b565b616c6a67aafa0001380d587d60c01b61205f565b5b5b5b616c81673cc2236939fd859960c01b61205f565b616c9567bf8d0edeb3a3b01d60c01b61205f565b919050565b616d34838383604051602401616cb293929190618b2a565b6040516020818303038152906040527f1c7ec448000000000000000000000000000000000000000000000000000000007bffffffffffffffffffffffffffffffffffffffffffffffffffffffff19166020820180517bffffffffffffffffffffffffffffffffffffffffffffffffffffffff83818316178352505050506143e4565b505050565b6000808473ffffffffffffffffffffffffffffffffffffffff1663095ea7b360e01b8585604051602401616d6e929190617e06565b604051602081830303815290604052907bffffffffffffffffffffffffffffffffffffffffffffffffffffffff19166020820180517bffffffffffffffffffffffffffffffffffffffffffffffffffffffff8381831617835250505050604051616dd89190618baf565b6000604051808303816000865af19150503d8060008114616e15576040519150601f19603f3d011682016040523d82523d6000602084013e616e1a565b606091505b5091509150818015616e485750600081511480616e47575080806020019051810190616e469190617e2f565b5b5b616e87576040517f08c379a0000000000000000000000000000000000000000000000000000000008152600401616e7e90618c12565b60405180910390fd5b5050505050565b606082471015616ed3576040517f08c379a0000000000000000000000000000000000000000000000000000000008152600401616eca90618ca4565b60405180910390fd5b6000808673ffffffffffffffffffffffffffffffffffffffff168587604051616efc9190618baf565b60006040518083038185875af1925050503d8060008114616f39576040519150601f19603f3d011682016040523d82523d6000602084013e616f3e565b606091505b5091509150616f4f87838387616f5b565b92505050949350505050565b60608315616fbd576000835103616fb557616f7585616fd0565b616fb4576040517f08c379a0000000000000000000000000000000000000000000000000000000008152600401616fab90618d10565b60405180910390fd5b5b829050616fc8565b616fc78383616ff3565b5b949350505050565b6000808273ffffffffffffffffffffffffffffffffffffffff163b119050919050565b6000825111156170065781518083602001fd5b806040517f08c379a000000000000000000000000000000000000000000000000000000000815260040161703a9190617f2e565b60405180910390fd5b6040518060800160405280606081526020016060815260200160008152602001600081525090565b6040518060600160405280600073ffffffffffffffffffffffffffffffffffffffff16815260200160008152602001600081525090565b604051806040016040528060008152602001600081525090565b6040518060e00160405280600081526020016170d661715d565b8152602001600073ffffffffffffffffffffffffffffffffffffffff168152602001600073ffffffffffffffffffffffffffffffffffffffff168152602001600061ffff168152602001600061ffff1681526020016000151581525090565b6040518060800160405280600081526020016000815260200160008152602001600081525090565b60405180604001604052806002905b606081526020019060019003908161716c5790505090565b600060ff82169050919050565b61719a81617184565b82525050565b60006020820190506171b56000830184617191565b92915050565b6000604051905090565b600080fd5b600080fd5b6000819050919050565b6171e2816171cf565b81146171ed57600080fd5b50565b6000813590506171ff816171d9565b92915050565b6000806040838503121561721c5761721b6171c5565b5b600061722a858286016171f0565b925050602061723b858286016171f0565b9150509250929050565b60006020828403121561725b5761725a6171c5565b5b6000617269848285016171f0565b91505092915050565b60008115159050919050565b61728781617272565b82525050565b60006020820190506172a2600083018461727e565b92915050565b6172b181617184565b81146172bc57600080fd5b50565b6000813590506172ce816172a8565b92915050565b6000602082840312156172ea576172e96171c5565b5b60006172f8848285016172bf565b91505092915050565b600073ffffffffffffffffffffffffffffffffffffffff82169050919050565b600061732c82617301565b9050919050565b61733c81617321565b82525050565b60006020820190506173576000830184617333565b92915050565b61736681617321565b811461737157600080fd5b50565b6000813590506173838161735d565b92915050565b600080604083850312156173a05761739f6171c5565b5b60006173ae85828601617374565b92505060206173bf85828601617374565b9150509250929050565b6173d2816171cf565b82525050565b6040820160008201516173ee60008501826173c9565b50602082015161740160208501826173c9565b50505050565b600060408201905061741c60008301846173d8565b92915050565b600060208284031215617438576174376171c5565b5b600061744684828501617374565b91505092915050565b617458816171cf565b82525050565b6000602082019050617473600083018461744f565b92915050565b600080fd5b6000601f19601f8301169050919050565b7f4e487b7100000000000000000000000000000000000000000000000000000000600052604160045260246000fd5b6174c78261747e565b810181811067ffffffffffffffff821117156174e6576174e561748f565b5b80604052505050565b60006174f96171bb565b905061750582826174be565b919050565b6000815190506175198161735d565b92915050565b60006bffffffffffffffffffffffff82169050919050565b6175408161751f565b811461754b57600080fd5b50565b60008151905061755d81617537565b92915050565b61756c81617272565b811461757757600080fd5b50565b60008151905061758981617563565b92915050565b60008151905061759e816171d9565b92915050565b600061018082840312156175bb576175ba617479565b5b6175c66101806174ef565b905060006175d68482850161750a565b60008301525060206175ea8482850161754e565b60208301525060406175fe8482850161750a565b60408301525060606176128482850161754e565b60608301525060806176268482850161750a565b60808301525060a061763a8482850161750a565b60a08301525060c061764e8482850161757a565b60c08301525060e06176628482850161758f565b60e0830152506101006176778482850161750a565b6101008301525061012061768d8482850161758f565b610120830152506101406176a38482850161750a565b610140830152506101606176b98482850161750a565b6101608301525092915050565b600061018082840312156176dd576176dc6171c5565b5b60006176eb848285016175a4565b91505092915050565b600082825260208201905092915050565b7f576974686472617720616d6f756e742073686f756c64206265203e2030000000600082015250565b600061773b601d836176f4565b915061774682617705565b602082019050919050565b6000602082019050818103600083015261776a8161772e565b9050919050565b7f416d6f756e7420746f2077697468647261772073686f756c64206265203c207960008201527f6f7572206163636f756e742062616c616e636500000000000000000000000000602082015250565b60006177cd6033836176f4565b91506177d882617771565b604082019050919050565b600060208201905081810360008301526177fc816177c0565b9050919050565b7f4e487b7100000000000000000000000000000000000000000000000000000000600052601160045260246000fd5b600061783d826171cf565b9150617848836171cf565b92508282039050818111156178605761785f617803565b5b92915050565b600060808201905061787b6000830187617333565b6178886020830186617333565b617895604083018561744f565b6178a2606083018461744f565b95945050505050565b600061ffff82169050919050565b60006178c4826178ab565b91506178cf836178ab565b9250828201905061ffff8111156178e9576178e8617803565b5b92915050565b600060c082019050617904600083018961744f565b617911602083018861744f565b61791e604083018761744f565b61792b606083018661744f565b617938608083018561744f565b61794560a083018461727e565b979650505050505050565b7f4465706f73697420616d6f756e742073686f756c64206265203e203000000000600082015250565b6000617986601c836176f4565b915061799182617950565b602082019050919050565b600060208201905081810360008301526179b581617979565b9050919050565b60006179c7826171cf565b91506179d2836171cf565b92508282019050808211156179ea576179e9617803565b5b92915050565b7f546f6b656e20616464726573732073686f756c64206e6f742062652030000000600082015250565b6000617a26601d836176f4565b9150617a31826179f0565b602082019050919050565b60006020820190508181036000830152617a5581617a19565b9050919050565b7f5573657220616464726573732073686f756c64206e6f74206265203000000000600082015250565b6000617a92601c836176f4565b9150617a9d82617a5c565b602082019050919050565b60006020820190508181036000830152617ac181617a85565b9050919050565b7f4f776e61626c653a206e6577206f776e657220697320746865207a65726f206160008201527f6464726573730000000000000000000000000000000000000000000000000000602082015250565b6000617b246026836176f4565b9150617b2f82617ac8565b604082019050919050565b60006020820190508181036000830152617b5381617b17565b9050919050565b600060208284031215617b7057617b6f6171c5565b5b6000617b7e8482850161750a565b91505092915050565b600060208284031215617b9d57617b9c617479565b5b617ba760206174ef565b90506000617bb78482850161758f565b60008301525092915050565b60006fffffffffffffffffffffffffffffffff82169050919050565b617be881617bc3565b8114617bf357600080fd5b50565b600081519050617c0581617bdf565b92915050565b600064ffffffffff82169050919050565b617c2581617c0b565b8114617c3057600080fd5b50565b600081519050617c4281617c1c565b92915050565b617c51816178ab565b8114617c5c57600080fd5b50565b600081519050617c6e81617c48565b92915050565b60006101e08284031215617c8b57617c8a617479565b5b617c966101e06174ef565b90506000617ca684828501617b87565b6000830152506020617cba84828501617bf6565b6020830152506040617cce84828501617bf6565b6040830152506060617ce284828501617bf6565b6060830152506080617cf684828501617bf6565b60808301525060a0617d0a84828501617bf6565b60a08301525060c0617d1e84828501617c33565b60c08301525060e0617d3284828501617c5f565b60e083015250610100617d478482850161750a565b61010083015250610120617d5d8482850161750a565b61012083015250610140617d738482850161750a565b61014083015250610160617d898482850161750a565b61016083015250610180617d9f84828501617bf6565b610180830152506101a0617db584828501617bf6565b6101a0830152506101c0617dcb84828501617bf6565b6101c08301525092915050565b60006101e08284031215617def57617dee6171c5565b5b6000617dfd84828501617c74565b91505092915050565b6000604082019050617e1b6000830185617333565b617e28602083018461744f565b9392505050565b600060208284031215617e4557617e446171c5565b5b6000617e538482850161757a565b91505092915050565b6000606082019050617e716000830186617333565b617e7e602083018561744f565b617e8b6040830184617333565b949350505050565b600060208284031215617ea957617ea86171c5565b5b6000617eb78482850161758f565b91505092915050565b600081519050919050565b60005b83811015617ee9578082015181840152602081019050617ece565b60008484015250505050565b6000617f0082617ec0565b617f0a81856176f4565b9350617f1a818560208601617ecb565b617f238161747e565b840191505092915050565b60006020820190508181036000830152617f488184617ef5565b905092915050565b7f4e487b7100000000000000000000000000000000000000000000000000000000600052602160045260246000fd5b60038110617f9057617f8f617f50565b5b50565b6000819050617fa182617f7f565b919050565b6000617fb182617f93565b9050919050565b617fc181617fa6565b82525050565b6000606082019050617fdc600083018661744f565b617fe9602083018561744f565b617ff66040830184617fb8565b949350505050565b600080fd5b600067ffffffffffffffff82111561801e5761801d61748f565b5b602082029050919050565b600080fd5b600067ffffffffffffffff8211156180495761804861748f565b5b602082029050602081019050919050565b6000606082840312156180705761806f617479565b5b61807a60606174ef565b9050600061808a8482850161750a565b600083015250602061809e8482850161758f565b60208301525060406180b28482850161758f565b60408301525092915050565b60006180d16180cc8461802e565b6174ef565b905080838252602082019050606084028301858111156180f4576180f3618029565b5b835b8181101561811d5780618109888261805a565b8452602084019350506060810190506180f6565b5050509392505050565b600082601f83011261813c5761813b617ffe565b5b815161814c8482602086016180be565b91505092915050565b600061816861816384618003565b6174ef565b9050806020840283018581111561818257618181618029565b5b835b818110156181c957805167ffffffffffffffff8111156181a7576181a6617ffe565b5b8086016181b48982618127565b85526020850194505050602081019050618184565b5050509392505050565b600082601f8301126181e8576181e7617ffe565b5b60026181f5848285618155565b91505092915050565b600060208284031215618214576182136171c5565b5b600082015167ffffffffffffffff811115618232576182316171ca565b5b61823e848285016181d3565b91505092915050565b7f4e487b7100000000000000000000000000000000000000000000000000000000600052603260045260246000fd5b6000618281826178ab565b915061ffff820361829557618294617803565b5b600182019050919050565b600060408201905081810360008301526182ba8185617ef5565b90506182c9602083018461744f565b9392505050565b600060408201905081810360008301526182ea8185617ef5565b90506182f9602083018461727e565b9392505050565b7f4f776e61626c653a2063616c6c6572206973206e6f7420746865206f776e6572600082015250565b60006183366020836176f4565b915061834182618300565b602082019050919050565b6000602082019050818103600083015261836581618329565b9050919050565b60006060820190506183816000830186617333565b61838e6020830185617333565b61839b604083018461744f565b949350505050565b6000819050919050565b6000819050919050565b60006183d26183cd6183c8846183a3565b6183ad565b6178ab565b9050919050565b6183e2816183b7565b82525050565b60006080820190506183fd6000830187617333565b61840a602083018661744f565b6184176040830185617333565b61842460608301846183d9565b95945050505050565b7f5361666545524332303a204552433230206f7065726174696f6e20646964206e60008201527f6f74207375636365656400000000000000000000000000000000000000000000602082015250565b6000618489602a836176f4565b91506184948261842d565b604082019050919050565b600060208201905081810360008301526184b88161847c565b9050919050565b600060608201905081810360008301526184d98186617ef5565b90506184e8602083018561744f565b6184f5604083018461744f565b949350505050565b600069ffffffffffffffffffff82169050919050565b61851c816184fd565b811461852757600080fd5b50565b60008151905061853981618513565b92915050565b6000819050919050565b6185528161853f565b811461855d57600080fd5b50565b60008151905061856f81618549565b92915050565b600080600080600060a08688031215618591576185906171c5565b5b600061859f8882890161852a565b95505060206185b088828901618560565b94505060406185c18882890161758f565b93505060606185d28882890161758f565b92505060806185e38882890161852a565b9150509295509295909350565b7f4e487b7100000000000000000000000000000000000000000000000000000000600052601260045260246000fd5b600061862a826171cf565b9150618635836171cf565b925082618645576186446185f0565b5b828206905092915050565b60008151905061865f816172a8565b92915050565b600063ffffffff82169050919050565b61867e81618665565b811461868957600080fd5b50565b60008151905061869b81618675565b92915050565b600381106186ae57600080fd5b50565b6000815190506186c0816186a1565b92915050565b600061016082840312156186dd576186dc617479565b5b6186e86101606174ef565b905060006186f88482850161758f565b600083015250602061870c8482850161758f565b60208301525060406187208482850161757a565b60408301525060606187348482850161758f565b60608301525060806187488482850161758f565b60808301525060a061875c8482850161758f565b60a08301525060c061877084828501618650565b60c08301525060e06187848482850161868c565b60e083015250610100618799848285016186b1565b610100830152506101206187af8482850161758f565b610120830152506101406187c58482850161750a565b6101408301525092915050565b600061016082840312156187e9576187e86171c5565b5b60006187f7848285016186c6565b91505092915050565b6000604082019050818103600083015261881a8185617ef5565b90506188296020830184617333565b9392505050565b7f496e2070726f647574696f6e206d6f64652c20796f752073686f756c6420657860008201527f706c696369746c792073657420736c697070616765206c696d69747320666f7260208201527f20756e6973776170207377617000000000000000000000000000000000000000604082015250565b60006188b2604d836176f4565b91506188bd82618830565b606082019050919050565b600060208201905081810360008301526188e1816188a5565b9050919050565b60006040820190506188fd6000830185617333565b61890a6020830184617333565b9392505050565b61891a81617321565b82525050565b600062ffffff82169050919050565b61893881618920565b82525050565b61894781617301565b82525050565b610100820160008201516189646000850182618911565b5060208201516189776020850182618911565b50604082015161898a604085018261892f565b50606082015161899d6060850182618911565b5060808201516189b060808501826173c9565b5060a08201516189c360a08501826173c9565b5060c08201516189d660c08501826173c9565b5060e08201516189e960e085018261893e565b50505050565b600061010082019050618a05600083018461894d565b92915050565b6000618a16826171cf565b9150618a21836171cf565b9250828202618a2f816171cf565b91508282048414831517618a4657618a45617803565b5b5092915050565b6000618a58826171cf565b9150618a63836171cf565b925082618a7357618a726185f0565b5b828204905092915050565b6000606082019050618a93600083018661744f565b618aa0602083018561744f565b618aad604083018461744f565b949350505050565b6000604082019050618aca600083018561744f565b618ad7602083018461744f565b9392505050565b60006080820190508181036000830152618af88187617ef5565b9050618b07602083018661744f565b618b14604083018561744f565b618b21606083018461744f565b95945050505050565b60006060820190508181036000830152618b448186617ef5565b9050618b53602083018561744f565b618b606040830184617333565b949350505050565b600081519050919050565b600081905092915050565b6000618b8982618b68565b618b938185618b73565b9350618ba3818560208601617ecb565b80840191505092915050565b6000618bbb8284618b7e565b915081905092915050565b7f5341000000000000000000000000000000000000000000000000000000000000600082015250565b6000618bfc6002836176f4565b9150618c0782618bc6565b602082019050919050565b60006020820190508181036000830152618c2b81618bef565b9050919050565b7f416464726573733a20696e73756666696369656e742062616c616e636520666f60008201527f722063616c6c0000000000000000000000000000000000000000000000000000602082015250565b6000618c8e6026836176f4565b9150618c9982618c32565b604082019050919050565b60006020820190508181036000830152618cbd81618c81565b9050919050565b7f416464726573733a2063616c6c20746f206e6f6e2d636f6e7472616374000000600082015250565b6000618cfa601d836176f4565b9150618d0582618cc4565b602082019050919050565b60006020820190508181036000830152618d2981618ced565b905091905056fe676574444341456e7472696573546f50726f63657373202d20637074546f74616c42757920257320676574444341456e7472696573546f50726f63657373202d20456e64207768696c65202d206370744275792025732063707453656c6c2025732073776170202d2061746f6b656e20616c6c6f77616e6365206d73672e73656e646572202d3e2073776170726f75746572203a206765744e6578745365676d656e74456e747279202d203220496e205768696c65207365676d656e7420656e74727920616d6f756e74202573676574444341456e7472696573546f50726f63657373202d2070726f63566172732e6370744275792025732073776170202d2061746f6b656e2062616c616e6365206d73672e73656e646572203a20676574444341456e7472696573546f50726f63657373202d20736567456e7472792e616d6f756e74202573204f54434f72537761705472616e73616374696f6e546f5573657242616c616e6365202d20422d3e2041202d20546f6b656e2062616c616e6365206265666f7265202d20546f6b656e20412025734f54434f72537761705472616e73616374696f6e546f5573657242616c616e6365202d20616d6f756e74466f724f54432025732c20616d6f756e74466f725377617020257320202d2d2d2d2d2d2d2d2d2d2d65786563757465444341204461696c79202d2d2d2d2d2d2d2d2d2d2d4f54434f72537761705472616e73616374696f6e546f5573657242616c616e6365202d20412d3e204220546f6b656e2062616c616e6365206265666f7265202d20546f6b656e2042202573676574444341456e7472696573546f50726f63657373202d206370744275792025732063707453656c6c20257320636f6d70757465444341202d2061746f6b656e2062616c616e63652074686973286164647265737329203a20636f6d70757465444341202d20616d6f756e74466f724f5443203a2025732c20616d6f756e74466f7253776170203a2025736765744e6578745365676d656e74456e747279202d2034205365676d656e7420666f756e64202d20616d6f756e74202573202c206f776e657220257320676574444341456e7472696573546f50726f63657373202d2053656c6c203a20616d6f756e7442757920257320616d6f756e7453656c6c2025732073776170202d2061646472657373206c506169722e73776170526f75746572203a204f54434f72537761705472616e73616374696f6e546f5573657242616c616e6365202d20412d3e204220546f6b656e2062616c616e6365206166746572202d20546f6b656e2042202573676574444341456e7472696573546f50726f63657373202d20736567456e7472792e646361436f6e666967496420257320676574444341456e7472696573546f50726f63657373202d20736567456e7472792e6f776e657220257320676574444341456e7472696573546f50726f63657373202d205374617274206973427579676574444341456e7472696573546f50726f63657373202d20496e207768696c65202d206370744275792025732063707453656c6c202573204765744443414a6f62732066726f6d207061722025732064656c617920257320257320746f6b656e734f54434f72537761705472616e73616374696f6e546f5573657242616c616e6365202d20422d3e204120546f6b656e2062616c616e6365206265666f7265202d20546f6b656e20422025736765744e6578745365676d656e74456e747279202d20332063616c63756c202573676574444341456e7472696573546f50726f63657373202d20427579203a20616d6f756e7442757920257320616d6f756e7453656c6c20257320676574444341456e7472696573546f50726f63657373202d20456e642042757920202d207365676d656e74456e74726965735b305d2e6c656e677468203d3d2063707442757920257320456e64204765744443414a6f6273202d20637074546f74616c42757920257320637074546f74616c53656c6c202573202d2d2d2d2d2d2d2d2d2d2d65786563757465444341205765656b6c79202d2d2d2d2d2d2d2d2d2d2d676574444341456e7472696573546f50726f63657373202d20637074546f74616c42757920257320637074546f74616c53656c6c202573204f54434f72537761705472616e73616374696f6e546f5573657242616c616e6365202d20422d3e204120546f6b656e2062616c616e6365206166746572202d20546f6b656e20412025736765744e6578745365676d656e74456e747279202d2033205f64656c6179203a202573676574444341456e7472696573546f50726f63657373202d204d41585f4443415f4a4f425f5045525f4443415f455845435554494f4e5f43414c4c2025732073776170202d2061746f6b656e20616c6c6f77616e63652074686973286164647265737329202d3e2073776170726f757465723a204f54434f72537761705472616e73616374696f6e546f5573657242616c616e6365202d20412d3e204220546f6b656e2062616c616e6365206166746572202d20546f6b656e2041202573636f6d70757465444341202d20616d6f7574496e203a2025732c20616d6f756e744f7574203a2025732d2d2d2d2d2d2d2d2d2d2d6578656375746544434120486f75726c79202d2d2d2d2d2d2d2d2d2d2d636f6d70757465444341202d2061746f6b656e2062616c616e6365206d73672e73656e646572203a206765744e6578745365676d656e74456e747279202d2033204f776e65722062616c616e6365203a2025734f54434f72537761705472616e73616374696f6e546f5573657242616c616e6365202d20412d3e204220546f6b656e2062616c616e6365206265666f7265202d20546f6b656e20412025734f54434f72537761705472616e73616374696f6e546f5573657242616c616e6365202d20422d3e204120546f6b656e2062616c616e6365206166746572202d20546f6b656e20422025736765744e6578745365676d656e74456e747279202d203220496e205768696c6520637074203a2025732c2074696d655374616d70202573206c61737444434154696d65202573206765744e6578745365676d656e74456e747279202d2031202d207365676d656e74456e74726965732e6c656e677468203a202573206765744e6578745365676d656e74456e747279202d20332067657444656c6179496e5365636f6e64285f64656c617929203a2025736765744e6578745365676d656e74456e747279202d2031202d20637074203a2025732c205f64656c6179203a20257373776170202d2061746f6b656e2062616c616e63652074686973286164647265737329203a204f54434f72537761705472616e73616374696f6e546f5573657242616c616e6365202d20616d6f756e74496e2025732c20616d6f756e744f75742025732020676574444341456e7472696573546f50726f63657373202d20456e64202142757920202d207365676d656e74456e74726965735b315d2e6c656e677468203d3d2063707453656c6c20257320676574444341456e7472696573546f50726f63657373202d20496e207768696c65202d20637074546f74616c42757920257320637074546f74616c53656c6c20257320676574444341456e7472696573546f50726f63657373202d20496e6974207365676d656e7420656e7472696573204255592025732053454c4c20257373776170202d2061746f6b656e2062616c616e6365206c506169722e73776170526f75746572203a20676574444341456e7472696573546f50726f63657373202d20537461727420216973427579a264697066735822122000de59b88dd558f49678aee82cae4df4431d2ea6ad6b55c0e15af18493a2ad8564736f6c63430008130033",
  "linkReferences": {},
  "deployedLinkReferences": {}
}