{
  "_format": "hh-sol-artifact-1",
  "contractName": "DOApp",
  "sourceName": "contracts/DOApp.sol",
  "abi": [
    {
      "inputs": [
        {
          "internalType": "bool",
          "name": "_isProductionMode",
          "type": "bool"
        },
        {
          "internalType": "contract IDataStorage",
          "name": "_dataStorage",
          "type": "address"
        }
      ],
      "stateMutability": "payable",
      "type": "constructor"
    },
    {
      "anonymous": false,
      "inputs": [
        {
          "indexed": true,
          "internalType": "address",
          "name": "previousOwner",
          "type": "address"
        },
        {
          "indexed": true,
          "internalType": "address",
          "name": "newOwner",
          "type": "address"
        }
      ],
      "name": "OwnershipTransferred",
      "type": "event"
    },
    {
      "anonymous": false,
      "inputs": [
        {
          "indexed": true,
          "internalType": "uint256",
          "name": "_pairId",
          "type": "uint256"
        },
        {
          "indexed": false,
          "internalType": "uint256",
          "name": "_amountIn",
          "type": "uint256"
        },
        {
          "indexed": false,
          "internalType": "uint256",
          "name": "_amountOut",
          "type": "uint256"
        },
        {
          "indexed": false,
          "internalType": "uint256",
          "name": "_amountOTC",
          "type": "uint256"
        },
        {
          "indexed": false,
          "internalType": "uint256",
          "name": "_amountSwap",
          "type": "uint256"
        },
        {
          "indexed": false,
          "internalType": "uint256",
          "name": "_timeStamp",
          "type": "uint256"
        },
        {
          "indexed": false,
          "internalType": "bool",
          "name": "hasRemainingJobs",
          "type": "bool"
        }
      ],
      "name": "PairDCAExecutionResult",
      "type": "event"
    },
    {
      "anonymous": false,
      "inputs": [
        {
          "indexed": false,
          "internalType": "address",
          "name": "_sender",
          "type": "address"
        },
        {
          "indexed": true,
          "internalType": "uint256",
          "name": "_pairId",
          "type": "uint256"
        },
        {
          "indexed": false,
          "internalType": "address",
          "name": "token",
          "type": "address"
        },
        {
          "indexed": false,
          "internalType": "uint256",
          "name": "_amount",
          "type": "uint256"
        },
        {
          "indexed": false,
          "internalType": "uint256",
          "name": "_timestamp",
          "type": "uint256"
        }
      ],
      "name": "TokenDeposit",
      "type": "event"
    },
    {
      "anonymous": false,
      "inputs": [
        {
          "indexed": false,
          "internalType": "address",
          "name": "_sender",
          "type": "address"
        },
        {
          "indexed": true,
          "internalType": "uint256",
          "name": "_pairId",
          "type": "uint256"
        },
        {
          "indexed": false,
          "internalType": "address",
          "name": "token",
          "type": "address"
        },
        {
          "indexed": false,
          "internalType": "uint256",
          "name": "_amount",
          "type": "uint256"
        },
        {
          "indexed": false,
          "internalType": "uint256",
          "name": "_timestamp",
          "type": "uint256"
        }
      ],
      "name": "TokenWithdrawal",
      "type": "event"
    },
    {
      "inputs": [],
      "name": "MAX_DCA_SEGMENT_PROCESSED_BY_DCA_EXECUTION_CALL",
      "outputs": [
        {
          "internalType": "uint8",
          "name": "",
          "type": "uint8"
        }
      ],
      "stateMutability": "view",
      "type": "function"
    },
    {
      "inputs": [
        {
          "internalType": "uint256",
          "name": "_pairId",
          "type": "uint256"
        },
        {
          "internalType": "uint256",
          "name": "_amount",
          "type": "uint256"
        }
      ],
      "name": "depositTokenA",
      "outputs": [],
      "stateMutability": "nonpayable",
      "type": "function"
    },
    {
      "inputs": [
        {
          "internalType": "uint256",
          "name": "_pairId",
          "type": "uint256"
        },
        {
          "internalType": "uint256",
          "name": "_amount",
          "type": "uint256"
        }
      ],
      "name": "depositTokenB",
      "outputs": [],
      "stateMutability": "nonpayable",
      "type": "function"
    },
    {
      "inputs": [
        {
          "internalType": "uint256",
          "name": "_pairId",
          "type": "uint256"
        }
      ],
      "name": "executeDCA",
      "outputs": [
        {
          "internalType": "bool",
          "name": "hasRemainingDCAJobs",
          "type": "bool"
        }
      ],
      "stateMutability": "nonpayable",
      "type": "function"
    },
    {
      "inputs": [
        {
          "internalType": "address",
          "name": "_token",
          "type": "address"
        },
        {
          "internalType": "address",
          "name": "_user",
          "type": "address"
        }
      ],
      "name": "getTokenUserBalances",
      "outputs": [
        {
          "components": [
            {
              "internalType": "uint256",
              "name": "balance",
              "type": "uint256"
            },
            {
              "internalType": "uint256",
              "name": "index",
              "type": "uint256"
            }
          ],
          "internalType": "struct DOApp.TokenUserBalance",
          "name": "",
          "type": "tuple"
        }
      ],
      "stateMutability": "view",
      "type": "function"
    },
    {
      "inputs": [],
      "name": "owner",
      "outputs": [
        {
          "internalType": "address",
          "name": "",
          "type": "address"
        }
      ],
      "stateMutability": "view",
      "type": "function"
    },
    {
      "inputs": [],
      "name": "renounceOwnership",
      "outputs": [],
      "stateMutability": "nonpayable",
      "type": "function"
    },
    {
      "inputs": [
        {
          "internalType": "uint8",
          "name": "_newVal",
          "type": "uint8"
        }
      ],
      "name": "setMaxDCAProcessSegmentPerCall",
      "outputs": [],
      "stateMutability": "nonpayable",
      "type": "function"
    },
    {
      "inputs": [
        {
          "internalType": "address",
          "name": "newOwner",
          "type": "address"
        }
      ],
      "name": "transferOwnership",
      "outputs": [],
      "stateMutability": "nonpayable",
      "type": "function"
    },
    {
      "inputs": [
        {
          "internalType": "uint256",
          "name": "_pairId",
          "type": "uint256"
        },
        {
          "internalType": "uint256",
          "name": "_amount",
          "type": "uint256"
        }
      ],
      "name": "withdrawTokenA",
      "outputs": [],
      "stateMutability": "nonpayable",
      "type": "function"
    },
    {
      "inputs": [
        {
          "internalType": "uint256",
          "name": "_pairId",
          "type": "uint256"
        },
        {
          "internalType": "uint256",
          "name": "_amount",
          "type": "uint256"
        }
      ],
      "name": "withdrawTokenB",
      "outputs": [],
      "stateMutability": "nonpayable",
      "type": "function"
    }
  ],
  "bytecode": "0x608060408190526000805460ff60a01b1990811690915560018054909116600160a11b17905562005049388190039081908339810160408190526200004491620000e2565b6200004f3362000092565b6000805460ff60a01b1916600160a01b9315159390930292909217909155600180546001600160a01b0319166001600160a01b0390921691909117905562000130565b600080546001600160a01b038381166001600160a01b0319831681178455604051919092169283917f8be0079c531659141344cd1fd0a4f28419497f9722a3daafe3b4186f6b6457e09190a35050565b60008060408385031215620000f657600080fd5b825180151581146200010757600080fd5b60208401519092506001600160a01b03811681146200012557600080fd5b809150509250929050565b614f0980620001406000396000f3fe608060405234801561001057600080fd5b50600436106100c95760003560e01c8063715018a611610081578063aa2ef4f01161005b578063aa2ef4f01461018d578063be25c259146101bb578063f2fde38b146101ce57600080fd5b8063715018a6146101575780638da5cb5b1461015f578063a2ab51eb1461017a57600080fd5b80631f7d5689116100b25780631f7d56891461010e5780636d9dc389146101315780636db243af1461014457600080fd5b8063099f870f146100ce5780631cda7a7c146100f9575b600080fd5b6001546100e290600160a01b900460ff1681565b60405160ff90911681526020015b60405180910390f35b61010c6101073660046139f8565b6101e1565b005b61012161011c366004613a1a565b61041c565b60405190151581526020016100f0565b61010c61013f366004613a42565b61093f565b61010c6101523660046139f8565b610982565b61010c610b17565b6000546040516001600160a01b0390911681526020016100f0565b61010c6101883660046139f8565b610b2b565b6101a061019b366004613a74565b610d62565b604080518251815260209283015192810192909252016100f0565b61010c6101c93660046139f8565b610e66565b61010c6101dc366004613aad565b611002565b600154604051631f08738560e21b8152600481018490526000916001600160a01b031690637c21ce149060240161018060405180830381865afa15801561022c573d6000803e3d6000fd5b505050506040513d601f19601f820116820180604052508101906102509190613c00565b9050600082116102a75760405162461bcd60e51b815260206004820152601d60248201527f576974686472617720616d6f756e742073686f756c64206265203e203000000060448201526064015b60405180910390fd5b80516001600160a01b031660009081526002602090815260408083203384529091529020548211156103415760405162461bcd60e51b815260206004820152603360248201527f416d6f756e7420746f2077697468647261772073686f756c64206265203c207960448201527f6f7572206163636f756e742062616c616e636500000000000000000000000000606482015260840161029e565b80516001600160a01b0390811660009081526002602081815260408084203380865290835281852060010185905586519095168452918152818320938352929092529081208054849290610396908490613cf4565b909155505060a081015181516103ad919084611092565b80516103c3906001600160a01b03163384611297565b8051604080513381526001600160a01b039092166020830152810183905242606082015283907fb051fa67486d17e04638dfff4d83b75ca9aede58b73679b06e004b28f90262ed906080015b60405180910390a2505050565b600154604051631f08738560e21b8152600481018390526000918291829182916001600160a01b0390911690637c21ce149060240161018060405180830381865afa15801561046f573d6000803e3d6000fd5b505050506040513d601f19601f820116820180604052508101906104939190613c00565b90506104c06040518060800160405280606081526020016060815260200160008152602001600081525090565b600154600160a01b900460ff1667ffffffffffffffff8111156104e5576104e5613aca565b60405190808252806020026020018201604052801561054357816020015b610530604051806060016040528060006001600160a01b0316815260200160008152602001600081525090565b8152602001906001900390816105035790505b508152600154600160a01b900460ff1667ffffffffffffffff81111561056b5761056b613aca565b6040519080825280602002602001820160405280156105c957816020015b6105b6604051806060016040528060006001600160a01b0316815260200160008152602001600081525090565b8152602001906001900390816105895790505b5081602001819052506105f3604051806060016040528060288152602001614b6660289139611330565b6106028260008360008061138c565b60408051808201909152601c81527f506f737420686f75726c7920637074546f74616c427579203a202573000000006020820152919650945090915061064c9061ffff8616611acf565b61068f6040518060400160405280601d81526020017f506f737420686f75726c7920637074546f74616c53656c6c203a2025730000008152508461ffff16611acf565b600154600160a01b900460ff166106a68486613d07565b61ffff1610156106eb576106d16040518060600160405280602781526020016145ce60279139611330565b6106df82600183878761138c565b909550935090506106f0565b600194505b6107336040518060400160405280601b81526020017f506f7374206461696c7920637074546f74616c427579203a20257300000000008152508561ffff16611acf565b6107766040518060400160405280601c81526020017f506f7374206461696c7920637074546f74616c53656c6c203a202573000000008152508461ffff16611acf565b600154600160a01b900460ff1661078d8486613d07565b61ffff1610156107d2576107b86040518060600160405280602881526020016149b260289139611330565b6107c682600283878761138c565b909550935090506107d7565b600194505b61081a6040518060400160405280601c81526020017f506f7374207765656b6c7920637074546f74616c427579203a202573000000008152508561ffff16611acf565b61085d6040518060400160405280601d81526020017f506f7374207765656b6c7920637074546f74616c53656c6c203a2025730000008152508461ffff16611acf565b600154600160a01b900460ff166108748486613d07565b61ffff16101561088357600094505b600061088f8783611b31565b80516020808301516040808501516060808701518351968752948601939093529084015282015242608082015287151560a082015290915087907fcb37354b8c96fbee5e582673e5e85a6e9436b2a28fac74fe14f87e832840519a9060c00160405180910390a26109356040518060400160405280601681526020017f68617352656d61696e696e674443414a6f62732025730000000000000000000081525087611ee9565b5050505050919050565b610947611f47565b6001805460ff909216600160a01b027fffffffffffffffffffffff00ffffffffffffffffffffffffffffffffffffffff909216919091179055565b600154604051631f08738560e21b8152600481018490526000916001600160a01b031690637c21ce149060240161018060405180830381865afa1580156109cd573d6000803e3d6000fd5b505050506040513d601f19601f820116820180604052508101906109f19190613c00565b905060008211610a435760405162461bcd60e51b815260206004820152601c60248201527f4465706f73697420616d6f756e742073686f756c64206265203e203000000000604482015260640161029e565b8051610a5a906001600160a01b0316333085611fa1565b610a6d8160a00151826000015184611ff8565b80516001600160a01b0390811660009081526002602081815260408084203380865290835281852060010185905586519095168452918152818320938352929092529081208054849290610ac2908490613d29565b90915550508051604080513381526001600160a01b039092166020830152810183905242606082015283907f9b42c995337c12dd7a5a1a5328a037e094b21b429c6cd6e5e1f478ba546b2d2b9060800161040f565b610b1f611f47565b610b296000612100565b565b600154604051631f08738560e21b8152600481018490526000916001600160a01b031690637c21ce149060240161018060405180830381865afa158015610b76573d6000803e3d6000fd5b505050506040513d601f19601f82011682018060405250810190610b9a9190613c00565b905060008211610bec5760405162461bcd60e51b815260206004820152601d60248201527f576974686472617720616d6f756e742073686f756c64206265203e2030000000604482015260640161029e565b6040808201516001600160a01b031660009081526002602090815282822033835290522054821115610c865760405162461bcd60e51b815260206004820152603360248201527f416d6f756e7420746f2077697468647261772073686f756c64206265203c207960448201527f6f7572206163636f756e742062616c616e636500000000000000000000000000606482015260840161029e565b604081810180516001600160a01b03908116600090815260026020818152858320338085529082528684206001018490559451909316825282528381209281529190529081208054849290610cdc908490613cf4565b92505081905550610cf68160a00151826040015184611092565b6040810151610d0f906001600160a01b03163384611297565b60408082015181513381526001600160a01b03909116602082015290810183905242606082015283907fb051fa67486d17e04638dfff4d83b75ca9aede58b73679b06e004b28f90262ed9060800161040f565b60408051808201909152600080825260208201526001600160a01b038316610dcc5760405162461bcd60e51b815260206004820152601d60248201527f546f6b656e20616464726573732073686f756c64206e6f742062652030000000604482015260640161029e565b6001600160a01b038216610e225760405162461bcd60e51b815260206004820152601c60248201527f5573657220616464726573732073686f756c64206e6f74206265203000000000604482015260640161029e565b506001600160a01b03808316600090815260026020908152604080832093851683529281529082902082518084019093528054835260010154908201525b92915050565b600154604051631f08738560e21b8152600481018490526000916001600160a01b031690637c21ce149060240161018060405180830381865afa158015610eb1573d6000803e3d6000fd5b505050506040513d601f19601f82011682018060405250810190610ed59190613c00565b905060008211610f275760405162461bcd60e51b815260206004820152601c60248201527f4465706f73697420616d6f756e742073686f756c64206265203e203000000000604482015260640161029e565b6040810151610f41906001600160a01b0316333085611fa1565b610f548160a00151826040015184611ff8565b604081810180516001600160a01b03908116600090815260026020818152858320338085529082528684206001018490559451909316825282528381209281529190529081208054849290610faa908490613d29565b909155505060408082015181513381526001600160a01b03909116602082015290810183905242606082015283907f9b42c995337c12dd7a5a1a5328a037e094b21b429c6cd6e5e1f478ba546b2d2b9060800161040f565b61100a611f47565b6001600160a01b0381166110865760405162461bcd60e51b815260206004820152602660248201527f4f776e61626c653a206e6577206f776e657220697320746865207a65726f206160448201527f6464726573730000000000000000000000000000000000000000000000000000606482015260840161029e565b61108f81612100565b50565b6000836001600160a01b031663026b1d5f6040518163ffffffff1660e01b8152600401602060405180830381865afa1580156110d2573d6000803e3d6000fd5b505050506040513d601f19601f820116820180604052508101906110f69190613d3c565b6040517f35ea6a750000000000000000000000000000000000000000000000000000000081526001600160a01b0385811660048301529192506000918316906335ea6a75906024016101e060405180830381865afa15801561115c573d6000803e3d6000fd5b505050506040513d601f19601f820116820180604052508101906111809190613de2565b610100015160405163095ea7b360e01b81526001600160a01b038481166004830152602482018690529192509082169063095ea7b3906044016020604051808303816000875af11580156111d8573d6000803e3d6000fd5b505050506040513d601f19601f820116820180604052508101906111fc9190613efa565b506040517f69328dec0000000000000000000000000000000000000000000000000000000081526001600160a01b038581166004830152602482018590523060448301528316906369328dec906064016020604051808303816000875af115801561126b573d6000803e3d6000fd5b505050506040513d601f19601f8201168201806040525081019061128f9190613f15565b505050505050565b6040516001600160a01b03831660248201526044810182905261132b9084907fa9059cbb00000000000000000000000000000000000000000000000000000000906064015b60408051601f198184030181529190526020810180516001600160e01b03167fffffffff0000000000000000000000000000000000000000000000000000000090931692909217909152612168565b505050565b61108f816040516024016113449190613f7e565b60408051601f198184030181529190526020810180516001600160e01b03167f41304fac00000000000000000000000000000000000000000000000000000000179052612250565b6113b76040518060800160405280606081526020016060815260200160008152602001600081525090565b6000806113f3604051806060016040528060298152602001614869602991398961012001518960028111156113ee576113ee613f91565b612271565b6113fb61398e565b611404896122d1565b8082526001546101208b01516040517fa4036c000000000000000000000000000000000000000000000000000000000081526001600160a01b039092169263a4036c00926114589291908d90600401613fa7565b600060405180830381865afa158015611475573d6000803e3d6000fd5b505050506040513d6000823e601f3d908101601f1916820160405261149d9190810190613fe1565b6020808301919091526101408a01516001600160a01b039081166040808501919091526101608c0151909116606080850191909152600160c08501528151908101909152603c80825261150392614e4a9083013960208381015180515191015151612271565b6020810151515115158061151e575060208181015101515115155b15611a94576115516040518060600160405280603f8152602001614a7f603f9139600154600160a01b900460ff16611acf565b6115846040518060600160405280602e8152602001614640602e9139826080015161ffff168360a0015161ffff16612271565b6115af6040518060600160405280603881526020016149da603891398761ffff168761ffff16612271565b600154600160a01b900460ff166115c68688613d07565b61ffff161080156116295750806080015161ffff1681602001516000600281106115f2576115f2614115565b60200201515114158061162957508060a0015161ffff16816020015160016002811061162057611620614115565b60200201515114155b15611a945761166160405180606001604052806039815260200161483060399139826080015161ffff168360a0015161ffff16612271565b61168c604051806080016040528060438152602001614e07604391398761ffff168761ffff16612271565b8060c00151156118e0576116b760405180606001604052806024815260200161480c60249139611330565b602081015151511561184d576000806116f98b610120015184602001516000600281106116e6576116e6614115565b60200201518c8660800151426001612361565b61ffff811660808601526040805160608101909152602c80825292945090925061172f9161450e60208301398360200151611acf565b6117526040518060600160405280602b81526020016147e1602b913983516128f1565b6117786040518060600160405280603181526020016147b0603191398360400151611acf565b6117a26040518060600160405280602c81526020016144bf602c9139846080015161ffff16611acf565b6117c86040518060600160405280602881526020016143f2602891398961ffff16611acf565b60208201511561181f578189600001518961ffff16815181106117ed576117ed614115565b602002602001018190525081602001518960400181815161180e9190613d29565b9052508761181b8161412b565b9850505b61184a6040518060600160405280603a81526020016148fe603a91398a604001518b60600151612271565b50505b6118956040518060800160405280604a8152602001614938604a9139826080015161ffff16836020015160006002811061188957611889614115565b60200201515114611ee9565b8660600151876040015111806118ce5750806080015161ffff1681602001516000600281106118c6576118c6614115565b602002015151145b156118db57600060c08201525b611a5c565b611901604051806060016040528060258152602001614eaf60259139611330565b602081810151015151156119d9576000806119458b6101200151846020015160016002811061193257611932614115565b60200201518c8660a00151426000612361565b61ffff811660a086015260208201519193509150156119ab578189602001518861ffff168151811061197957611979614115565b602002602001018190525081602001518960600181815161199a9190613d29565b905250866119a78161412b565b9750505b6119d66040518060600160405280603b8152602001614709603b91398a604001518b60600151612271565b50505b611a156040518060800160405280604c8152602001614dbb604c91398260a0015161ffff16836020015160016002811061188957611889614115565b86604001518760600151101580611a4f57508060a0015161ffff168160200151600160028110611a4757611a47614115565b602002015151145b15611a5c57600160c08201525b611a8f6040518060600160405280603a815260200161441a603a9139826080015161ffff168360a0015161ffff16612271565b6115af565b611abf604051806060016040528060308152602001614982603091398761ffff168761ffff16612271565b5094979396509194509192505050565b611b2d8282604051602401611ae592919061414c565b60408051601f198184030181529190526020810180516001600160e01b03167fb60e72cc00000000000000000000000000000000000000000000000000000000179052612250565b5050565b611b5c6040518060800160405280600081526020016000815260200160008152602001600081525090565b611b876040518060800160405280600081526020016000815260200160008152602001600081525090565b60008080805b86515161ffff82161015611c1d578651805161ffff8316908110611bb357611bb3614115565b6020026020010151602001518560000151611bce9190613d29565b85526020870151805161ffff8316908110611beb57611beb614115565b6020026020010151602001518560200151611c069190613d29565b602086015280611c158161412b565b915050611b8d565b50611c46604051806060016040528060298152602001614b3d6029913985516020870151612271565b6020840151845110611c5c578360200151611c5f565b83515b60408501526020840151845110611c865760408401518451611c819190613cf4565b611c9a565b83604001518460200151611c9a9190613cf4565b846060018181525050611cce60405180606001604052806032815260200161469a6032913985604001518660600151612271565b606084015115611ebb57600154604051631f08738560e21b8152600481018990526000916001600160a01b031690637c21ce149060240161018060405180830381865afa158015611d23573d6000803e3d6000fd5b505050506040513d601f19601f82011682018060405250810190611d479190613c00565b9050846020015185600001511115611d6a57805160408201519093509150611d77565b6040810151815190935091505b60008560200151866000015111611d9357816101600151611d9a565b8161014001515b9050611e26604051806060016040528060298152602001614b8e602991396040516370a0823160e01b81523360048201526001600160a01b038416906370a08231906024015b602060405180830381865afa158015611dfd573d6000803e3d6000fd5b505050506040513d601f19601f82011682018060405250810190611e219190613f15565b611acf565b611e6e6040518060600160405280602c815260200161466e602c91396040516370a0823160e01b81523060048201526001600160a01b038416906370a0823190602401611de0565b611e818260a00151858860600151611092565b611ea78987606001518860200151896000015111611ea057600061294f565b600161294f565b9450611eb88260a001518487611ff8565b50505b611ed587856000015186602001518760400151878b612e36565b611ede866133fe565b509195945050505050565b611b2d8282604051602401611eff92919061416e565b60408051601f198184030181529190526020810180516001600160e01b03167fc3b5563500000000000000000000000000000000000000000000000000000000179052612250565b6000546001600160a01b03163314610b295760405162461bcd60e51b815260206004820181905260248201527f4f776e61626c653a2063616c6c6572206973206e6f7420746865206f776e6572604482015260640161029e565b6040516001600160a01b0380851660248301528316604482015260648101829052611ff29085907f23b872dd00000000000000000000000000000000000000000000000000000000906084016112dc565b50505050565b6000836001600160a01b031663026b1d5f6040518163ffffffff1660e01b8152600401602060405180830381865afa158015612038573d6000803e3d6000fd5b505050506040513d601f19601f8201168201806040525081019061205c9190613d3c565b90506120726001600160a01b03841682846134f3565b6040517f617ba0370000000000000000000000000000000000000000000000000000000081526001600160a01b038481166004830152602482018490523060448301526000606483015282169063617ba03790608401600060405180830381600087803b1580156120e257600080fd5b505af11580156120f6573d6000803e3d6000fd5b5050505050505050565b600080546001600160a01b038381167fffffffffffffffffffffffff0000000000000000000000000000000000000000831681178455604051919092169283917f8be0079c531659141344cd1fd0a4f28419497f9722a3daafe3b4186f6b6457e09190a35050565b60006121bd826040518060400160405280602081526020017f5361666545524332303a206c6f772d6c6576656c2063616c6c206661696c6564815250856001600160a01b03166135a09092919063ffffffff16565b90508051600014806121de5750808060200190518101906121de9190613efa565b61132b5760405162461bcd60e51b815260206004820152602a60248201527f5361666545524332303a204552433230206f7065726174696f6e20646964206e60448201527f6f74207375636365656400000000000000000000000000000000000000000000606482015260840161029e565b60006a636f6e736f6c652e6c6f679050600080835160208501845afa505050565b61132b83838360405160240161228993929190614192565b60408051601f198184030181529190526020810180516001600160e01b03167fca47c4eb00000000000000000000000000000000000000000000000000000000179052612250565b60008082608001516001600160a01b031663feaf968c6040518163ffffffff1660e01b815260040160a060405180830381865afa158015612316573d6000803e3d6000fd5b505050506040513d601f19601f8201168201806040525081019061233a91906141d1565b5050509150508260e00151816123509190614237565b61235a9082613cf4565b9392505050565b61238e604051806060016040528060006001600160a01b0316815260200160008152602001600081525090565b60006123c36040518060600160405280602f8152602001614d27602f91398661ffff168860028111156113ee576113ee613f91565b6123e6604051806060016040528060358152602001614cbd603591398851611acf565b600154604051631f08738560e21b8152600481018a90526000916001600160a01b031690637c21ce149060240161018060405180830381865afa158015612431573d6000803e3d6000fd5b505050506040513d601f19601f820116820180604052508101906124559190613c00565b905061251c604051806080016040528060478152602001614c76604791396001548a5161ffff8a169189916001600160a01b039091169063b2d4fcad908e90859081106124a4576124a4614115565b6020026020010151604001516040518263ffffffff1660e01b81526004016124ce91815260200190565b610160604051808303816000875af11580156124ee573d6000803e3d6000fd5b505050506040513d601f19601f820116820180604052508101906125129190614279565b61012001516135b7565b61255f60405180606001604052806038815260200161448760389139898861ffff168151811061254e5761254e614115565b602002602001015160200151611acf565b600084156125d25781516001600160a01b031660009081526002602052604081208a519091908b9061ffff8b1690811061259b5761259b614115565b6020026020010151600001516001600160a01b03166001600160a01b03168152602001908152602001600020600001549050612646565b6002600083604001516001600160a01b03166001600160a01b0316815260200190815260200160002060008a8961ffff168151811061261357612613614115565b6020026020010151600001516001600160a01b03166001600160a01b031681526020019081526020016000206000015490505b6126686040518060600160405280602a8152602001614bb7602a913982611acf565b612696604051806060016040528060238152602001614a5c60239139896002811115611e2157611e21613f91565b6126bb604051806060016040528060358152602001614cf260359139611e218a613619565b61278a6040518060600160405280602181526020016148dd602191396001548b5189916001600160a01b03169063b2d4fcad908e9061ffff8e1690811061270457612704614115565b6020026020010151604001516040518263ffffffff1660e01b815260040161272e91815260200190565b610160604051808303816000875af115801561274e573d6000803e3d6000fd5b505050506040513d601f19601f820116820180604052508101906127729190614279565b61012001516127808c613619565b6113ee9190613d29565b60015489516001600160a01b039091169063b2d4fcad908b9061ffff8b169081106127b7576127b7614115565b6020026020010151604001516040518263ffffffff1660e01b81526004016127e191815260200190565b610160604051808303816000875af1158015612801573d6000803e3d6000fd5b505050506040513d601f19601f820116820180604052508101906128259190614279565b610120015161283389613619565b61283d9190613d29565b8611801561286c5750888761ffff168151811061285c5761285c614115565b6020026020010151602001518110155b156128b957888761ffff168151811061288757612887614115565b602002602001015193506128b96040518060600160405280603d81526020016146cc603d913960208601518651613683565b866128c38161412b565b9750505050816020015160001480156128e057508461ffff168751115b6123e6575083965096945050505050565b611b2d828260405160240161290792919061431e565b60408051601f198184030181529190526020810180516001600160e01b03167f319af33300000000000000000000000000000000000000000000000000000000179052612250565b600154604051631f08738560e21b81526004810185905260009182916001600160a01b0390911690637c21ce149060240161018060405180830381865afa15801561299e573d6000803e3d6000fd5b505050506040513d601f19601f820116820180604052508101906129c29190613c00565b905060008084156129db575050805160408201516129e5565b5050604081015181515b6129f582846101000151886136e3565b600080548190600160a01b900460ff168015612a0f575081155b8015612a2257506001600160a01b038116155b15612abb5760405162461bcd60e51b815260206004820152604d60248201527f496e2070726f647574696f6e206d6f64652c20796f752073686f756c6420657860448201527f706c696369746c792073657420736c697070616765206c696d69747320666f7260648201527f20756e6973776170207377617000000000000000000000000000000000000000608482015260a40161029e565b612afa6040518060400160405280601c81526020017f73776170202d2061646472657373206d73672e73656e646572203a2000000000815250336128f1565b612b396040518060400160405280601681526020017f73776170202d20616464726573732074686973203a2000000000000000000000815250306128f1565b612b60604051806060016040528060228152602001614744602291398661010001516128f1565b612ba86040518060600160405280602381526020016144eb602391396040516370a0823160e01b81523360048201526001600160a01b038716906370a0823190602401611de0565b612bf0604051806060016040528060268152602001614d56602691396040516370a0823160e01b81523060048201526001600160a01b038716906370a0823190602401611de0565b612c41604051806060016040528060298152602001614e86602991396101008701516040516370a0823160e01b81526001600160a01b039182166004820152908716906370a0823190602401611de0565b612c9860405180606001604052806033815260200161445460339139610100870151604051636eb1769f60e11b81523360048201526001600160a01b0391821660248201529087169063dd62ed3e90604401611de0565b612cef604051806060016040528060358152602001614abe60359139610100870151604051636eb1769f60e11b81523060048201526001600160a01b0391821660248201529087169063dd62ed3e90604401611de0565b60408051610100810182526001600160a01b03808716825285166020820152610bb89181019190915230606082015260009060808101612d3042600f613d29565b815260208082018c905260408083018790526001600160a01b038087166060948501526101008b015182517f414bf38900000000000000000000000000000000000000000000000000000000815286518316600482015293860151821660248501529185015162ffffff16604484015292840151831660648301526080840151608483015260a084015160a483015260c084015160c483015260e0840151831660e483015292935091169063414bf38990610104016020604051808303816000875af1158015612e04573d6000803e3d6000fd5b505050506040513d601f19601f82011682018060405250810190612e289190613f15565b9a9950505050505050505050565b612e596040518060600160405280603f8152602001614d7c603f91398686612271565b612e7c604051806080016040528060478152602001614587604791398484612271565b600154604051631f08738560e21b8152600481018890526000916001600160a01b031690637c21ce149060240161018060405180830381865afa158015612ec7573d6000803e3d6000fd5b505050506040513d601f19601f82011682018060405250810190612eeb9190613c00565b905060005b82515161ffff821610156120f6578251805161ffff8316908110612f1657612f16614115565b60200260200101516020015160001461317457600083600001518261ffff1681518110612f4557612f45614115565b6020026020010151600001519050600084600001518361ffff1681518110612f6f57612f6f614115565b6020026020010151602001519050612fc66040518060800160405280604b8152602001614be1604b913985516001600160a01b03908116600090815260026020908152604080832093881683529290522054611acf565b6130126040518060800160405280604b81526020016145f5604b91396040808701516001600160a01b039081166000908152600260209081528382209288168252919091522054611acf565b60008961301f8984614349565b6130299190614360565b905060008a6130388985614349565b6130429190614360565b905061304e8183613d29565b86516001600160a01b03908116600090815260026020908152604080832093891683529290529081208054909190613087908490613cf4565b9091555061309790508183613d29565b6040808801516001600160a01b0390811660009081526002602090815283822092891682529190915290812080549091906130d3908490613d29565b925050819055506131236040518060800160405280604a8152602001614af3604a913987516001600160a01b039081166000908152600260209081526040808320938a1683529290522054611acf565b61316f6040518060800160405280604a8152602001614766604a91396040808901516001600160a01b03908116600090815260026020908152838220928a168252919091522054611acf565b505050505b82602001518161ffff168151811061318e5761318e614115565b6020026020010151602001516000146133ec57600083602001518261ffff16815181106131bd576131bd614115565b6020026020010151600001519050600084602001518361ffff16815181106131e7576131e7614115565b602002602001015160200151905061323e6040518060800160405280604d815260200161453a604d913985516001600160a01b03908116600090815260026020908152604080832093881683529290522054611acf565b61328a6040518060800160405280604b8152602001614892604b91396040808701516001600160a01b039081166000908152600260209081528382209288168252919091522054611acf565b6000886132978984614349565b6132a19190614360565b90506000896132b08985614349565b6132ba9190614360565b90506132c68183613d29565b6040808801516001600160a01b039081166000908152600260209081528382209289168252919091529081208054909190613302908490613cf4565b9091555061331290508183613d29565b86516001600160a01b0390811660009081526002602090815260408083209389168352929052908120805490919061334b908490613d29565b9250508190555061339b6040518060800160405280604a8152602001614a12604a913987516001600160a01b039081166000908152600260209081526040808320938a1683529290522054611acf565b6133e76040518060800160405280604a8152602001614c2c604a91396040808901516001600160a01b03908116600090815260026020908152838220928a168252919091522054611acf565b505050505b806133f68161412b565b915050612ef0565b61343c6040518060400160405280601b81526020017f757064617465444341436f6e66696750726f636573736564202d200000000000815250611330565b60005b81515161ffff82161015611b2d57600154825180516001600160a01b03909216916318b8659b919061ffff851690811061347b5761347b614115565b602002602001015160400151426040518363ffffffff1660e01b81526004016134ae929190918252602082015260400190565b600060405180830381600087803b1580156134c857600080fd5b505af11580156134dc573d6000803e3d6000fd5b5050505080806134eb9061412b565b91505061343f565b604051636eb1769f60e11b81523060048201526001600160a01b0383811660248301526000919085169063dd62ed3e90604401602060405180830381865afa158015613543573d6000803e3d6000fd5b505050506040513d601f19601f820116820180604052508101906135679190613f15565b9050611ff28463095ea7b360e01b856135808686613d29565b6040516001600160a01b03909216602483015260448201526064016112dc565b60606135af84846000856137fe565b949350505050565b611ff2848484846040516024016135d19493929190614374565b60408051601f198184030181529190526020810180516001600160e01b03167fa7a8785300000000000000000000000000000000000000000000000000000000179052612250565b60008082600281111561362e5761362e613f91565b0361363c5750610e10919050565b600182600281111561365057613650613f91565b0361365f575062015180919050565b600282600281111561367357613673613f91565b0361367e575062093a805b919050565b61132b83838360405160240161369b939291906143a3565b60408051601f198184030181529190526020810180516001600160e01b03167f1c7ec44800000000000000000000000000000000000000000000000000000000179052612250565b604080516001600160a01b038481166024830152604480830185905283518084039091018152606490920183526020820180516001600160e01b031663095ea7b360e01b179052915160009283929087169161373f91906143d5565b6000604051808303816000865af19150503d806000811461377c576040519150601f19603f3d011682016040523d82523d6000602084013e613781565b606091505b50915091508180156137ab5750805115806137ab5750808060200190518101906137ab9190613efa565b6137f75760405162461bcd60e51b815260206004820152600260248201527f5341000000000000000000000000000000000000000000000000000000000000604482015260640161029e565b5050505050565b6060824710156138765760405162461bcd60e51b815260206004820152602660248201527f416464726573733a20696e73756666696369656e742062616c616e636520666f60448201527f722063616c6c0000000000000000000000000000000000000000000000000000606482015260840161029e565b600080866001600160a01b0316858760405161389291906143d5565b60006040518083038185875af1925050503d80600081146138cf576040519150601f19603f3d011682016040523d82523d6000602084013e6138d4565b606091505b50915091506138e5878383876138f0565b979650505050505050565b6060831561395f578251600003613958576001600160a01b0385163b6139585760405162461bcd60e51b815260206004820152601d60248201527f416464726573733a2063616c6c20746f206e6f6e2d636f6e7472616374000000604482015260640161029e565b50816135af565b6135af83838151156139745781518083602001fd5b8060405162461bcd60e51b815260040161029e9190613f7e565b6040518060e00160405280600081526020016139a86139d1565b815260006020820181905260408201819052606082018190526080820181905260a09091015290565b60405180604001604052806002905b60608152602001906001900390816139e05790505090565b60008060408385031215613a0b57600080fd5b50508035926020909101359150565b600060208284031215613a2c57600080fd5b5035919050565b60ff8116811461108f57600080fd5b600060208284031215613a5457600080fd5b813561235a81613a33565b6001600160a01b038116811461108f57600080fd5b60008060408385031215613a8757600080fd5b8235613a9281613a5f565b91506020830135613aa281613a5f565b809150509250929050565b600060208284031215613abf57600080fd5b813561235a81613a5f565b634e487b7160e01b600052604160045260246000fd5b604051610180810167ffffffffffffffff81118282101715613b0457613b04613aca565b60405290565b6040516101e0810167ffffffffffffffff81118282101715613b0457613b04613aca565b6040805190810167ffffffffffffffff81118282101715613b0457613b04613aca565b6040516060810167ffffffffffffffff81118282101715613b0457613b04613aca565b604051610160810167ffffffffffffffff81118282101715613b0457613b04613aca565b604051601f8201601f1916810167ffffffffffffffff81118282101715613bc157613bc1613aca565b604052919050565b805161367e81613a5f565b80516bffffffffffffffffffffffff8116811461367e57600080fd5b8051801515811461367e57600080fd5b60006101808284031215613c1357600080fd5b613c1b613ae0565b613c2483613bc9565b8152613c3260208401613bd4565b6020820152613c4360408401613bc9565b6040820152613c5460608401613bd4565b6060820152613c6560808401613bc9565b6080820152613c7660a08401613bc9565b60a0820152613c8760c08401613bf0565b60c082015260e083015160e0820152610100613ca4818501613bc9565b908201526101208381015190820152610140613cc1818501613bc9565b90820152610160613cd3848201613bc9565b908201529392505050565b634e487b7160e01b600052601160045260246000fd5b81810381811115610e6057610e60613cde565b61ffff818116838216019080821115613d2257613d22613cde565b5092915050565b80820180821115610e6057610e60613cde565b600060208284031215613d4e57600080fd5b815161235a81613a5f565b600060208284031215613d6b57600080fd5b6040516020810181811067ffffffffffffffff82111715613d8e57613d8e613aca565b6040529151825250919050565b80516fffffffffffffffffffffffffffffffff8116811461367e57600080fd5b805164ffffffffff8116811461367e57600080fd5b805161ffff8116811461367e57600080fd5b60006101e08284031215613df557600080fd5b613dfd613b0a565b613e078484613d59565b8152613e1560208401613d9b565b6020820152613e2660408401613d9b565b6040820152613e3760608401613d9b565b6060820152613e4860808401613d9b565b6080820152613e5960a08401613d9b565b60a0820152613e6a60c08401613dbb565b60c0820152613e7b60e08401613dd0565b60e0820152610100613e8e818501613bc9565b90820152610120613ea0848201613bc9565b90820152610140613eb2848201613bc9565b90820152610160613ec4848201613bc9565b90820152610180613ed6848201613d9b565b908201526101a0613ee8848201613d9b565b908201526101c0613cd3848201613d9b565b600060208284031215613f0c57600080fd5b61235a82613bf0565b600060208284031215613f2757600080fd5b5051919050565b60005b83811015613f49578181015183820152602001613f31565b50506000910152565b60008151808452613f6a816020860160208601613f2e565b601f01601f19169290920160200192915050565b60208152600061235a6020830184613f52565b634e487b7160e01b600052602160045260246000fd5b838152602081018390526060810160038310613fd357634e487b7160e01b600052602160045260246000fd5b826040830152949350505050565b60006020808385031215613ff457600080fd5b825167ffffffffffffffff8082111561400c57600080fd5b818501915085601f83011261402057600080fd5b614028613b2e565b80604084018881111561403a57600080fd5b845b818110156141075780518581111561405357600080fd5b8601601f81018b1361406457600080fd5b80518681111561407657614076613aca565b614084898260051b01613b98565b81815260609091028201890190898101908d8311156140a257600080fd5b928a01925b828410156140f7576060848f0312156140bf57600080fd5b6140c7613b51565b84516140d281613a5f565b8152848c01518c820152604080860151908201528252606090930192908a01906140a7565b875250505092860192860161403c565b509098975050505050505050565b634e487b7160e01b600052603260045260246000fd5b600061ffff80831681810361414257614142613cde565b6001019392505050565b60408152600061415f6040830185613f52565b90508260208301529392505050565b6040815260006141816040830185613f52565b905082151560208301529392505050565b6060815260006141a56060830186613f52565b60208301949094525060400152919050565b805169ffffffffffffffffffff8116811461367e57600080fd5b600080600080600060a086880312156141e957600080fd5b6141f2866141b7565b9450602086015193506040860151925060608601519150614215608087016141b7565b90509295509295909350565b634e487b7160e01b600052601260045260246000fd5b60008261424657614246614221565b500690565b805161367e81613a33565b805163ffffffff8116811461367e57600080fd5b80516003811061367e57600080fd5b6000610160828403121561428c57600080fd5b614294613b74565b82518152602083015160208201526142ae60408401613bf0565b6040820152606083015160608201526080830151608082015260a083015160a08201526142dd60c0840161424b565b60c08201526142ee60e08401614256565b60e082015261010061430181850161426a565b908201526101208381015190820152610140613cd3818501613bc9565b6040815260006143316040830185613f52565b90506001600160a01b03831660208301529392505050565b8082028115828204841417610e6057610e60613cde565b60008261436f5761436f614221565b500490565b6080815260006143876080830187613f52565b6020830195909552506040810192909252606090910152919050565b6060815260006143b66060830186613f52565b90508360208301526001600160a01b0383166040830152949350505050565b600082516143e7818460208701613f2e565b919091019291505056fe676574444341456e7472696573546f50726f63657373202d20637074546f74616c42757920257320676574444341456e7472696573546f50726f63657373202d20456e64207768696c65202d206370744275792025732063707453656c6c2025732073776170202d2061746f6b656e20616c6c6f77616e6365206d73672e73656e646572202d3e2073776170726f75746572203a206765744e6578745365676d656e74456e747279202d203220496e205768696c65207365676d656e7420656e74727920616d6f756e74202573676574444341456e7472696573546f50726f63657373202d2070726f63566172732e6370744275792025732073776170202d2061746f6b656e2062616c616e6365206d73672e73656e646572203a20676574444341456e7472696573546f50726f63657373202d20736567456e7472792e616d6f756e74202573204f54434f72537761705472616e73616374696f6e546f5573657242616c616e6365202d20422d3e2041202d20546f6b656e2062616c616e6365206265666f7265202d20546f6b656e20412025734f54434f72537761705472616e73616374696f6e546f5573657242616c616e6365202d20616d6f756e74466f724f54432025732c20616d6f756e74466f725377617020257320202d2d2d2d2d2d2d2d2d2d2d65786563757465444341204461696c79202d2d2d2d2d2d2d2d2d2d2d4f54434f72537761705472616e73616374696f6e546f5573657242616c616e6365202d20412d3e204220546f6b656e2062616c616e6365206265666f7265202d20546f6b656e2042202573676574444341456e7472696573546f50726f63657373202d206370744275792025732063707453656c6c20257320636f6d70757465444341202d2061746f6b656e2062616c616e63652074686973286164647265737329203a20636f6d70757465444341202d20616d6f756e74466f724f5443203a2025732c20616d6f756e74466f7253776170203a2025736765744e6578745365676d656e74456e747279202d2034205365676d656e7420666f756e64202d20616d6f756e74202573202c206f776e657220257320676574444341456e7472696573546f50726f63657373202d2053656c6c203a20616d6f756e7442757920257320616d6f756e7453656c6c2025732073776170202d2061646472657373206c506169722e73776170526f75746572203a204f54434f72537761705472616e73616374696f6e546f5573657242616c616e6365202d20412d3e204220546f6b656e2062616c616e6365206166746572202d20546f6b656e2042202573676574444341456e7472696573546f50726f63657373202d20736567456e7472792e646361436f6e666967496420257320676574444341456e7472696573546f50726f63657373202d20736567456e7472792e6f776e657220257320676574444341456e7472696573546f50726f63657373202d205374617274206973427579676574444341456e7472696573546f50726f63657373202d20496e207768696c65202d206370744275792025732063707453656c6c202573204765744443414a6f62732066726f6d207061722025732064656c617920257320257320746f6b656e734f54434f72537761705472616e73616374696f6e546f5573657242616c616e6365202d20422d3e204120546f6b656e2062616c616e6365206265666f7265202d20546f6b656e20422025736765744e6578745365676d656e74456e747279202d20332063616c63756c202573676574444341456e7472696573546f50726f63657373202d20427579203a20616d6f756e7442757920257320616d6f756e7453656c6c20257320676574444341456e7472696573546f50726f63657373202d20456e642042757920202d207365676d656e74456e74726965735b305d2e6c656e677468203d3d2063707442757920257320456e64204765744443414a6f6273202d20637074546f74616c42757920257320637074546f74616c53656c6c202573202d2d2d2d2d2d2d2d2d2d2d65786563757465444341205765656b6c79202d2d2d2d2d2d2d2d2d2d2d676574444341456e7472696573546f50726f63657373202d20637074546f74616c42757920257320637074546f74616c53656c6c202573204f54434f72537761705472616e73616374696f6e546f5573657242616c616e6365202d20422d3e204120546f6b656e2062616c616e6365206166746572202d20546f6b656e20412025736765744e6578745365676d656e74456e747279202d2033205f64656c6179203a202573676574444341456e7472696573546f50726f63657373202d204d41585f4443415f4a4f425f5045525f4443415f455845435554494f4e5f43414c4c2025732073776170202d2061746f6b656e20616c6c6f77616e63652074686973286164647265737329202d3e2073776170726f757465723a204f54434f72537761705472616e73616374696f6e546f5573657242616c616e6365202d20412d3e204220546f6b656e2062616c616e6365206166746572202d20546f6b656e2041202573636f6d70757465444341202d20616d6f7574496e203a2025732c20616d6f756e744f7574203a2025732d2d2d2d2d2d2d2d2d2d2d6578656375746544434120486f75726c79202d2d2d2d2d2d2d2d2d2d2d636f6d70757465444341202d2061746f6b656e2062616c616e6365206d73672e73656e646572203a206765744e6578745365676d656e74456e747279202d2033204f776e65722062616c616e6365203a2025734f54434f72537761705472616e73616374696f6e546f5573657242616c616e6365202d20412d3e204220546f6b656e2062616c616e6365206265666f7265202d20546f6b656e20412025734f54434f72537761705472616e73616374696f6e546f5573657242616c616e6365202d20422d3e204120546f6b656e2062616c616e6365206166746572202d20546f6b656e20422025736765744e6578745365676d656e74456e747279202d203220496e205768696c6520637074203a2025732c2074696d655374616d70202573206c61737444434154696d65202573206765744e6578745365676d656e74456e747279202d2031202d207365676d656e74456e74726965732e6c656e677468203a202573206765744e6578745365676d656e74456e747279202d20332067657444656c6179496e5365636f6e64285f64656c617929203a2025736765744e6578745365676d656e74456e747279202d2031202d20637074203a2025732c205f64656c6179203a20257373776170202d2061746f6b656e2062616c616e63652074686973286164647265737329203a204f54434f72537761705472616e73616374696f6e546f5573657242616c616e6365202d20616d6f756e74496e2025732c20616d6f756e744f75742025732020676574444341456e7472696573546f50726f63657373202d20456e64202142757920202d207365676d656e74456e74726965735b315d2e6c656e677468203d3d2063707453656c6c20257320676574444341456e7472696573546f50726f63657373202d20496e207768696c65202d20637074546f74616c42757920257320637074546f74616c53656c6c20257320676574444341456e7472696573546f50726f63657373202d20496e6974207365676d656e7420656e7472696573204255592025732053454c4c20257373776170202d2061746f6b656e2062616c616e6365206c506169722e73776170526f75746572203a20676574444341456e7472696573546f50726f63657373202d20537461727420216973427579a2646970667358221220caa46feeaa0f2ddaf8f7af26089a8f7fc623808df42ca75b55a8282f65e1e02e64736f6c63430008130033",
  "linkReferences": {},
  "deployedLinkReferences": {}
}