{
  "_format": "hh-sol-artifact-1",
  "contractName": "MockChainLinkAggregatorV3",
  "sourceName": "contracts/mocks/MockChainLinkAggregatorV3.sol",
  "abi": [
    {
      "inputs": [
        {
          "internalType": "address",
          "name": "_pairAddressToFetch",
          "type": "address"
        },
        {
          "internalType": "bool",
          "name": "_localMock",
          "type": "bool"
        }
      ],
      "stateMutability": "nonpayable",
      "type": "constructor"
    },
    {
      "inputs": [],
      "name": "decimals",
      "outputs": [
        {
          "internalType": "uint8",
          "name": "",
          "type": "uint8"
        }
      ],
      "stateMutability": "view",
      "type": "function"
    },
    {
      "inputs": [],
      "name": "description",
      "outputs": [
        {
          "internalType": "string",
          "name": "",
          "type": "string"
        }
      ],
      "stateMutability": "view",
      "type": "function"
    },
    {
      "inputs": [
        {
          "internalType": "uint80",
          "name": "",
          "type": "uint80"
        }
      ],
      "name": "getRoundData",
      "outputs": [
        {
          "internalType": "uint80",
          "name": "",
          "type": "uint80"
        },
        {
          "internalType": "int256",
          "name": "answer",
          "type": "int256"
        },
        {
          "internalType": "uint256",
          "name": "startedAt",
          "type": "uint256"
        },
        {
          "internalType": "uint256",
          "name": "updatedAt",
          "type": "uint256"
        },
        {
          "internalType": "uint80",
          "name": "answeredInRound",
          "type": "uint80"
        }
      ],
      "stateMutability": "view",
      "type": "function"
    },
    {
      "inputs": [],
      "name": "latestRoundData",
      "outputs": [
        {
          "internalType": "uint80",
          "name": "roundId",
          "type": "uint80"
        },
        {
          "internalType": "int256",
          "name": "answer",
          "type": "int256"
        },
        {
          "internalType": "uint256",
          "name": "startedAt",
          "type": "uint256"
        },
        {
          "internalType": "uint256",
          "name": "updatedAt",
          "type": "uint256"
        },
        {
          "internalType": "uint80",
          "name": "answeredInRound",
          "type": "uint80"
        }
      ],
      "stateMutability": "view",
      "type": "function"
    },
    {
      "inputs": [
        {
          "internalType": "int256",
          "name": "_price",
          "type": "int256"
        }
      ],
      "name": "setPrice",
      "outputs": [],
      "stateMutability": "nonpayable",
      "type": "function"
    },
    {
      "inputs": [],
      "name": "version",
      "outputs": [
        {
          "internalType": "uint256",
          "name": "",
          "type": "uint256"
        }
      ],
      "stateMutability": "view",
      "type": "function"
    }
  ],
  "bytecode": "0x6080604052600080546001600160a01b03191673d4a33860578de61dbabdc8bfdb98fd742fa7028e17905534801561003657600080fd5b506040516106a43803806106a483398101604081905261005591610090565b6005805460ff191682151590811790915560ff1661008957600180546001600160a01b0319166001600160a01b0384161790555b50506100db565b600080604083850312156100a357600080fd5b82516001600160a01b03811681146100ba57600080fd5b602084015190925080151581146100d057600080fd5b809150509250929050565b6105ba806100ea6000396000f3fe608060405234801561001057600080fd5b50600436106100725760003560e01c80639a6fc8f5116100505780639a6fc8f5146100c1578063f7a3080614610131578063feaf968c1461014657600080fd5b8063313ce5671461007757806354fd4d50146100965780637284e416146100ac575b600080fd5b61007f61016e565b60405160ff90911681526020015b60405180910390f35b61009e6101fd565b60405190815260200161008d565b6100b4610287565b60405161008d91906103cf565b6100fa6100cf366004610402565b50600154600254600354600454600160a01b90930469ffffffffffffffffffff169391929091600090565b6040805169ffffffffffffffffffff968716815260208101959095528401929092526060830152909116608082015260a00161008d565b61014461013f366004610435565b610347565b005b600154600254600354600454600160a01b90930469ffffffffffffffffffff169260006100fa565b60055460009060ff166101f757600160009054906101000a90046001600160a01b03166001600160a01b031663313ce5676040518163ffffffff1660e01b8152600401602060405180830381865afa1580156101ce573d6000803e3d6000fd5b505050506040513d601f19601f820116820180604052508101906101f2919061044e565b905090565b50600890565b60055460009060ff1661028157600160009054906101000a90046001600160a01b03166001600160a01b03166354fd4d506040518163ffffffff1660e01b8152600401602060405180830381865afa15801561025d573d6000803e3d6000fd5b505050506040513d601f19601f820116820180604052508101906101f29190610471565b50600090565b60055460609060ff1661030f57600160009054906101000a90046001600160a01b03166001600160a01b0316637284e4166040518163ffffffff1660e01b8152600401600060405180830381865afa1580156102e7573d6000803e3d6000fd5b505050506040513d6000823e601f3d908101601f191682016040526101f291908101906104a0565b5060408051808201909152600a81527f4c6f63616c204d6f636b00000000000000000000000000000000000000000000602082015290565b600281905560018054600160a01b900469ffffffffffffffffffff1690601461036f8361054d565b91906101000a81548169ffffffffffffffffffff021916908369ffffffffffffffffffff16021790555050426003819055504260048190555050565b60005b838110156103c65781810151838201526020016103ae565b50506000910152565b60208152600082518060208401526103ee8160408501602087016103ab565b601f01601f19169190910160400192915050565b60006020828403121561041457600080fd5b813569ffffffffffffffffffff8116811461042e57600080fd5b9392505050565b60006020828403121561044757600080fd5b5035919050565b60006020828403121561046057600080fd5b815160ff8116811461042e57600080fd5b60006020828403121561048357600080fd5b5051919050565b634e487b7160e01b600052604160045260246000fd5b6000602082840312156104b257600080fd5b815167ffffffffffffffff808211156104ca57600080fd5b818401915084601f8301126104de57600080fd5b8151818111156104f0576104f061048a565b604051601f8201601f19908116603f011681019083821181831017156105185761051861048a565b8160405282815287602084870101111561053157600080fd5b6105428360208301602088016103ab565b979650505050505050565b600069ffffffffffffffffffff80831681810361057a57634e487b7160e01b600052601160045260246000fd5b600101939250505056fea264697066735822122000ac3608ab07d3e04be4dbe543002644b5af0016ae57c39b189e10d90426fc4964736f6c63430008130033",
  "linkReferences": {},
  "deployedLinkReferences": {}
}